{
  "_format": "hh-sol-artifact-1",
  "contractName": "NFTStaking",
  "sourceName": "contracts/Stake.sol",
  "abi": [
    {
      "inputs": [
        {
          "internalType": "contract RunningMan",
          "name": "_nft",
          "type": "address"
        },
        {
          "internalType": "contract Reward",
          "name": "_token",
          "type": "address"
        }
      ],
      "stateMutability": "nonpayable",
      "type": "constructor"
    },
    {
      "anonymous": false,
      "inputs": [
        {
          "indexed": false,
          "internalType": "address",
          "name": "owner",
          "type": "address"
        },
        {
          "indexed": false,
          "internalType": "uint256",
          "name": "amount",
          "type": "uint256"
        }
      ],
      "name": "Claimed",
      "type": "event"
    },
    {
      "anonymous": false,
      "inputs": [
        {
          "indexed": false,
          "internalType": "address",
          "name": "owner",
          "type": "address"
        },
        {
          "indexed": false,
          "internalType": "uint256",
          "name": "tokenId",
          "type": "uint256"
        },
        {
          "indexed": false,
          "internalType": "uint256",
          "name": "value",
          "type": "uint256"
        }
      ],
      "name": "NFTStaked",
      "type": "event"
    },
    {
      "anonymous": false,
      "inputs": [
        {
          "indexed": false,
          "internalType": "address",
          "name": "owner",
          "type": "address"
        },
        {
          "indexed": false,
          "internalType": "uint256",
          "name": "tokenId",
          "type": "uint256"
        },
        {
          "indexed": false,
          "internalType": "uint256",
          "name": "value",
          "type": "uint256"
        }
      ],
      "name": "NFTUnstaked",
      "type": "event"
    },
    {
      "anonymous": false,
      "inputs": [
        {
          "indexed": true,
          "internalType": "address",
          "name": "previousOwner",
          "type": "address"
        },
        {
          "indexed": true,
          "internalType": "address",
          "name": "newOwner",
          "type": "address"
        }
      ],
      "name": "OwnershipTransferred",
      "type": "event"
    },
    {
      "anonymous": false,
      "inputs": [
        {
          "indexed": false,
          "internalType": "string",
          "name": "category",
          "type": "string"
        },
        {
          "indexed": false,
          "internalType": "uint256",
          "name": "reward",
          "type": "uint256"
        },
        {
          "indexed": false,
          "internalType": "uint256",
          "name": "nftId",
          "type": "uint256"
        }
      ],
      "name": "SetItems",
      "type": "event"
    },
    {
      "inputs": [
        {
          "internalType": "address",
          "name": "account",
          "type": "address"
        }
      ],
      "name": "balanceOf",
      "outputs": [
        {
          "internalType": "uint256",
          "name": "",
          "type": "uint256"
        }
      ],
      "stateMutability": "view",
      "type": "function"
    },
    {
      "inputs": [
        {
          "internalType": "uint256[]",
          "name": "tokenIds",
          "type": "uint256[]"
        }
      ],
      "name": "claim",
      "outputs": [],
      "stateMutability": "nonpayable",
      "type": "function"
    },
    {
      "inputs": [
        {
          "internalType": "address",
          "name": "account",
          "type": "address"
        },
        {
          "internalType": "uint256[]",
          "name": "tokenIds",
          "type": "uint256[]"
        }
      ],
      "name": "claimForAddress",
      "outputs": [],
      "stateMutability": "nonpayable",
      "type": "function"
    },
    {
      "inputs": [
        {
          "internalType": "address",
          "name": "account",
          "type": "address"
        },
        {
          "internalType": "uint256[]",
          "name": "tokenIds",
          "type": "uint256[]"
        }
      ],
      "name": "earningInfo",
      "outputs": [
        {
          "internalType": "uint256[1]",
          "name": "info",
          "type": "uint256[1]"
        }
      ],
      "stateMutability": "view",
      "type": "function"
    },
    {
      "inputs": [
        {
          "internalType": "address",
          "name": "",
          "type": "address"
        },
        {
          "internalType": "address",
          "name": "from",
          "type": "address"
        },
        {
          "internalType": "uint256",
          "name": "",
          "type": "uint256"
        },
        {
          "internalType": "bytes",
          "name": "",
          "type": "bytes"
        }
      ],
      "name": "onERC721Received",
      "outputs": [
        {
          "internalType": "bytes4",
          "name": "",
          "type": "bytes4"
        }
      ],
      "stateMutability": "pure",
      "type": "function"
    },
    {
      "inputs": [],
      "name": "owner",
      "outputs": [
        {
          "internalType": "address",
          "name": "",
          "type": "address"
        }
      ],
      "stateMutability": "view",
      "type": "function"
    },
    {
      "inputs": [],
      "name": "renounceOwnership",
      "outputs": [],
      "stateMutability": "nonpayable",
      "type": "function"
    },
    {
      "inputs": [
        {
          "internalType": "uint256",
          "name": "",
          "type": "uint256"
        }
      ],
      "name": "rewardItem",
      "outputs": [
        {
          "internalType": "string",
          "name": "category",
          "type": "string"
        },
        {
          "internalType": "uint256",
          "name": "reward",
          "type": "uint256"
        }
      ],
      "stateMutability": "view",
      "type": "function"
    },
    {
      "inputs": [
        {
          "internalType": "string",
          "name": "_category",
          "type": "string"
        },
        {
          "internalType": "uint256",
          "name": "_reward",
          "type": "uint256"
        },
        {
          "internalType": "uint256",
          "name": "_nftId",
          "type": "uint256"
        }
      ],
      "name": "setItems",
      "outputs": [],
      "stateMutability": "nonpayable",
      "type": "function"
    },
    {
      "inputs": [
        {
          "internalType": "uint256[]",
          "name": "tokenIds",
          "type": "uint256[]"
        }
      ],
      "name": "stake",
      "outputs": [],
      "stateMutability": "nonpayable",
      "type": "function"
    },
    {
      "inputs": [
        {
          "internalType": "address",
          "name": "account",
          "type": "address"
        }
      ],
      "name": "tokensOfOwner",
      "outputs": [
        {
          "internalType": "uint256[]",
          "name": "ownerTokens",
          "type": "uint256[]"
        }
      ],
      "stateMutability": "view",
      "type": "function"
    },
    {
      "inputs": [],
      "name": "totalStaked",
      "outputs": [
        {
          "internalType": "uint256",
          "name": "",
          "type": "uint256"
        }
      ],
      "stateMutability": "view",
      "type": "function"
    },
    {
      "inputs": [
        {
          "internalType": "address",
          "name": "newOwner",
          "type": "address"
        }
      ],
      "name": "transferOwnership",
      "outputs": [],
      "stateMutability": "nonpayable",
      "type": "function"
    },
    {
      "inputs": [
        {
          "internalType": "uint256[]",
          "name": "tokenIds",
          "type": "uint256[]"
        }
      ],
      "name": "unstake",
      "outputs": [],
      "stateMutability": "nonpayable",
      "type": "function"
    },
    {
      "inputs": [
        {
          "internalType": "uint256[]",
          "name": "tokenIds",
          "type": "uint256[]"
        }
      ],
      "name": "unstakeNFTs",
      "outputs": [],
      "stateMutability": "nonpayable",
      "type": "function"
    },
    {
      "inputs": [
        {
          "internalType": "uint256",
          "name": "",
          "type": "uint256"
        }
      ],
      "name": "vault",
      "outputs": [
        {
          "internalType": "uint24",
          "name": "tokenId",
          "type": "uint24"
        },
        {
          "internalType": "uint48",
          "name": "timestamp",
          "type": "uint48"
        },
        {
          "internalType": "address",
          "name": "owner",
          "type": "address"
        }
      ],
      "stateMutability": "view",
      "type": "function"
    }
  ],
  "bytecode": "0x60806040523480156200001157600080fd5b5060405162002d3e38038062002d3e8339818101604052810190620000379190620001db565b620000576200004b620000e160201b60201c565b620000e960201b60201c565b81600260006101000a81548173ffffffffffffffffffffffffffffffffffffffff021916908373ffffffffffffffffffffffffffffffffffffffff16021790555080600360006101000a81548173ffffffffffffffffffffffffffffffffffffffff021916908373ffffffffffffffffffffffffffffffffffffffff1602179055505050620002ac565b600033905090565b60008060009054906101000a900473ffffffffffffffffffffffffffffffffffffffff169050816000806101000a81548173ffffffffffffffffffffffffffffffffffffffff021916908373ffffffffffffffffffffffffffffffffffffffff1602179055508173ffffffffffffffffffffffffffffffffffffffff168173ffffffffffffffffffffffffffffffffffffffff167f8be0079c531659141344cd1fd0a4f28419497f9722a3daafe3b4186f6b6457e060405160405180910390a35050565b600081519050620001be8162000278565b92915050565b600081519050620001d58162000292565b92915050565b60008060408385031215620001ef57600080fd5b6000620001ff85828601620001c4565b92505060206200021285828601620001ad565b9150509250929050565b6000620002298262000258565b9050919050565b60006200023d826200021c565b9050919050565b600062000251826200021c565b9050919050565b600073ffffffffffffffffffffffffffffffffffffffff82169050919050565b620002838162000230565b81146200028f57600080fd5b50565b6200029d8162000244565b8114620002a957600080fd5b50565b612a8280620002bc6000396000f3fe608060405234801561001057600080fd5b50600436106101005760003560e01c806381a36fb611610097578063cdb039cd11610066578063cdb039cd146102ad578063e449f341146102c9578063f2fde38b146102e5578063fb3d719e1461030157610100565b806381a36fb6146102115780638462151c146102435780638da5cb5b14610273578063c36be3571461029157610100565b806370a08231116100d357806370a0823114610189578063715018a6146101b95780637e75dd60146101c3578063817b1cd2146101f357610100565b80630fbf0a9314610105578063150b7a02146101215780631bfa92e0146101515780636ba4c1381461016d575b600080fd5b61011f600480360381019061011a9190611ef1565b610332565b005b61013b60048036038101906101369190611e19565b6106f5565b6040516101489190612310565b60405180910390f35b61016b60048036038101906101669190611f36565b610778565b005b61018760048036038101906101829190611ef1565b610891565b005b6101a3600480360381019061019e9190611dc7565b6108a2565b6040516101b09190612490565b60405180910390f35b6101c16109f3565b005b6101dd60048036038101906101d89190611e99565b610a7b565b6040516101ea91906122d3565b60405180910390f35b6101fb610cd9565b6040516102089190612490565b60405180910390f35b61022b60048036038101906102269190611f9d565b610cdf565b60405161023a93929190612459565b60405180910390f35b61025d60048036038101906102589190611dc7565b610d4a565b60405161026a91906122ee565b60405180910390f35b61027b611094565b6040516102889190612221565b60405180910390f35b6102ab60048036038101906102a69190611e99565b6110bd565b005b6102c760048036038101906102c29190611ef1565b6110cf565b005b6102e360048036038101906102de9190611ef1565b6110de565b005b6102ff60048036038101906102fa9190611dc7565b6110ef565b005b61031b60048036038101906103169190611f9d565b6111e7565b60405161032992919061232b565b60405180910390f35b600082829050600160008282546103499190612583565b9250508190555060005b838390508110156106ef57838382818110610397577f4e487b7100000000000000000000000000000000000000000000000000000000600052603260045260246000fd5b9050602002013591503373ffffffffffffffffffffffffffffffffffffffff16600260009054906101000a900473ffffffffffffffffffffffffffffffffffffffff1673ffffffffffffffffffffffffffffffffffffffff16636352211e846040518263ffffffff1660e01b81526004016104129190612490565b60206040518083038186803b15801561042a57600080fd5b505afa15801561043e573d6000803e3d6000fd5b505050506040513d601f19601f820116820180604052508101906104629190611df0565b73ffffffffffffffffffffffffffffffffffffffff16146104b8576040517f08c379a00000000000000000000000000000000000000000000000000000000081526004016104af906123b9565b60405180910390fd5b60006004600084815260200190815260200160002060000160009054906101000a900462ffffff1662ffffff1614610525576040517f08c379a000000000000000000000000000000000000000000000000000000000815260040161051c90612439565b60405180910390fd5b600260009054906101000a900473ffffffffffffffffffffffffffffffffffffffff1673ffffffffffffffffffffffffffffffffffffffff166323b872dd3330856040518463ffffffff1660e01b81526004016105849392919061223c565b600060405180830381600087803b15801561059e57600080fd5b505af11580156105b2573d6000803e3d6000fd5b505050507f36b3725f1783bad4ff05b7f4c077c3aa68eeb23a4d054ba189db4d01ac278d393383426040516105e99392919061229c565b60405180910390a160405180606001604052808362ffffff1681526020014265ffffffffffff1681526020013373ffffffffffffffffffffffffffffffffffffffff168152506004600084815260200190815260200160002060008201518160000160006101000a81548162ffffff021916908362ffffff16021790555060208201518160000160036101000a81548165ffffffffffff021916908365ffffffffffff16021790555060408201518160000160096101000a81548173ffffffffffffffffffffffffffffffffffffffff021916908373ffffffffffffffffffffffffffffffffffffffff16021790555090505080806106e7906127c6565b915050610353565b50505050565b60008073ffffffffffffffffffffffffffffffffffffffff168573ffffffffffffffffffffffffffffffffffffffff1614610765576040517f08c379a000000000000000000000000000000000000000000000000000000000815260040161075c90612419565b60405180910390fd5b63150b7a0260e01b905095945050505050565b610780611293565b73ffffffffffffffffffffffffffffffffffffffff1661079e611094565b73ffffffffffffffffffffffffffffffffffffffff16146107f4576040517f08c379a00000000000000000000000000000000000000000000000000000000081526004016107eb906123d9565b60405180910390fd5b604051806040016040528084815260200183815250600560008381526020019081526020016000206000820151816000019080519060200190610838929190611bb2565b506020820151816001015590505061085183838361129b565b7fcaeaee3770b7105b5378521c71f27f944a1b909547ce503d978e208cfd52b83d8383836040516108849392919061235b565b60405180910390a1505050565b61089e338383600061133a565b5050565b600080600090506000600260009054906101000a900473ffffffffffffffffffffffffffffffffffffffff1673ffffffffffffffffffffffffffffffffffffffff166318160ddd6040518163ffffffff1660e01b815260040160206040518083038186803b15801561091357600080fd5b505afa158015610927573d6000803e3d6000fd5b505050506040513d601f19601f8201168201806040525081019061094b9190611fc6565b90506000600190505b8181116109e8578473ffffffffffffffffffffffffffffffffffffffff166004600083815260200190815260200160002060000160099054906101000a900473ffffffffffffffffffffffffffffffffffffffff1673ffffffffffffffffffffffffffffffffffffffff1614156109d5576001836109d29190612583565b92505b80806109e0906127c6565b915050610954565b508192505050919050565b6109fb611293565b73ffffffffffffffffffffffffffffffffffffffff16610a19611094565b73ffffffffffffffffffffffffffffffffffffffff1614610a6f576040517f08c379a0000000000000000000000000000000000000000000000000000000008152600401610a66906123d9565b60405180910390fd5b610a796000611732565b565b610a83611c38565b600080600090506000805b86869050811015610cab57868682818110610ad2577f4e487b7100000000000000000000000000000000000000000000000000000000600052603260045260246000fd5b9050602002013593506000600460008681526020019081526020016000206040518060600160405290816000820160009054906101000a900462ffffff1662ffffff1662ffffff1681526020016000820160039054906101000a900465ffffffffffff1665ffffffffffff1665ffffffffffff1681526020016000820160099054906101000a900473ffffffffffffffffffffffffffffffffffffffff1673ffffffffffffffffffffffffffffffffffffffff1673ffffffffffffffffffffffffffffffffffffffff168152505090508873ffffffffffffffffffffffffffffffffffffffff16816040015173ffffffffffffffffffffffffffffffffffffffff1614610c14576040517f08c379a0000000000000000000000000000000000000000000000000000000008152600401610c0b906123f9565b60405180910390fd5b6000816020015165ffffffffffff169050610c4460056000888152602001908152602001600020600101546117f6565b62015180670de0b6b3a76400006005600089815260200190815260200160002060010154610c72919061260a565b610c7c91906125d9565b9350606484610c8b91906125d9565b9450610c96856117f6565b50508080610ca3906127c6565b915050610a8e565b506000821115610cce576040518060200160405280838152509350505050610cd2565b5050505b9392505050565b60015481565b60046020528060005260406000206000915090508060000160009054906101000a900462ffffff16908060000160039054906101000a900465ffffffffffff16908060000160099054906101000a900473ffffffffffffffffffffffffffffffffffffffff16905083565b60606000600260009054906101000a900473ffffffffffffffffffffffffffffffffffffffff1673ffffffffffffffffffffffffffffffffffffffff166318160ddd6040518163ffffffff1660e01b815260040160206040518083038186803b158015610db657600080fd5b505afa158015610dca573d6000803e3d6000fd5b505050506040513d601f19601f82011682018060405250810190610dee9190611fc6565b905060008167ffffffffffffffff811115610e32577f4e487b7100000000000000000000000000000000000000000000000000000000600052604160045260246000fd5b604051908082528060200260200182016040528015610e605781602001602082028036833780820191505090505b509050600080600190505b838111610f6f578573ffffffffffffffffffffffffffffffffffffffff166004600083815260200190815260200160002060000160099054906101000a900473ffffffffffffffffffffffffffffffffffffffff1673ffffffffffffffffffffffffffffffffffffffff161415610f5c576004600082815260200190815260200160002060000160009054906101000a900462ffffff1662ffffff16838381518110610f40577f4e487b7100000000000000000000000000000000000000000000000000000000600052603260045260246000fd5b602002602001018181525050600182610f599190612583565b91505b8080610f67906127c6565b915050610e6b565b5060008167ffffffffffffffff811115610fb2577f4e487b7100000000000000000000000000000000000000000000000000000000600052604160045260246000fd5b604051908082528060200260200182016040528015610fe05781602001602082028036833780820191505090505b50905060005b8281101561108757838181518110611027577f4e487b7100000000000000000000000000000000000000000000000000000000600052603260045260246000fd5b6020026020010151828281518110611068577f4e487b7100000000000000000000000000000000000000000000000000000000600052603260045260246000fd5b602002602001018181525050808061107f906127c6565b915050610fe6565b5080945050505050919050565b60008060009054906101000a900473ffffffffffffffffffffffffffffffffffffffff16905090565b6110ca838383600061133a565b505050565b6110da33838361188f565b5050565b6110eb338383600161133a565b5050565b6110f7611293565b73ffffffffffffffffffffffffffffffffffffffff16611115611094565b73ffffffffffffffffffffffffffffffffffffffff161461116b576040517f08c379a0000000000000000000000000000000000000000000000000000000008152600401611162906123d9565b60405180910390fd5b600073ffffffffffffffffffffffffffffffffffffffff168173ffffffffffffffffffffffffffffffffffffffff1614156111db576040517f08c379a00000000000000000000000000000000000000000000000000000000081526004016111d290612399565b60405180910390fd5b6111e481611732565b50565b600560205280600052604060002060009150905080600001805461120a90612763565b80601f016020809104026020016040519081016040528092919081815260200182805461123690612763565b80156112835780601f1061125857610100808354040283529160200191611283565b820191906000526020600020905b81548152906001019060200180831161126657829003601f168201915b5050505050908060010154905082565b600033905090565b6113358383836040516024016112b39392919061235b565b6040516020818303038152906040527f969cdd03000000000000000000000000000000000000000000000000000000007bffffffffffffffffffffffffffffffffffffffffffffffffffffffff19166020820180517bffffffffffffffffffffffffffffffffffffffffffffffffffffffff8381831617835250505050611b89565b505050565b600080600090506000805b8686905081101561164457868682818110611389577f4e487b7100000000000000000000000000000000000000000000000000000000600052603260045260246000fd5b9050602002013593506000600460008681526020019081526020016000206040518060600160405290816000820160009054906101000a900462ffffff1662ffffff1662ffffff1681526020016000820160039054906101000a900465ffffffffffff1665ffffffffffff1665ffffffffffff1681526020016000820160099054906101000a900473ffffffffffffffffffffffffffffffffffffffff1673ffffffffffffffffffffffffffffffffffffffff1673ffffffffffffffffffffffffffffffffffffffff168152505090508873ffffffffffffffffffffffffffffffffffffffff16816040015173ffffffffffffffffffffffffffffffffffffffff16146114cb576040517f08c379a00000000000000000000000000000000000000000000000000000000081526004016114c2906123f9565b60405180910390fd5b6000816020015165ffffffffffff1690506201518081426114ec9190612664565b670de0b6b3a7640000600560008a815260200190815260200160002060010154611516919061260a565b611520919061260a565b61152a91906125d9565b935060648461153991906125d9565b9450611544856117f6565b60405180606001604052808762ffffff1681526020014265ffffffffffff1681526020018b73ffffffffffffffffffffffffffffffffffffffff168152506004600088815260200190815260200160002060008201518160000160006101000a81548162ffffff021916908362ffffff16021790555060208201518160000160036101000a81548165ffffffffffff021916908365ffffffffffff16021790555060408201518160000160096101000a81548173ffffffffffffffffffffffffffffffffffffffff021916908373ffffffffffffffffffffffffffffffffffffffff1602179055509050505050808061163c906127c6565b915050611345565b5060008211156116de57600360009054906101000a900473ffffffffffffffffffffffffffffffffffffffff1673ffffffffffffffffffffffffffffffffffffffff166340c10f1988846040518363ffffffff1660e01b81526004016116ab929190612273565b600060405180830381600087803b1580156116c557600080fd5b505af11580156116d9573d6000803e3d6000fd5b505050505b83156116f0576116ef87878761188f565b5b7fd8138f8a3f377c5259ca548e70e4c2de94f129f5a11036a15b69513cba2b426a8783604051611721929190612273565b60405180910390a150505050505050565b60008060009054906101000a900473ffffffffffffffffffffffffffffffffffffffff169050816000806101000a81548173ffffffffffffffffffffffffffffffffffffffff021916908373ffffffffffffffffffffffffffffffffffffffff1602179055508173ffffffffffffffffffffffffffffffffffffffff168173ffffffffffffffffffffffffffffffffffffffff167f8be0079c531659141344cd1fd0a4f28419497f9722a3daafe3b4186f6b6457e060405160405180910390a35050565b61188c8160405160240161180a9190612490565b6040516020818303038152906040527ff5b1bba9000000000000000000000000000000000000000000000000000000007bffffffffffffffffffffffffffffffffffffffffffffffffffffffff19166020820180517bffffffffffffffffffffffffffffffffffffffffffffffffffffffff8381831617835250505050611b89565b50565b600082829050600160008282546118a69190612664565b9250508190555060005b83839050811015611b82578383828181106118f4577f4e487b7100000000000000000000000000000000000000000000000000000000600052603260045260246000fd5b9050602002013591506000600460008481526020019081526020016000206040518060600160405290816000820160009054906101000a900462ffffff1662ffffff1662ffffff1681526020016000820160039054906101000a900465ffffffffffff1665ffffffffffff1665ffffffffffff1681526020016000820160099054906101000a900473ffffffffffffffffffffffffffffffffffffffff1673ffffffffffffffffffffffffffffffffffffffff1673ffffffffffffffffffffffffffffffffffffffff168152505090503373ffffffffffffffffffffffffffffffffffffffff16816040015173ffffffffffffffffffffffffffffffffffffffff1614611a36576040517f08c379a0000000000000000000000000000000000000000000000000000000008152600401611a2d906123f9565b60405180910390fd5b60046000848152602001908152602001600020600080820160006101000a81549062ffffff02191690556000820160036101000a81549065ffffffffffff02191690556000820160096101000a81549073ffffffffffffffffffffffffffffffffffffffff021916905550507fc486b9458a8637650d84d262414833a5a457bc91ae86b7da110386c8c3fa255b868442604051611ad59392919061229c565b60405180910390a1600260009054906101000a900473ffffffffffffffffffffffffffffffffffffffff1673ffffffffffffffffffffffffffffffffffffffff166323b872dd3088866040518463ffffffff1660e01b8152600401611b3c9392919061223c565b600060405180830381600087803b158015611b5657600080fd5b505af1158015611b6a573d6000803e3d6000fd5b50505050508080611b7a906127c6565b9150506118b0565b5050505050565b60008151905060006a636f6e736f6c652e6c6f679050602083016000808483855afa5050505050565b828054611bbe90612763565b90600052602060002090601f016020900481019282611be05760008555611c27565b82601f10611bf957805160ff1916838001178555611c27565b82800160010185558215611c27579182015b82811115611c26578251825591602001919060010190611c0b565b5b509050611c349190611c5a565b5090565b6040518060200160405280600190602082028036833780820191505090505090565b5b80821115611c73576000816000905550600101611c5b565b5090565b6000611c8a611c85846124d0565b6124ab565b905082815260208101848484011115611ca257600080fd5b611cad848285612721565b509392505050565b600081359050611cc481612a1e565b92915050565b600081519050611cd981612a1e565b92915050565b60008083601f840112611cf157600080fd5b8235905067ffffffffffffffff811115611d0a57600080fd5b602083019150836020820283011115611d2257600080fd5b9250929050565b60008083601f840112611d3b57600080fd5b8235905067ffffffffffffffff811115611d5457600080fd5b602083019150836001820283011115611d6c57600080fd5b9250929050565b600082601f830112611d8457600080fd5b8135611d94848260208601611c77565b91505092915050565b600081359050611dac81612a35565b92915050565b600081519050611dc181612a35565b92915050565b600060208284031215611dd957600080fd5b6000611de784828501611cb5565b91505092915050565b600060208284031215611e0257600080fd5b6000611e1084828501611cca565b91505092915050565b600080600080600060808688031215611e3157600080fd5b6000611e3f88828901611cb5565b9550506020611e5088828901611cb5565b9450506040611e6188828901611d9d565b935050606086013567ffffffffffffffff811115611e7e57600080fd5b611e8a88828901611d29565b92509250509295509295909350565b600080600060408486031215611eae57600080fd5b6000611ebc86828701611cb5565b935050602084013567ffffffffffffffff811115611ed957600080fd5b611ee586828701611cdf565b92509250509250925092565b60008060208385031215611f0457600080fd5b600083013567ffffffffffffffff811115611f1e57600080fd5b611f2a85828601611cdf565b92509250509250929050565b600080600060608486031215611f4b57600080fd5b600084013567ffffffffffffffff811115611f6557600080fd5b611f7186828701611d73565b9350506020611f8286828701611d9d565b9250506040611f9386828701611d9d565b9150509250925092565b600060208284031215611faf57600080fd5b6000611fbd84828501611d9d565b91505092915050565b600060208284031215611fd857600080fd5b6000611fe684828501611db2565b91505092915050565b6000611ffb83836121f4565b60208301905092915050565b61201081612698565b82525050565b61201f8161251b565b6120298184612556565b925061203482612501565b8060005b8381101561206557815161204c8782611fef565b96506120578361253c565b925050600181019050612038565b505050505050565b600061207882612526565b6120828185612561565b935061208d8361250b565b8060005b838110156120be5781516120a58882611fef565b97506120b083612549565b925050600181019050612091565b5085935050505092915050565b6120d4816126aa565b82525050565b60006120e582612531565b6120ef8185612572565b93506120ff818560208601612730565b612108816128cb565b840191505092915050565b6000612120602683612572565b915061212b826128dc565b604082019050919050565b6000612143600e83612572565b915061214e8261292b565b602082019050919050565b6000612166602083612572565b915061217182612954565b602082019050919050565b6000612189600c83612572565b91506121948261297d565b602082019050919050565b60006121ac602283612572565b91506121b7826129a6565b604082019050919050565b60006121cf600e83612572565b91506121da826129f5565b602082019050919050565b6121ee816126f6565b82525050565b6121fd81612705565b82525050565b61220c81612705565b82525050565b61221b8161270f565b82525050565b60006020820190506122366000830184612007565b92915050565b60006060820190506122516000830186612007565b61225e6020830185612007565b61226b6040830184612203565b949350505050565b60006040820190506122886000830185612007565b6122956020830184612203565b9392505050565b60006060820190506122b16000830186612007565b6122be6020830185612203565b6122cb6040830184612203565b949350505050565b60006020820190506122e86000830184612016565b92915050565b60006020820190508181036000830152612308818461206d565b905092915050565b600060208201905061232560008301846120cb565b92915050565b6000604082019050818103600083015261234581856120da565b90506123546020830184612203565b9392505050565b6000606082019050818103600083015261237581866120da565b90506123846020830185612203565b6123916040830184612203565b949350505050565b600060208201905081810360008301526123b281612113565b9050919050565b600060208201905081810360008301526123d281612136565b9050919050565b600060208201905081810360008301526123f281612159565b9050919050565b600060208201905081810360008301526124128161217c565b9050919050565b600060208201905081810360008301526124328161219f565b9050919050565b60006020820190508181036000830152612452816121c2565b9050919050565b600060608201905061246e60008301866121e5565b61247b6020830185612212565b6124886040830184612007565b949350505050565b60006020820190506124a56000830184612203565b92915050565b60006124b56124c6565b90506124c18282612795565b919050565b6000604051905090565b600067ffffffffffffffff8211156124eb576124ea61289c565b5b6124f4826128cb565b9050602081019050919050565b6000819050919050565b6000819050602082019050919050565b600060019050919050565b600081519050919050565b600081519050919050565b6000602082019050919050565b6000602082019050919050565b600081905092915050565b600082825260208201905092915050565b600082825260208201905092915050565b600061258e82612705565b915061259983612705565b9250827fffffffffffffffffffffffffffffffffffffffffffffffffffffffffffffffff038211156125ce576125cd61280f565b5b828201905092915050565b60006125e482612705565b91506125ef83612705565b9250826125ff576125fe61283e565b5b828204905092915050565b600061261582612705565b915061262083612705565b9250817fffffffffffffffffffffffffffffffffffffffffffffffffffffffffffffffff04831182151516156126595761265861280f565b5b828202905092915050565b600061266f82612705565b915061267a83612705565b92508282101561268d5761268c61280f565b5b828203905092915050565b60006126a3826126d6565b9050919050565b60007fffffffff0000000000000000000000000000000000000000000000000000000082169050919050565b600073ffffffffffffffffffffffffffffffffffffffff82169050919050565b600062ffffff82169050919050565b6000819050919050565b600065ffffffffffff82169050919050565b82818337600083830152505050565b60005b8381101561274e578082015181840152602081019050612733565b8381111561275d576000848401525b50505050565b6000600282049050600182168061277b57607f821691505b6020821081141561278f5761278e61286d565b5b50919050565b61279e826128cb565b810181811067ffffffffffffffff821117156127bd576127bc61289c565b5b80604052505050565b60006127d182612705565b91507fffffffffffffffffffffffffffffffffffffffffffffffffffffffffffffffff8214156128045761280361280f565b5b600182019050919050565b7f4e487b7100000000000000000000000000000000000000000000000000000000600052601160045260246000fd5b7f4e487b7100000000000000000000000000000000000000000000000000000000600052601260045260246000fd5b7f4e487b7100000000000000000000000000000000000000000000000000000000600052602260045260246000fd5b7f4e487b7100000000000000000000000000000000000000000000000000000000600052604160045260246000fd5b6000601f19601f8301169050919050565b7f4f776e61626c653a206e6577206f776e657220697320746865207a65726f206160008201527f6464726573730000000000000000000000000000000000000000000000000000602082015250565b7f6e6f7420796f757220746f6b656e000000000000000000000000000000000000600082015250565b7f4f776e61626c653a2063616c6c6572206973206e6f7420746865206f776e6572600082015250565b7f6e6f7420616e206f776e65720000000000000000000000000000000000000000600082015250565b7f43616e6e6f742073656e64206e66747320746f205661756c742064697265637460008201527f6c79000000000000000000000000000000000000000000000000000000000000602082015250565b7f616c7265616479207374616b6564000000000000000000000000000000000000600082015250565b612a2781612698565b8114612a3257600080fd5b50565b612a3e81612705565b8114612a4957600080fd5b5056fea2646970667358221220c4f60197c7d4ac66d87729498dafa9270c82cb03f287e7b39b9387a438e2bff964736f6c63430008040033",
  "linkReferences": {},
  "deployedLinkReferences": {}
}