{
  "_format": "hh-sol-artifact-1",
  "contractName": "RunningMan",
  "sourceName": "contracts/Collection.sol",
  "abi": [
    {
      "inputs": [],
      "stateMutability": "nonpayable",
      "type": "constructor"
    },
    {
      "anonymous": false,
      "inputs": [
        {
          "indexed": true,
          "internalType": "address",
          "name": "owner",
          "type": "address"
        },
        {
          "indexed": true,
          "internalType": "address",
          "name": "approved",
          "type": "address"
        },
        {
          "indexed": true,
          "internalType": "uint256",
          "name": "tokenId",
          "type": "uint256"
        }
      ],
      "name": "Approval",
      "type": "event"
    },
    {
      "anonymous": false,
      "inputs": [
        {
          "indexed": true,
          "internalType": "address",
          "name": "owner",
          "type": "address"
        },
        {
          "indexed": true,
          "internalType": "address",
          "name": "operator",
          "type": "address"
        },
        {
          "indexed": false,
          "internalType": "bool",
          "name": "approved",
          "type": "bool"
        }
      ],
      "name": "ApprovalForAll",
      "type": "event"
    },
    {
      "anonymous": false,
      "inputs": [
        {
          "indexed": true,
          "internalType": "address",
          "name": "from",
          "type": "address"
        },
        {
          "indexed": true,
          "internalType": "address",
          "name": "to",
          "type": "address"
        },
        {
          "indexed": true,
          "internalType": "uint256",
          "name": "tokenId",
          "type": "uint256"
        }
      ],
      "name": "Transfer",
      "type": "event"
    },
    {
      "inputs": [],
      "name": "FREE_MINT",
      "outputs": [
        {
          "internalType": "uint256",
          "name": "",
          "type": "uint256"
        }
      ],
      "stateMutability": "view",
      "type": "function"
    },
    {
      "inputs": [],
      "name": "MAX_PUBLIC_MINT",
      "outputs": [
        {
          "internalType": "uint256",
          "name": "",
          "type": "uint256"
        }
      ],
      "stateMutability": "view",
      "type": "function"
    },
    {
      "inputs": [],
      "name": "MAX_SUPPLY",
      "outputs": [
        {
          "internalType": "uint256",
          "name": "",
          "type": "uint256"
        }
      ],
      "stateMutability": "view",
      "type": "function"
    },
    {
      "inputs": [],
      "name": "MAX_WHITELIST_MINT",
      "outputs": [
        {
          "internalType": "uint256",
          "name": "",
          "type": "uint256"
        }
      ],
      "stateMutability": "view",
      "type": "function"
    },
    {
      "inputs": [],
      "name": "PUBLIC_SALE_PRICE",
      "outputs": [
        {
          "internalType": "uint256",
          "name": "",
          "type": "uint256"
        }
      ],
      "stateMutability": "view",
      "type": "function"
    },
    {
      "inputs": [],
      "name": "WHITELIST_MINT",
      "outputs": [
        {
          "internalType": "uint256",
          "name": "",
          "type": "uint256"
        }
      ],
      "stateMutability": "view",
      "type": "function"
    },
    {
      "inputs": [],
      "name": "WHITELIST_SALE_PRICE",
      "outputs": [
        {
          "internalType": "uint256",
          "name": "",
          "type": "uint256"
        }
      ],
      "stateMutability": "view",
      "type": "function"
    },
    {
      "inputs": [
        {
          "internalType": "address",
          "name": "to",
          "type": "address"
        },
        {
          "internalType": "uint256",
          "name": "tokenId",
          "type": "uint256"
        }
      ],
      "name": "approve",
      "outputs": [],
      "stateMutability": "nonpayable",
      "type": "function"
    },
    {
      "inputs": [
        {
          "internalType": "address",
          "name": "owner",
          "type": "address"
        }
      ],
      "name": "balanceOf",
      "outputs": [
        {
          "internalType": "uint256",
          "name": "",
          "type": "uint256"
        }
      ],
      "stateMutability": "view",
      "type": "function"
    },
    {
      "inputs": [],
      "name": "baseTokenUri",
      "outputs": [
        {
          "internalType": "string",
          "name": "",
          "type": "string"
        }
      ],
      "stateMutability": "view",
      "type": "function"
    },
    {
      "inputs": [
        {
          "internalType": "uint256",
          "name": "_quantity",
          "type": "uint256"
        }
      ],
      "name": "freeMint",
      "outputs": [],
      "stateMutability": "nonpayable",
      "type": "function"
    },
    {
      "inputs": [
        {
          "internalType": "uint256",
          "name": "tokenId",
          "type": "uint256"
        }
      ],
      "name": "getApproved",
      "outputs": [
        {
          "internalType": "address",
          "name": "",
          "type": "address"
        }
      ],
      "stateMutability": "view",
      "type": "function"
    },
    {
      "inputs": [],
      "name": "getMerkleRoot",
      "outputs": [
        {
          "internalType": "bytes32",
          "name": "",
          "type": "bytes32"
        }
      ],
      "stateMutability": "view",
      "type": "function"
    },
    {
      "inputs": [
        {
          "internalType": "address",
          "name": "owner",
          "type": "address"
        },
        {
          "internalType": "address",
          "name": "operator",
          "type": "address"
        }
      ],
      "name": "isApprovedForAll",
      "outputs": [
        {
          "internalType": "bool",
          "name": "",
          "type": "bool"
        }
      ],
      "stateMutability": "view",
      "type": "function"
    },
    {
      "inputs": [],
      "name": "isRevealed",
      "outputs": [
        {
          "internalType": "bool",
          "name": "",
          "type": "bool"
        }
      ],
      "stateMutability": "view",
      "type": "function"
    },
    {
      "inputs": [
        {
          "internalType": "uint256",
          "name": "_quantity",
          "type": "uint256"
        }
      ],
      "name": "mint",
      "outputs": [],
      "stateMutability": "nonpayable",
      "type": "function"
    },
    {
      "inputs": [],
      "name": "name",
      "outputs": [
        {
          "internalType": "string",
          "name": "",
          "type": "string"
        }
      ],
      "stateMutability": "view",
      "type": "function"
    },
    {
      "inputs": [],
      "name": "owner",
      "outputs": [
        {
          "internalType": "address",
          "name": "",
          "type": "address"
        }
      ],
      "stateMutability": "view",
      "type": "function"
    },
    {
      "inputs": [
        {
          "internalType": "uint256",
          "name": "tokenId",
          "type": "uint256"
        }
      ],
      "name": "ownerOf",
      "outputs": [
        {
          "internalType": "address",
          "name": "",
          "type": "address"
        }
      ],
      "stateMutability": "view",
      "type": "function"
    },
    {
      "inputs": [],
      "name": "pause",
      "outputs": [
        {
          "internalType": "bool",
          "name": "",
          "type": "bool"
        }
      ],
      "stateMutability": "view",
      "type": "function"
    },
    {
      "inputs": [],
      "name": "placeholderTokenUri",
      "outputs": [
        {
          "internalType": "string",
          "name": "",
          "type": "string"
        }
      ],
      "stateMutability": "view",
      "type": "function"
    },
    {
      "inputs": [],
      "name": "publicSale",
      "outputs": [
        {
          "internalType": "bool",
          "name": "",
          "type": "bool"
        }
      ],
      "stateMutability": "view",
      "type": "function"
    },
    {
      "inputs": [
        {
          "internalType": "address",
          "name": "from",
          "type": "address"
        },
        {
          "internalType": "address",
          "name": "to",
          "type": "address"
        },
        {
          "internalType": "uint256",
          "name": "tokenId",
          "type": "uint256"
        }
      ],
      "name": "safeTransferFrom",
      "outputs": [],
      "stateMutability": "nonpayable",
      "type": "function"
    },
    {
      "inputs": [
        {
          "internalType": "address",
          "name": "from",
          "type": "address"
        },
        {
          "internalType": "address",
          "name": "to",
          "type": "address"
        },
        {
          "internalType": "uint256",
          "name": "tokenId",
          "type": "uint256"
        },
        {
          "internalType": "bytes",
          "name": "_data",
          "type": "bytes"
        }
      ],
      "name": "safeTransferFrom",
      "outputs": [],
      "stateMutability": "nonpayable",
      "type": "function"
    },
    {
      "inputs": [
        {
          "internalType": "address",
          "name": "operator",
          "type": "address"
        },
        {
          "internalType": "bool",
          "name": "approved",
          "type": "bool"
        }
      ],
      "name": "setApprovalForAll",
      "outputs": [],
      "stateMutability": "nonpayable",
      "type": "function"
    },
    {
      "inputs": [
        {
          "internalType": "bytes32",
          "name": "_merkleRoot",
          "type": "bytes32"
        }
      ],
      "name": "setMerkleRoot",
      "outputs": [],
      "stateMutability": "nonpayable",
      "type": "function"
    },
    {
      "inputs": [
        {
          "internalType": "string",
          "name": "_placeholderTokenUri",
          "type": "string"
        }
      ],
      "name": "setPlaceHolderUri",
      "outputs": [],
      "stateMutability": "nonpayable",
      "type": "function"
    },
    {
      "inputs": [
        {
          "internalType": "string",
          "name": "_baseTokenUri",
          "type": "string"
        }
      ],
      "name": "setTokenUri",
      "outputs": [],
      "stateMutability": "nonpayable",
      "type": "function"
    },
    {
      "inputs": [
        {
          "internalType": "bytes4",
          "name": "interfaceId",
          "type": "bytes4"
        }
      ],
      "name": "supportsInterface",
      "outputs": [
        {
          "internalType": "bool",
          "name": "",
          "type": "bool"
        }
      ],
      "stateMutability": "view",
      "type": "function"
    },
    {
      "inputs": [],
      "name": "symbol",
      "outputs": [
        {
          "internalType": "string",
          "name": "",
          "type": "string"
        }
      ],
      "stateMutability": "view",
      "type": "function"
    },
    {
      "inputs": [
        {
          "internalType": "uint256",
          "name": "_nfts",
          "type": "uint256"
        }
      ],
      "name": "teamMint",
      "outputs": [],
      "stateMutability": "nonpayable",
      "type": "function"
    },
    {
      "inputs": [],
      "name": "teamMinted",
      "outputs": [
        {
          "internalType": "bool",
          "name": "",
          "type": "bool"
        }
      ],
      "stateMutability": "view",
      "type": "function"
    },
    {
      "inputs": [],
      "name": "togglePause",
      "outputs": [],
      "stateMutability": "nonpayable",
      "type": "function"
    },
    {
      "inputs": [],
      "name": "togglePublicSale",
      "outputs": [],
      "stateMutability": "nonpayable",
      "type": "function"
    },
    {
      "inputs": [],
      "name": "toggleReveal",
      "outputs": [],
      "stateMutability": "nonpayable",
      "type": "function"
    },
    {
      "inputs": [],
      "name": "toggleWhiteListSale",
      "outputs": [],
      "stateMutability": "nonpayable",
      "type": "function"
    },
    {
      "inputs": [
        {
          "internalType": "uint256",
          "name": "index",
          "type": "uint256"
        }
      ],
      "name": "tokenByIndex",
      "outputs": [
        {
          "internalType": "uint256",
          "name": "",
          "type": "uint256"
        }
      ],
      "stateMutability": "view",
      "type": "function"
    },
    {
      "inputs": [
        {
          "internalType": "address",
          "name": "owner",
          "type": "address"
        },
        {
          "internalType": "uint256",
          "name": "index",
          "type": "uint256"
        }
      ],
      "name": "tokenOfOwnerByIndex",
      "outputs": [
        {
          "internalType": "uint256",
          "name": "",
          "type": "uint256"
        }
      ],
      "stateMutability": "view",
      "type": "function"
    },
    {
      "inputs": [
        {
          "internalType": "uint256",
          "name": "tokenId",
          "type": "uint256"
        }
      ],
      "name": "tokenURI",
      "outputs": [
        {
          "internalType": "string",
          "name": "",
          "type": "string"
        }
      ],
      "stateMutability": "view",
      "type": "function"
    },
    {
      "inputs": [
        {
          "internalType": "address",
          "name": "",
          "type": "address"
        }
      ],
      "name": "totalPublicMint",
      "outputs": [
        {
          "internalType": "uint256",
          "name": "",
          "type": "uint256"
        }
      ],
      "stateMutability": "view",
      "type": "function"
    },
    {
      "inputs": [],
      "name": "totalSupply",
      "outputs": [
        {
          "internalType": "uint256",
          "name": "",
          "type": "uint256"
        }
      ],
      "stateMutability": "view",
      "type": "function"
    },
    {
      "inputs": [
        {
          "internalType": "address",
          "name": "",
          "type": "address"
        }
      ],
      "name": "totalWhitelistMint",
      "outputs": [
        {
          "internalType": "uint256",
          "name": "",
          "type": "uint256"
        }
      ],
      "stateMutability": "view",
      "type": "function"
    },
    {
      "inputs": [
        {
          "internalType": "address",
          "name": "from",
          "type": "address"
        },
        {
          "internalType": "address",
          "name": "to",
          "type": "address"
        },
        {
          "internalType": "uint256",
          "name": "tokenId",
          "type": "uint256"
        }
      ],
      "name": "transferFrom",
      "outputs": [],
      "stateMutability": "nonpayable",
      "type": "function"
    },
    {
      "inputs": [
        {
          "internalType": "address",
          "name": "_to",
          "type": "address"
        }
      ],
      "name": "transferOwner",
      "outputs": [],
      "stateMutability": "nonpayable",
      "type": "function"
    },
    {
      "inputs": [],
      "name": "whiteListSale",
      "outputs": [
        {
          "internalType": "bool",
          "name": "",
          "type": "bool"
        }
      ],
      "stateMutability": "view",
      "type": "function"
    },
    {
      "inputs": [
        {
          "internalType": "bytes32[]",
          "name": "_merkleProof",
          "type": "bytes32[]"
        },
        {
          "internalType": "uint256",
          "name": "_quantity",
          "type": "uint256"
        }
      ],
      "name": "whitelistMint",
      "outputs": [],
      "stateMutability": "nonpayable",
      "type": "function"
    },
    {
      "inputs": [],
      "name": "withdraw",
      "outputs": [],
      "stateMutability": "nonpayable",
      "type": "function"
    }
  ],
  "bytecode": "0x60806040526000600c556000600d556000601060006101000a81548160ff0219169083151502179055506000601060016101000a81548160ff0219169083151502179055506000601060026101000a81548160ff0219169083151502179055506001601060036101000a81548160ff0219169083151502179055503480156200008757600080fd5b506040518060400160405280600a81526020017f52756e6e696e674d616e000000000000000000000000000000000000000000008152506040518060400160405280600681526020017f526e674d616e000000000000000000000000000000000000000000000000000081525081600090805190602001906200010c9291906200016f565b508060019080519060200190620001259291906200016f565b50505033600b60006101000a81548173ffffffffffffffffffffffffffffffffffffffff021916908373ffffffffffffffffffffffffffffffffffffffff16021790555062000284565b8280546200017d906200021f565b90600052602060002090601f016020900481019282620001a15760008555620001ed565b82601f10620001bc57805160ff1916838001178555620001ed565b82800160010185558215620001ed579182015b82811115620001ec578251825591602001919060010190620001cf565b5b509050620001fc919062000200565b5090565b5b808211156200021b57600081600090555060010162000201565b5090565b600060028204905060018216806200023857607f821691505b602082108114156200024f576200024e62000255565b5b50919050565b7f4e487b7100000000000000000000000000000000000000000000000000000000600052602260045260246000fd5b6150b380620002946000396000f3fe608060405234801561001057600080fd5b50600436106102955760003560e01c80636352211e11610167578063a0712d68116100ce578063c4ae316811610087578063c4ae3168146107a2578063c87b56dd146107ac578063db065b1d146107dc578063e222c7f9146107fa578063e8b5498d14610804578063e985e9c51461082257610295565b8063a0712d68146106f6578063a22cb46514610712578063b0962c531461072e578063b88d4fde1461074a578063bc912e1a14610766578063c08dfd3c1461078457610295565b80638456cb59116101205780638456cb591461065657806386a173ee146106745780638bb64a8c146106925780638da5cb5b1461069c57806390f3e165146106ba57806395d89b41146106d857610295565b80636352211e1461058257806365f13097146105b257806370a08231146105d05780637a0101a2146106005780637c928fe91461061e5780637cb647591461063a57610295565b80632f745c591161020b57806349590657116101c457806349590657146104d25780634cf5f7a4146104f05780634f6ccce71461050e5780634fb2e45d1461053e57806354214f691461055a5780635b8ad4291461057857610295565b80632f745c59146104245780632fbba1151461045457806332cb6b0c1461047057806333bc1c5c1461048e5780633ccfd60b146104ac57806342842e0e146104b657610295565b8063081812fc1161025d578063081812fc14610352578063095ea7b31461038257806318160ddd1461039e5780631c16521c146103bc57806323b872dd146103ec5780632904e6d91461040857610295565b806301ffc9a71461029a5780630345e3cb146102ca5780630675b7c6146102fa57806306fdde031461031657806307e89ec014610334575b600080fd5b6102b460048036038101906102af91906139d8565b610852565b6040516102c191906140b1565b60405180910390f35b6102e460048036038101906102df91906137b4565b6108cc565b6040516102f19190614489565b60405180910390f35b610314600480360381019061030f9190613a2a565b6108e4565b005b61031e61098e565b60405161032b91906140e7565b60405180910390f35b61033c610a20565b6040516103499190614489565b60405180910390f35b61036c60048036038101906103679190613a6b565b610a26565b604051610379919061404a565b60405180910390f35b61039c6004803603810190610397919061391f565b610aab565b005b6103a6610bc3565b6040516103b39190614489565b60405180910390f35b6103d660048036038101906103d191906137b4565b610bd0565b6040516103e39190614489565b60405180910390f35b61040660048036038101906104019190613819565b610be8565b005b610422600480360381019061041d919061395b565b610c48565b005b61043e6004803603810190610439919061391f565b610eff565b60405161044b9190614489565b60405180910390f35b61046e60048036038101906104699190613a6b565b610fa4565b005b6104786110e6565b6040516104859190614489565b60405180910390f35b6104966110ec565b6040516104a391906140b1565b60405180910390f35b6104b46110ff565b005b6104d060048036038101906104cb9190613819565b6111d8565b005b6104da6111f8565b6040516104e791906140cc565b60405180910390f35b6104f8611202565b60405161050591906140e7565b60405180910390f35b61052860048036038101906105239190613a6b565b611290565b6040516105359190614489565b60405180910390f35b610558600480360381019061055391906137b4565b611327565b005b6105626113fb565b60405161056f91906140b1565b60405180910390f35b61058061140e565b005b61059c60048036038101906105979190613a6b565b6114ca565b6040516105a9919061404a565b60405180910390f35b6105ba61157c565b6040516105c79190614489565b60405180910390f35b6105ea60048036038101906105e591906137b4565b611581565b6040516105f79190614489565b60405180910390f35b610608611639565b60405161061591906140e7565b60405180910390f35b61063860048036038101906106339190613a6b565b6116c7565b005b610654600480360381019061064f91906139af565b61190c565b005b61065e6119a6565b60405161066b91906140b1565b60405180910390f35b61067c6119b9565b60405161068991906140b1565b60405180910390f35b61069a6119cc565b005b6106a4611a88565b6040516106b1919061404a565b60405180910390f35b6106c2611aae565b6040516106cf9190614489565b60405180910390f35b6106e0611ab3565b6040516106ed91906140e7565b60405180910390f35b610710600480360381019061070b9190613a6b565b611b45565b005b61072c600480360381019061072791906138e3565b611dd9565b005b61074860048036038101906107439190613a2a565b611def565b005b610764600480360381019061075f9190613868565b611e99565b005b61076e611efb565b60405161077b9190614489565b60405180910390f35b61078c611f01565b6040516107999190614489565b60405180910390f35b6107aa611f06565b005b6107c660048036038101906107c19190613a6b565b611fc2565b6040516107d391906140e7565b60405180910390f35b6107e4612124565b6040516107f19190614489565b60405180910390f35b61080261212a565b005b61080c6121e6565b60405161081991906140b1565b60405180910390f35b61083c600480360381019061083791906137dd565b6121f9565b60405161084991906140b1565b60405180910390f35b60007f780e9d63000000000000000000000000000000000000000000000000000000007bffffffffffffffffffffffffffffffffffffffffffffffffffffffff1916827bffffffffffffffffffffffffffffffffffffffffffffffffffffffff191614806108c557506108c48261228d565b5b9050919050565b60136020528060005260406000206000915090505481565b3373ffffffffffffffffffffffffffffffffffffffff16600b60009054906101000a900473ffffffffffffffffffffffffffffffffffffffff1673ffffffffffffffffffffffffffffffffffffffff1614610974576040517f08c379a000000000000000000000000000000000000000000000000000000000815260040161096b90614229565b60405180910390fd5b80600e908051906020019061098a92919061352d565b5050565b60606000805461099d9061472a565b80601f01602080910402602001604051908101604052809291908181526020018280546109c99061472a565b8015610a165780601f106109eb57610100808354040283529160200191610a16565b820191906000526020600020905b8154815290600101906020018083116109f957829003601f168201915b5050505050905090565b600c5481565b6000610a318261236f565b610a70576040517f08c379a0000000000000000000000000000000000000000000000000000000008152600401610a6790614309565b60405180910390fd5b6004600083815260200190815260200160002060009054906101000a900473ffffffffffffffffffffffffffffffffffffffff169050919050565b6000610ab6826114ca565b90508073ffffffffffffffffffffffffffffffffffffffff168373ffffffffffffffffffffffffffffffffffffffff161415610b27576040517f08c379a0000000000000000000000000000000000000000000000000000000008152600401610b1e90614349565b60405180910390fd5b8073ffffffffffffffffffffffffffffffffffffffff16610b466123db565b73ffffffffffffffffffffffffffffffffffffffff161480610b755750610b7481610b6f6123db565b6121f9565b5b610bb4576040517f08c379a0000000000000000000000000000000000000000000000000000000008152600401610bab90614269565b60405180910390fd5b610bbe83836123e3565b505050565b6000600880549050905090565b60126020528060005260406000206000915090505481565b610bf9610bf36123db565b8261249c565b610c38576040517f08c379a0000000000000000000000000000000000000000000000000000000008152600401610c2f906143a9565b60405180910390fd5b610c4383838361257a565b505050565b3373ffffffffffffffffffffffffffffffffffffffff163273ffffffffffffffffffffffffffffffffffffffff1614610cb6576040517f08c379a0000000000000000000000000000000000000000000000000000000008152600401610cad90614129565b60405180910390fd5b6000610cc0610bc3565b9050601060029054906101000a900460ff16610d11576040517f08c379a0000000000000000000000000000000000000000000000000000000008152600401610d0890614449565b60405180910390fd5b60c882610d1c610bc3565b610d2691906145af565b1115610d67576040517f08c379a0000000000000000000000000000000000000000000000000000000008152600401610d5e90614469565b60405180910390fd5b600582601360003373ffffffffffffffffffffffffffffffffffffffff1673ffffffffffffffffffffffffffffffffffffffff16815260200190815260200160002054610db491906145af565b1115610df5576040517f08c379a0000000000000000000000000000000000000000000000000000000008152600401610dec906143e9565b60405180910390fd5b600033604051602001610e089190614000565b604051602081830303815290604052805190602001209050610e2d84601154836127e1565b610e6c576040517f08c379a0000000000000000000000000000000000000000000000000000000008152600401610e6390614429565b60405180910390fd5b82601360003373ffffffffffffffffffffffffffffffffffffffff1673ffffffffffffffffffffffffffffffffffffffff1681526020019081526020016000206000828254610ebb91906145af565b925050819055506000600190505b838111610ef857610ee5338285610ee091906145af565b6127f8565b8080610ef09061478d565b915050610ec9565b5050505050565b6000610f0a83611581565b8210610f4b576040517f08c379a0000000000000000000000000000000000000000000000000000000008152600401610f4290614169565b60405180910390fd5b600660008473ffffffffffffffffffffffffffffffffffffffff1673ffffffffffffffffffffffffffffffffffffffff168152602001908152602001600020600083815260200190815260200160002054905092915050565b3373ffffffffffffffffffffffffffffffffffffffff16600b60009054906101000a900473ffffffffffffffffffffffffffffffffffffffff1673ffffffffffffffffffffffffffffffffffffffff1614611034576040517f08c379a000000000000000000000000000000000000000000000000000000000815260040161102b90614229565b60405180910390fd5b600061103e610bc3565b9050601060049054906101000a900460ff1615611090576040517f08c379a000000000000000000000000000000000000000000000000000000000815260040161108790614109565b60405180910390fd5b6001601060046101000a81548160ff0219169083151502179055506000600190505b8281116110e1576110ce3382846110c991906145af565b6127f8565b80806110d99061478d565b9150506110b2565b505050565b6103e881565b601060019054906101000a900460ff1681565b3373ffffffffffffffffffffffffffffffffffffffff16600b60009054906101000a900473ffffffffffffffffffffffffffffffffffffffff1673ffffffffffffffffffffffffffffffffffffffff161461118f576040517f08c379a000000000000000000000000000000000000000000000000000000000815260040161118690614229565b60405180910390fd5b3373ffffffffffffffffffffffffffffffffffffffff166108fc479081150290604051600060405180830381858888f193505050501580156111d5573d6000803e3d6000fd5b50565b6111f383838360405180602001604052806000815250611e99565b505050565b6000601154905090565b600f805461120f9061472a565b80601f016020809104026020016040519081016040528092919081815260200182805461123b9061472a565b80156112885780601f1061125d57610100808354040283529160200191611288565b820191906000526020600020905b81548152906001019060200180831161126b57829003601f168201915b505050505081565b600061129a610bc3565b82106112db576040517f08c379a00000000000000000000000000000000000000000000000000000000081526004016112d2906143c9565b60405180910390fd5b60088281548110611315577f4e487b7100000000000000000000000000000000000000000000000000000000600052603260045260246000fd5b90600052602060002001549050919050565b3373ffffffffffffffffffffffffffffffffffffffff16600b60009054906101000a900473ffffffffffffffffffffffffffffffffffffffff1673ffffffffffffffffffffffffffffffffffffffff16146113b7576040517f08c379a00000000000000000000000000000000000000000000000000000000081526004016113ae90614229565b60405180910390fd5b80600b60006101000a81548173ffffffffffffffffffffffffffffffffffffffff021916908373ffffffffffffffffffffffffffffffffffffffff16021790555050565b601060009054906101000a900460ff1681565b3373ffffffffffffffffffffffffffffffffffffffff16600b60009054906101000a900473ffffffffffffffffffffffffffffffffffffffff1673ffffffffffffffffffffffffffffffffffffffff161461149e576040517f08c379a000000000000000000000000000000000000000000000000000000000815260040161149590614229565b60405180910390fd5b601060009054906101000a900460ff1615601060006101000a81548160ff021916908315150217905550565b6000806002600084815260200190815260200160002060009054906101000a900473ffffffffffffffffffffffffffffffffffffffff169050600073ffffffffffffffffffffffffffffffffffffffff168173ffffffffffffffffffffffffffffffffffffffff161415611573576040517f08c379a000000000000000000000000000000000000000000000000000000000815260040161156a906142a9565b60405180910390fd5b80915050919050565b600a81565b60008073ffffffffffffffffffffffffffffffffffffffff168273ffffffffffffffffffffffffffffffffffffffff1614156115f2576040517f08c379a00000000000000000000000000000000000000000000000000000000081526004016115e990614289565b60405180910390fd5b600360008373ffffffffffffffffffffffffffffffffffffffff1673ffffffffffffffffffffffffffffffffffffffff168152602001908152602001600020549050919050565b600e80546116469061472a565b80601f01602080910402602001604051908101604052809291908181526020018280546116729061472a565b80156116bf5780601f10611694576101008083540402835291602001916116bf565b820191906000526020600020905b8154815290600101906020018083116116a257829003601f168201915b505050505081565b3373ffffffffffffffffffffffffffffffffffffffff163273ffffffffffffffffffffffffffffffffffffffff1614611735576040517f08c379a000000000000000000000000000000000000000000000000000000000815260040161172c90614129565b60405180910390fd5b600061173f610bc3565b905060001515601060039054906101000a900460ff16151514611797576040517f08c379a000000000000000000000000000000000000000000000000000000000815260040161178e90614409565b60405180910390fd5b610320826117a3610bc3565b6117ad91906145af565b11156117ee576040517f08c379a00000000000000000000000000000000000000000000000000000000081526004016117e5906142e9565b60405180910390fd5b600282601260003373ffffffffffffffffffffffffffffffffffffffff1673ffffffffffffffffffffffffffffffffffffffff1681526020019081526020016000205461183b91906145af565b1061187b576040517f08c379a000000000000000000000000000000000000000000000000000000000815260040161187290614369565b60405180910390fd5b81601260003373ffffffffffffffffffffffffffffffffffffffff1673ffffffffffffffffffffffffffffffffffffffff16815260200190815260200160002060008282546118ca91906145af565b925050819055506000600190505b828111611907576118f43382846118ef91906145af565b6127f8565b80806118ff9061478d565b9150506118d8565b505050565b3373ffffffffffffffffffffffffffffffffffffffff16600b60009054906101000a900473ffffffffffffffffffffffffffffffffffffffff1673ffffffffffffffffffffffffffffffffffffffff161461199c576040517f08c379a000000000000000000000000000000000000000000000000000000000815260040161199390614229565b60405180910390fd5b8060118190555050565b601060039054906101000a900460ff1681565b601060029054906101000a900460ff1681565b3373ffffffffffffffffffffffffffffffffffffffff16600b60009054906101000a900473ffffffffffffffffffffffffffffffffffffffff1673ffffffffffffffffffffffffffffffffffffffff1614611a5c576040517f08c379a0000000000000000000000000000000000000000000000000000000008152600401611a5390614229565b60405180910390fd5b601060029054906101000a900460ff1615601060026101000a81548160ff021916908315150217905550565b600b60009054906101000a900473ffffffffffffffffffffffffffffffffffffffff1681565b60c881565b606060018054611ac29061472a565b80601f0160208091040260200160405190810160405280929190818152602001828054611aee9061472a565b8015611b3b5780601f10611b1057610100808354040283529160200191611b3b565b820191906000526020600020905b815481529060010190602001808311611b1e57829003601f168201915b5050505050905090565b3373ffffffffffffffffffffffffffffffffffffffff163273ffffffffffffffffffffffffffffffffffffffff1614611bb3576040517f08c379a0000000000000000000000000000000000000000000000000000000008152600401611baa90614129565b60405180910390fd5b6000611bbd610bc3565b9050601060019054906101000a900460ff16611c0e576040517f08c379a0000000000000000000000000000000000000000000000000000000008152600401611c0590614149565b60405180910390fd5b60c882611c19610bc3565b611c2391906145af565b1115611c64576040517f08c379a0000000000000000000000000000000000000000000000000000000008152600401611c5b906142e9565b60405180910390fd5b600a82601260003373ffffffffffffffffffffffffffffffffffffffff1673ffffffffffffffffffffffffffffffffffffffff16815260200190815260200160002054611cb191906145af565b1115611cf2576040517f08c379a0000000000000000000000000000000000000000000000000000000008152600401611ce990614389565b60405180910390fd5b81601260003373ffffffffffffffffffffffffffffffffffffffff1673ffffffffffffffffffffffffffffffffffffffff1681526020019081526020016000206000828254611d4191906145af565b9250508190555081601260003373ffffffffffffffffffffffffffffffffffffffff1673ffffffffffffffffffffffffffffffffffffffff1681526020019081526020016000206000828254611d9791906145af565b925050819055506000600190505b828111611dd457611dc1338284611dbc91906145af565b6127f8565b8080611dcc9061478d565b915050611da5565b505050565b611deb611de46123db565b8383612816565b5050565b3373ffffffffffffffffffffffffffffffffffffffff16600b60009054906101000a900473ffffffffffffffffffffffffffffffffffffffff1673ffffffffffffffffffffffffffffffffffffffff1614611e7f576040517f08c379a0000000000000000000000000000000000000000000000000000000008152600401611e7690614229565b60405180910390fd5b80600f9080519060200190611e9592919061352d565b5050565b611eaa611ea46123db565b8361249c565b611ee9576040517f08c379a0000000000000000000000000000000000000000000000000000000008152600401611ee0906143a9565b60405180910390fd5b611ef584848484612983565b50505050565b600d5481565b600581565b3373ffffffffffffffffffffffffffffffffffffffff16600b60009054906101000a900473ffffffffffffffffffffffffffffffffffffffff1673ffffffffffffffffffffffffffffffffffffffff1614611f96576040517f08c379a0000000000000000000000000000000000000000000000000000000008152600401611f8d90614229565b60405180910390fd5b601060039054906101000a900460ff1615601060036101000a81548160ff021916908315150217905550565b6060611fcd8261236f565b61200c576040517f08c379a000000000000000000000000000000000000000000000000000000000815260040161200390614329565b60405180910390fd5b600060018361201b91906145af565b9050601060009054906101000a900460ff166120c457600f805461203e9061472a565b80601f016020809104026020016040519081016040528092919081815260200182805461206a9061472a565b80156120b75780601f1061208c576101008083540402835291602001916120b7565b820191906000526020600020905b81548152906001019060200180831161209a57829003601f168201915b505050505091505061211f565b6000600e80546120d39061472a565b9050116120ef576040518060200160405280600081525061211b565b600e6120fa826129df565b60405160200161210b92919061401b565b6040516020818303038152906040525b9150505b919050565b61032081565b3373ffffffffffffffffffffffffffffffffffffffff16600b60009054906101000a900473ffffffffffffffffffffffffffffffffffffffff1673ffffffffffffffffffffffffffffffffffffffff16146121ba576040517f08c379a00000000000000000000000000000000000000000000000000000000081526004016121b190614229565b60405180910390fd5b601060019054906101000a900460ff1615601060016101000a81548160ff021916908315150217905550565b601060049054906101000a900460ff1681565b6000600560008473ffffffffffffffffffffffffffffffffffffffff1673ffffffffffffffffffffffffffffffffffffffff16815260200190815260200160002060008373ffffffffffffffffffffffffffffffffffffffff1673ffffffffffffffffffffffffffffffffffffffff16815260200190815260200160002060009054906101000a900460ff16905092915050565b60007f80ac58cd000000000000000000000000000000000000000000000000000000007bffffffffffffffffffffffffffffffffffffffffffffffffffffffff1916827bffffffffffffffffffffffffffffffffffffffffffffffffffffffff1916148061235857507f5b5e139f000000000000000000000000000000000000000000000000000000007bffffffffffffffffffffffffffffffffffffffffffffffffffffffff1916827bffffffffffffffffffffffffffffffffffffffffffffffffffffffff1916145b80612368575061236782612b8c565b5b9050919050565b60008073ffffffffffffffffffffffffffffffffffffffff166002600084815260200190815260200160002060009054906101000a900473ffffffffffffffffffffffffffffffffffffffff1673ffffffffffffffffffffffffffffffffffffffff1614159050919050565b600033905090565b816004600083815260200190815260200160002060006101000a81548173ffffffffffffffffffffffffffffffffffffffff021916908373ffffffffffffffffffffffffffffffffffffffff160217905550808273ffffffffffffffffffffffffffffffffffffffff16612456836114ca565b73ffffffffffffffffffffffffffffffffffffffff167f8c5be1e5ebec7d5bd14f71427d1e84f3dd0314c0f7b2291e5b200ac8c7c3b92560405160405180910390a45050565b60006124a78261236f565b6124e6576040517f08c379a00000000000000000000000000000000000000000000000000000000081526004016124dd90614249565b60405180910390fd5b60006124f1836114ca565b90508073ffffffffffffffffffffffffffffffffffffffff168473ffffffffffffffffffffffffffffffffffffffff161480612533575061253281856121f9565b5b8061257157508373ffffffffffffffffffffffffffffffffffffffff1661255984610a26565b73ffffffffffffffffffffffffffffffffffffffff16145b91505092915050565b8273ffffffffffffffffffffffffffffffffffffffff1661259a826114ca565b73ffffffffffffffffffffffffffffffffffffffff16146125f0576040517f08c379a00000000000000000000000000000000000000000000000000000000081526004016125e7906141a9565b60405180910390fd5b600073ffffffffffffffffffffffffffffffffffffffff168273ffffffffffffffffffffffffffffffffffffffff161415612660576040517f08c379a0000000000000000000000000000000000000000000000000000000008152600401612657906141e9565b60405180910390fd5b61266b838383612bf6565b6126766000826123e3565b6001600360008573ffffffffffffffffffffffffffffffffffffffff1673ffffffffffffffffffffffffffffffffffffffff16815260200190815260200160002060008282546126c69190614636565b925050819055506001600360008473ffffffffffffffffffffffffffffffffffffffff1673ffffffffffffffffffffffffffffffffffffffff168152602001908152602001600020600082825461271d91906145af565b92505081905550816002600083815260200190815260200160002060006101000a81548173ffffffffffffffffffffffffffffffffffffffff021916908373ffffffffffffffffffffffffffffffffffffffff160217905550808273ffffffffffffffffffffffffffffffffffffffff168473ffffffffffffffffffffffffffffffffffffffff167fddf252ad1be2c89b69c2b068fc378daa952ba7f163c4a11628f55a4df523b3ef60405160405180910390a46127dc838383612d0a565b505050565b6000826127ee8584612d0f565b1490509392505050565b612812828260405180602001604052806000815250612daa565b5050565b8173ffffffffffffffffffffffffffffffffffffffff168373ffffffffffffffffffffffffffffffffffffffff161415612885576040517f08c379a000000000000000000000000000000000000000000000000000000000815260040161287c90614209565b60405180910390fd5b80600560008573ffffffffffffffffffffffffffffffffffffffff1673ffffffffffffffffffffffffffffffffffffffff16815260200190815260200160002060008473ffffffffffffffffffffffffffffffffffffffff1673ffffffffffffffffffffffffffffffffffffffff16815260200190815260200160002060006101000a81548160ff0219169083151502179055508173ffffffffffffffffffffffffffffffffffffffff168373ffffffffffffffffffffffffffffffffffffffff167f17307eab39ab6107e8899845ad3d59bd9653f200f220920489ca2b5937696c318360405161297691906140b1565b60405180910390a3505050565b61298e84848461257a565b61299a84848484612e05565b6129d9576040517f08c379a00000000000000000000000000000000000000000000000000000000081526004016129d090614189565b60405180910390fd5b50505050565b60606000821415612a27576040518060400160405280600181526020017f30000000000000000000000000000000000000000000000000000000000000008152509050612b87565b600082905060005b60008214612a59578080612a429061478d565b915050600a82612a529190614605565b9150612a2f565b60008167ffffffffffffffff811115612a9b577f4e487b7100000000000000000000000000000000000000000000000000000000600052604160045260246000fd5b6040519080825280601f01601f191660200182016040528015612acd5781602001600182028036833780820191505090505b5090505b60008514612b8057600182612ae69190614636565b9150600a85612af591906147fa565b6030612b0191906145af565b60f81b818381518110612b3d577f4e487b7100000000000000000000000000000000000000000000000000000000600052603260045260246000fd5b60200101907effffffffffffffffffffffffffffffffffffffffffffffffffffffffffffff1916908160001a905350600a85612b799190614605565b9450612ad1565b8093505050505b919050565b60007f01ffc9a7000000000000000000000000000000000000000000000000000000007bffffffffffffffffffffffffffffffffffffffffffffffffffffffff1916827bffffffffffffffffffffffffffffffffffffffffffffffffffffffff1916149050919050565b612c01838383612f9c565b600073ffffffffffffffffffffffffffffffffffffffff168373ffffffffffffffffffffffffffffffffffffffff161415612c4457612c3f81612fa1565b612c83565b8173ffffffffffffffffffffffffffffffffffffffff168373ffffffffffffffffffffffffffffffffffffffff1614612c8257612c818382612fea565b5b5b600073ffffffffffffffffffffffffffffffffffffffff168273ffffffffffffffffffffffffffffffffffffffff161415612cc657612cc181613157565b612d05565b8273ffffffffffffffffffffffffffffffffffffffff168273ffffffffffffffffffffffffffffffffffffffff1614612d0457612d03828261329a565b5b5b505050565b505050565b60008082905060005b8451811015612d9f576000858281518110612d5c577f4e487b7100000000000000000000000000000000000000000000000000000000600052603260045260246000fd5b60200260200101519050808311612d7e57612d778382613319565b9250612d8b565b612d888184613319565b92505b508080612d979061478d565b915050612d18565b508091505092915050565b612db48383613330565b612dc16000848484612e05565b612e00576040517f08c379a0000000000000000000000000000000000000000000000000000000008152600401612df790614189565b60405180910390fd5b505050565b6000612e268473ffffffffffffffffffffffffffffffffffffffff1661350a565b15612f8f578373ffffffffffffffffffffffffffffffffffffffff1663150b7a02612e4f6123db565b8786866040518563ffffffff1660e01b8152600401612e719493929190614065565b602060405180830381600087803b158015612e8b57600080fd5b505af1925050508015612ebc57506040513d601f19601f82011682018060405250810190612eb99190613a01565b60015b612f3f573d8060008114612eec576040519150601f19603f3d011682016040523d82523d6000602084013e612ef1565b606091505b50600081511415612f37576040517f08c379a0000000000000000000000000000000000000000000000000000000008152600401612f2e90614189565b60405180910390fd5b805181602001fd5b63150b7a0260e01b7bffffffffffffffffffffffffffffffffffffffffffffffffffffffff1916817bffffffffffffffffffffffffffffffffffffffffffffffffffffffff191614915050612f94565b600190505b949350505050565b505050565b6008805490506009600083815260200190815260200160002081905550600881908060018154018082558091505060019003906000526020600020016000909190919091505550565b60006001612ff784611581565b6130019190614636565b90506000600760008481526020019081526020016000205490508181146130e6576000600660008673ffffffffffffffffffffffffffffffffffffffff1673ffffffffffffffffffffffffffffffffffffffff168152602001908152602001600020600084815260200190815260200160002054905080600660008773ffffffffffffffffffffffffffffffffffffffff1673ffffffffffffffffffffffffffffffffffffffff168152602001908152602001600020600084815260200190815260200160002081905550816007600083815260200190815260200160002081905550505b6007600084815260200190815260200160002060009055600660008573ffffffffffffffffffffffffffffffffffffffff1673ffffffffffffffffffffffffffffffffffffffff16815260200190815260200160002060008381526020019081526020016000206000905550505050565b6000600160088054905061316b9190614636565b90506000600960008481526020019081526020016000205490506000600883815481106131c1577f4e487b7100000000000000000000000000000000000000000000000000000000600052603260045260246000fd5b906000526020600020015490508060088381548110613209577f4e487b7100000000000000000000000000000000000000000000000000000000600052603260045260246000fd5b90600052602060002001819055508160096000838152602001908152602001600020819055506009600085815260200190815260200160002060009055600880548061327e577f4e487b7100000000000000000000000000000000000000000000000000000000600052603160045260246000fd5b6001900381819060005260206000200160009055905550505050565b60006132a583611581565b905081600660008573ffffffffffffffffffffffffffffffffffffffff1673ffffffffffffffffffffffffffffffffffffffff168152602001908152602001600020600083815260200190815260200160002081905550806007600084815260200190815260200160002081905550505050565b600082600052816020526040600020905092915050565b600073ffffffffffffffffffffffffffffffffffffffff168273ffffffffffffffffffffffffffffffffffffffff1614156133a0576040517f08c379a0000000000000000000000000000000000000000000000000000000008152600401613397906142c9565b60405180910390fd5b6133a98161236f565b156133e9576040517f08c379a00000000000000000000000000000000000000000000000000000000081526004016133e0906141c9565b60405180910390fd5b6133f560008383612bf6565b6001600360008473ffffffffffffffffffffffffffffffffffffffff1673ffffffffffffffffffffffffffffffffffffffff168152602001908152602001600020600082825461344591906145af565b92505081905550816002600083815260200190815260200160002060006101000a81548173ffffffffffffffffffffffffffffffffffffffff021916908373ffffffffffffffffffffffffffffffffffffffff160217905550808273ffffffffffffffffffffffffffffffffffffffff16600073ffffffffffffffffffffffffffffffffffffffff167fddf252ad1be2c89b69c2b068fc378daa952ba7f163c4a11628f55a4df523b3ef60405160405180910390a461350660008383612d0a565b5050565b6000808273ffffffffffffffffffffffffffffffffffffffff163b119050919050565b8280546135399061472a565b90600052602060002090601f01602090048101928261355b57600085556135a2565b82601f1061357457805160ff19168380011785556135a2565b828001600101855582156135a2579182015b828111156135a1578251825591602001919060010190613586565b5b5090506135af91906135b3565b5090565b5b808211156135cc5760008160009055506001016135b4565b5090565b60006135e36135de846144c9565b6144a4565b9050808382526020820190508285602086028201111561360257600080fd5b60005b858110156136325781613618888261370c565b845260208401935060208301925050600181019050613605565b5050509392505050565b600061364f61364a846144f5565b6144a4565b90508281526020810184848401111561366757600080fd5b6136728482856146e8565b509392505050565b600061368d61368884614526565b6144a4565b9050828152602081018484840111156136a557600080fd5b6136b08482856146e8565b509392505050565b6000813590506136c78161500a565b92915050565b600082601f8301126136de57600080fd5b81356136ee8482602086016135d0565b91505092915050565b60008135905061370681615021565b92915050565b60008135905061371b81615038565b92915050565b6000813590506137308161504f565b92915050565b6000815190506137458161504f565b92915050565b600082601f83011261375c57600080fd5b813561376c84826020860161363c565b91505092915050565b600082601f83011261378657600080fd5b813561379684826020860161367a565b91505092915050565b6000813590506137ae81615066565b92915050565b6000602082840312156137c657600080fd5b60006137d4848285016136b8565b91505092915050565b600080604083850312156137f057600080fd5b60006137fe858286016136b8565b925050602061380f858286016136b8565b9150509250929050565b60008060006060848603121561382e57600080fd5b600061383c868287016136b8565b935050602061384d868287016136b8565b925050604061385e8682870161379f565b9150509250925092565b6000806000806080858703121561387e57600080fd5b600061388c878288016136b8565b945050602061389d878288016136b8565b93505060406138ae8782880161379f565b925050606085013567ffffffffffffffff8111156138cb57600080fd5b6138d78782880161374b565b91505092959194509250565b600080604083850312156138f657600080fd5b6000613904858286016136b8565b9250506020613915858286016136f7565b9150509250929050565b6000806040838503121561393257600080fd5b6000613940858286016136b8565b92505060206139518582860161379f565b9150509250929050565b6000806040838503121561396e57600080fd5b600083013567ffffffffffffffff81111561398857600080fd5b613994858286016136cd565b92505060206139a58582860161379f565b9150509250929050565b6000602082840312156139c157600080fd5b60006139cf8482850161370c565b91505092915050565b6000602082840312156139ea57600080fd5b60006139f884828501613721565b91505092915050565b600060208284031215613a1357600080fd5b6000613a2184828501613736565b91505092915050565b600060208284031215613a3c57600080fd5b600082013567ffffffffffffffff811115613a5657600080fd5b613a6284828501613775565b91505092915050565b600060208284031215613a7d57600080fd5b6000613a8b8482850161379f565b91505092915050565b613a9d8161466a565b82525050565b613ab4613aaf8261466a565b6147d6565b82525050565b613ac38161467c565b82525050565b613ad281614688565b82525050565b6000613ae38261456c565b613aed8185614582565b9350613afd8185602086016146f7565b613b06816148e7565b840191505092915050565b6000613b1c82614577565b613b268185614593565b9350613b368185602086016146f7565b613b3f816148e7565b840191505092915050565b6000613b5582614577565b613b5f81856145a4565b9350613b6f8185602086016146f7565b80840191505092915050565b60008154613b888161472a565b613b9281866145a4565b94506001821660008114613bad5760018114613bbe57613bf1565b60ff19831686528186019350613bf1565b613bc785614557565b60005b83811015613be957815481890152600182019150602081019050613bca565b838801955050505b50505092915050565b6000613c07601a83614593565b9150613c1282614905565b602082019050919050565b6000613c2a602583614593565b9150613c358261492e565b604082019050919050565b6000613c4d601683614593565b9150613c588261497d565b602082019050919050565b6000613c70602b83614593565b9150613c7b826149a6565b604082019050919050565b6000613c93603283614593565b9150613c9e826149f5565b604082019050919050565b6000613cb6602583614593565b9150613cc182614a44565b604082019050919050565b6000613cd9601c83614593565b9150613ce482614a93565b602082019050919050565b6000613cfc602483614593565b9150613d0782614abc565b604082019050919050565b6000613d1f601983614593565b9150613d2a82614b0b565b602082019050919050565b6000613d42601583614593565b9150613d4d82614b34565b602082019050919050565b6000613d65602c83614593565b9150613d7082614b5d565b604082019050919050565b6000613d88603883614593565b9150613d9382614bac565b604082019050919050565b6000613dab602a83614593565b9150613db682614bfb565b604082019050919050565b6000613dce602983614593565b9150613dd982614c4a565b604082019050919050565b6000613df1602083614593565b9150613dfc82614c99565b602082019050919050565b6000613e14601883614593565b9150613e1f82614cc2565b602082019050919050565b6000613e37602c83614593565b9150613e4282614ceb565b604082019050919050565b6000613e5a6005836145a4565b9150613e6582614d3a565b600582019050919050565b6000613e7d602f83614593565b9150613e8882614d63565b604082019050919050565b6000613ea0602183614593565b9150613eab82614db2565b604082019050919050565b6000613ec3601c83614593565b9150613ece82614e01565b602082019050919050565b6000613ee6601f83614593565b9150613ef182614e2a565b602082019050919050565b6000613f09603183614593565b9150613f1482614e53565b604082019050919050565b6000613f2c602c83614593565b9150613f3782614ea2565b604082019050919050565b6000613f4f602d83614593565b9150613f5a82614ef1565b604082019050919050565b6000613f72600e83614593565b9150613f7d82614f40565b602082019050919050565b6000613f95601e83614593565b9150613fa082614f69565b602082019050919050565b6000613fb8601a83614593565b9150613fc382614f92565b602082019050919050565b6000613fdb602483614593565b9150613fe682614fbb565b604082019050919050565b613ffa816146de565b82525050565b600061400c8284613aa3565b60148201915081905092915050565b60006140278285613b7b565b91506140338284613b4a565b915061403e82613e4d565b91508190509392505050565b600060208201905061405f6000830184613a94565b92915050565b600060808201905061407a6000830187613a94565b6140876020830186613a94565b6140946040830185613ff1565b81810360608301526140a68184613ad8565b905095945050505050565b60006020820190506140c66000830184613aba565b92915050565b60006020820190506140e16000830184613ac9565b92915050565b600060208201905081810360008301526141018184613b11565b905092915050565b6000602082019050818103600083015261412281613bfa565b9050919050565b6000602082019050818103600083015261414281613c1d565b9050919050565b6000602082019050818103600083015261416281613c40565b9050919050565b6000602082019050818103600083015261418281613c63565b9050919050565b600060208201905081810360008301526141a281613c86565b9050919050565b600060208201905081810360008301526141c281613ca9565b9050919050565b600060208201905081810360008301526141e281613ccc565b9050919050565b6000602082019050818103600083015261420281613cef565b9050919050565b6000602082019050818103600083015261422281613d12565b9050919050565b6000602082019050818103600083015261424281613d35565b9050919050565b6000602082019050818103600083015261426281613d58565b9050919050565b6000602082019050818103600083015261428281613d7b565b9050919050565b600060208201905081810360008301526142a281613d9e565b9050919050565b600060208201905081810360008301526142c281613dc1565b9050919050565b600060208201905081810360008301526142e281613de4565b9050919050565b6000602082019050818103600083015261430281613e07565b9050919050565b6000602082019050818103600083015261432281613e2a565b9050919050565b6000602082019050818103600083015261434281613e70565b9050919050565b6000602082019050818103600083015261436281613e93565b9050919050565b6000602082019050818103600083015261438281613eb6565b9050919050565b600060208201905081810360008301526143a281613ed9565b9050919050565b600060208201905081810360008301526143c281613efc565b9050919050565b600060208201905081810360008301526143e281613f1f565b9050919050565b6000602082019050818103600083015261440281613f42565b9050919050565b6000602082019050818103600083015261442281613f65565b9050919050565b6000602082019050818103600083015261444281613f88565b9050919050565b6000602082019050818103600083015261446281613fab565b9050919050565b6000602082019050818103600083015261448281613fce565b9050919050565b600060208201905061449e6000830184613ff1565b92915050565b60006144ae6144bf565b90506144ba828261475c565b919050565b6000604051905090565b600067ffffffffffffffff8211156144e4576144e36148b8565b5b602082029050602081019050919050565b600067ffffffffffffffff8211156145105761450f6148b8565b5b614519826148e7565b9050602081019050919050565b600067ffffffffffffffff821115614541576145406148b8565b5b61454a826148e7565b9050602081019050919050565b60008190508160005260206000209050919050565b600081519050919050565b600081519050919050565b600082825260208201905092915050565b600082825260208201905092915050565b600081905092915050565b60006145ba826146de565b91506145c5836146de565b9250827fffffffffffffffffffffffffffffffffffffffffffffffffffffffffffffffff038211156145fa576145f961482b565b5b828201905092915050565b6000614610826146de565b915061461b836146de565b92508261462b5761462a61485a565b5b828204905092915050565b6000614641826146de565b915061464c836146de565b92508282101561465f5761465e61482b565b5b828203905092915050565b6000614675826146be565b9050919050565b60008115159050919050565b6000819050919050565b60007fffffffff0000000000000000000000000000000000000000000000000000000082169050919050565b600073ffffffffffffffffffffffffffffffffffffffff82169050919050565b6000819050919050565b82818337600083830152505050565b60005b838110156147155780820151818401526020810190506146fa565b83811115614724576000848401525b50505050565b6000600282049050600182168061474257607f821691505b6020821081141561475657614755614889565b5b50919050565b614765826148e7565b810181811067ffffffffffffffff82111715614784576147836148b8565b5b80604052505050565b6000614798826146de565b91507fffffffffffffffffffffffffffffffffffffffffffffffffffffffffffffffff8214156147cb576147ca61482b565b5b600182019050919050565b60006147e1826147e8565b9050919050565b60006147f3826148f8565b9050919050565b6000614805826146de565b9150614810836146de565b9250826148205761481f61485a565b5b828206905092915050565b7f4e487b7100000000000000000000000000000000000000000000000000000000600052601160045260246000fd5b7f4e487b7100000000000000000000000000000000000000000000000000000000600052601260045260246000fd5b7f4e487b7100000000000000000000000000000000000000000000000000000000600052602260045260246000fd5b7f4e487b7100000000000000000000000000000000000000000000000000000000600052604160045260246000fd5b6000601f19601f8301169050919050565b60008160601b9050919050565b7f524e4d203a3a205465616d20616c7265616479206d696e746564000000000000600082015250565b7f524e4d203a3a2043616e6e6f742062652063616c6c6564206279206120636f6e60008201527f7472616374000000000000000000000000000000000000000000000000000000602082015250565b7f524e4d203a3a204e6f7420596574204163746976652e00000000000000000000600082015250565b7f455243373231456e756d657261626c653a206f776e657220696e646578206f7560008201527f74206f6620626f756e6473000000000000000000000000000000000000000000602082015250565b7f4552433732313a207472616e7366657220746f206e6f6e20455243373231526560008201527f63656976657220696d706c656d656e7465720000000000000000000000000000602082015250565b7f4552433732313a207472616e736665722066726f6d20696e636f72726563742060008201527f6f776e6572000000000000000000000000000000000000000000000000000000602082015250565b7f4552433732313a20746f6b656e20616c7265616479206d696e74656400000000600082015250565b7f4552433732313a207472616e7366657220746f20746865207a65726f2061646460008201527f7265737300000000000000000000000000000000000000000000000000000000602082015250565b7f4552433732313a20617070726f766520746f2063616c6c657200000000000000600082015250565b7f596f7520617265206e6f7420746865206f776e65720000000000000000000000600082015250565b7f4552433732313a206f70657261746f7220717565727920666f72206e6f6e657860008201527f697374656e7420746f6b656e0000000000000000000000000000000000000000602082015250565b7f4552433732313a20617070726f76652063616c6c6572206973206e6f74206f7760008201527f6e6572206e6f7220617070726f76656420666f7220616c6c0000000000000000602082015250565b7f4552433732313a2062616c616e636520717565727920666f7220746865207a6560008201527f726f206164647265737300000000000000000000000000000000000000000000602082015250565b7f4552433732313a206f776e657220717565727920666f72206e6f6e657869737460008201527f656e7420746f6b656e0000000000000000000000000000000000000000000000602082015250565b7f4552433732313a206d696e7420746f20746865207a65726f2061646472657373600082015250565b7f524e4d203a3a204265796f6e64204d617820537570706c790000000000000000600082015250565b7f4552433732313a20617070726f76656420717565727920666f72206e6f6e657860008201527f697374656e7420746f6b656e0000000000000000000000000000000000000000602082015250565b7f2e6a736f6e000000000000000000000000000000000000000000000000000000600082015250565b7f4552433732314d657461646174613a2055524920717565727920666f72206e6f60008201527f6e6578697374656e7420746f6b656e0000000000000000000000000000000000602082015250565b7f4552433732313a20617070726f76616c20746f2063757272656e74206f776e6560008201527f7200000000000000000000000000000000000000000000000000000000000000602082015250565b7f524e4d203a3a20416c7265616479206d696e7465642031204e46542100000000600082015250565b7f524e4d203a3a20416c7265616479206d696e7465642031302074696d65732100600082015250565b7f4552433732313a207472616e736665722063616c6c6572206973206e6f74206f60008201527f776e6572206e6f7220617070726f766564000000000000000000000000000000602082015250565b7f455243373231456e756d657261626c653a20676c6f62616c20696e646578206f60008201527f7574206f6620626f756e64730000000000000000000000000000000000000000602082015250565b7f524e4d203a3a2043616e6e6f74206d696e74206265796f6e642077686974656c60008201527f697374206d6178206d696e742100000000000000000000000000000000000000602082015250565b7f53616c6520697320706175736564000000000000000000000000000000000000600082015250565b7f524e4d203a3a20596f7520617265206e6f742077686974656c69737465640000600082015250565b7f524e4d203a3a204d696e74696e67206973206f6e205061757365000000000000600082015250565b7f524e4d203a3a2043616e6e6f74206d696e74206265796f6e64206d617820737560008201527f70706c7900000000000000000000000000000000000000000000000000000000602082015250565b6150138161466a565b811461501e57600080fd5b50565b61502a8161467c565b811461503557600080fd5b50565b61504181614688565b811461504c57600080fd5b50565b61505881614692565b811461506357600080fd5b50565b61506f816146de565b811461507a57600080fd5b5056fea264697066735822122058e8adb9b56b9a8fd61a4c982eee9f6414079f83994775511fcd11e5f0d0eec664736f6c63430008040033",
  "linkReferences": {},
  "deployedLinkReferences": {}
}