{
  "_format": "hh-sol-artifact-1",
  "contractName": "RUNNINGMAN",
  "sourceName": "contracts/RunningManToken.sol",
  "abi": [
    {
      "inputs": [
        {
          "internalType": "string",
          "name": "name_",
          "type": "string"
        },
        {
          "internalType": "string",
          "name": "symbol_",
          "type": "string"
        },
        {
          "internalType": "uint256",
          "name": "totalSupply_",
          "type": "uint256"
        },
        {
          "internalType": "address",
          "name": "rewardAddr_",
          "type": "address"
        },
        {
          "internalType": "address",
          "name": "marketingWalletAddr_",
          "type": "address"
        },
        {
          "internalType": "address",
          "name": "serviceAddr_",
          "type": "address"
        },
        {
          "internalType": "uint256[4]",
          "name": "buyFeeSetting_",
          "type": "uint256[4]"
        },
        {
          "internalType": "uint256[4]",
          "name": "sellFeeSetting_",
          "type": "uint256[4]"
        },
        {
          "internalType": "uint256",
          "name": "tokenBalanceForReward_",
          "type": "uint256"
        }
      ],
      "stateMutability": "payable",
      "type": "constructor"
    },
    {
      "anonymous": false,
      "inputs": [
        {
          "indexed": true,
          "internalType": "address",
          "name": "owner",
          "type": "address"
        },
        {
          "indexed": true,
          "internalType": "address",
          "name": "spender",
          "type": "address"
        },
        {
          "indexed": false,
          "internalType": "uint256",
          "name": "value",
          "type": "uint256"
        }
      ],
      "name": "Approval",
      "type": "event"
    },
    {
      "anonymous": false,
      "inputs": [
        {
          "indexed": true,
          "internalType": "address",
          "name": "account",
          "type": "address"
        },
        {
          "indexed": false,
          "internalType": "bool",
          "name": "isExcluded",
          "type": "bool"
        }
      ],
      "name": "ExcludeFromFees",
      "type": "event"
    },
    {
      "anonymous": false,
      "inputs": [
        {
          "indexed": false,
          "internalType": "address[]",
          "name": "accounts",
          "type": "address[]"
        },
        {
          "indexed": false,
          "internalType": "bool",
          "name": "isExcluded",
          "type": "bool"
        }
      ],
      "name": "ExcludeMultipleAccountsFromFees",
      "type": "event"
    },
    {
      "anonymous": false,
      "inputs": [
        {
          "indexed": true,
          "internalType": "uint256",
          "name": "newValue",
          "type": "uint256"
        },
        {
          "indexed": true,
          "internalType": "uint256",
          "name": "oldValue",
          "type": "uint256"
        }
      ],
      "name": "GasForProcessingUpdated",
      "type": "event"
    },
    {
      "anonymous": false,
      "inputs": [
        {
          "indexed": true,
          "internalType": "address",
          "name": "newLiquidityWallet",
          "type": "address"
        },
        {
          "indexed": true,
          "internalType": "address",
          "name": "oldLiquidityWallet",
          "type": "address"
        }
      ],
      "name": "LiquidityWalletUpdated",
      "type": "event"
    },
    {
      "anonymous": false,
      "inputs": [
        {
          "indexed": true,
          "internalType": "address",
          "name": "previousOwner",
          "type": "address"
        },
        {
          "indexed": true,
          "internalType": "address",
          "name": "newOwner",
          "type": "address"
        }
      ],
      "name": "OwnershipTransferred",
      "type": "event"
    },
    {
      "anonymous": false,
      "inputs": [
        {
          "indexed": false,
          "internalType": "uint256",
          "name": "iterations",
          "type": "uint256"
        },
        {
          "indexed": false,
          "internalType": "uint256",
          "name": "claims",
          "type": "uint256"
        },
        {
          "indexed": false,
          "internalType": "uint256",
          "name": "lastProcessedIndex",
          "type": "uint256"
        },
        {
          "indexed": true,
          "internalType": "bool",
          "name": "automatic",
          "type": "bool"
        },
        {
          "indexed": false,
          "internalType": "uint256",
          "name": "gas",
          "type": "uint256"
        },
        {
          "indexed": true,
          "internalType": "address",
          "name": "processor",
          "type": "address"
        }
      ],
      "name": "ProcessedDividendTracker",
      "type": "event"
    },
    {
      "anonymous": false,
      "inputs": [
        {
          "indexed": false,
          "internalType": "uint256",
          "name": "tokensSwapped",
          "type": "uint256"
        },
        {
          "indexed": false,
          "internalType": "uint256",
          "name": "amount",
          "type": "uint256"
        }
      ],
      "name": "SendDividends",
      "type": "event"
    },
    {
      "anonymous": false,
      "inputs": [
        {
          "indexed": true,
          "internalType": "address",
          "name": "pair",
          "type": "address"
        },
        {
          "indexed": true,
          "internalType": "bool",
          "name": "value",
          "type": "bool"
        }
      ],
      "name": "SetAutomatedMarketMakerPair",
      "type": "event"
    },
    {
      "anonymous": false,
      "inputs": [
        {
          "indexed": false,
          "internalType": "uint256",
          "name": "tokensSwapped",
          "type": "uint256"
        },
        {
          "indexed": false,
          "internalType": "uint256",
          "name": "ethReceived",
          "type": "uint256"
        },
        {
          "indexed": false,
          "internalType": "uint256",
          "name": "tokensIntoLiqudity",
          "type": "uint256"
        }
      ],
      "name": "SwapAndLiquify",
      "type": "event"
    },
    {
      "anonymous": false,
      "inputs": [
        {
          "indexed": true,
          "internalType": "address",
          "name": "from",
          "type": "address"
        },
        {
          "indexed": true,
          "internalType": "address",
          "name": "to",
          "type": "address"
        },
        {
          "indexed": false,
          "internalType": "uint256",
          "name": "value",
          "type": "uint256"
        }
      ],
      "name": "Transfer",
      "type": "event"
    },
    {
      "anonymous": false,
      "inputs": [
        {
          "indexed": true,
          "internalType": "address",
          "name": "newAddress",
          "type": "address"
        },
        {
          "indexed": true,
          "internalType": "address",
          "name": "oldAddress",
          "type": "address"
        }
      ],
      "name": "UpdateDividendTracker",
      "type": "event"
    },
    {
      "anonymous": false,
      "inputs": [
        {
          "indexed": true,
          "internalType": "address",
          "name": "newAddress",
          "type": "address"
        },
        {
          "indexed": true,
          "internalType": "address",
          "name": "oldAddress",
          "type": "address"
        }
      ],
      "name": "UpdateUniswapV2Router",
      "type": "event"
    },
    {
      "inputs": [],
      "name": "AmountLiquidityFee",
      "outputs": [
        {
          "internalType": "uint256",
          "name": "",
          "type": "uint256"
        }
      ],
      "stateMutability": "view",
      "type": "function"
    },
    {
      "inputs": [],
      "name": "AmountMarketingFee",
      "outputs": [
        {
          "internalType": "uint256",
          "name": "",
          "type": "uint256"
        }
      ],
      "stateMutability": "view",
      "type": "function"
    },
    {
      "inputs": [],
      "name": "AmountTokenRewardsFee",
      "outputs": [
        {
          "internalType": "uint256",
          "name": "",
          "type": "uint256"
        }
      ],
      "stateMutability": "view",
      "type": "function"
    },
    {
      "inputs": [
        {
          "internalType": "address",
          "name": "account",
          "type": "address"
        },
        {
          "internalType": "bool",
          "name": "value",
          "type": "bool"
        }
      ],
      "name": "EnemyAddress",
      "outputs": [],
      "stateMutability": "nonpayable",
      "type": "function"
    },
    {
      "inputs": [
        {
          "internalType": "address",
          "name": "",
          "type": "address"
        }
      ],
      "name": "_isEnemy",
      "outputs": [
        {
          "internalType": "bool",
          "name": "",
          "type": "bool"
        }
      ],
      "stateMutability": "view",
      "type": "function"
    },
    {
      "inputs": [],
      "name": "_marketingWalletAddress",
      "outputs": [
        {
          "internalType": "address",
          "name": "",
          "type": "address"
        }
      ],
      "stateMutability": "view",
      "type": "function"
    },
    {
      "inputs": [
        {
          "internalType": "address",
          "name": "owner",
          "type": "address"
        },
        {
          "internalType": "address",
          "name": "spender",
          "type": "address"
        }
      ],
      "name": "allowance",
      "outputs": [
        {
          "internalType": "uint256",
          "name": "",
          "type": "uint256"
        }
      ],
      "stateMutability": "view",
      "type": "function"
    },
    {
      "inputs": [
        {
          "internalType": "address",
          "name": "spender",
          "type": "address"
        },
        {
          "internalType": "uint256",
          "name": "amount",
          "type": "uint256"
        }
      ],
      "name": "approve",
      "outputs": [
        {
          "internalType": "bool",
          "name": "",
          "type": "bool"
        }
      ],
      "stateMutability": "nonpayable",
      "type": "function"
    },
    {
      "inputs": [
        {
          "internalType": "address",
          "name": "",
          "type": "address"
        }
      ],
      "name": "automatedMarketMakerPairs",
      "outputs": [
        {
          "internalType": "bool",
          "name": "",
          "type": "bool"
        }
      ],
      "stateMutability": "view",
      "type": "function"
    },
    {
      "inputs": [
        {
          "internalType": "address",
          "name": "account",
          "type": "address"
        }
      ],
      "name": "balanceOf",
      "outputs": [
        {
          "internalType": "uint256",
          "name": "",
          "type": "uint256"
        }
      ],
      "stateMutability": "view",
      "type": "function"
    },
    {
      "inputs": [],
      "name": "buyDeadFee",
      "outputs": [
        {
          "internalType": "uint256",
          "name": "",
          "type": "uint256"
        }
      ],
      "stateMutability": "view",
      "type": "function"
    },
    {
      "inputs": [],
      "name": "buyLiquidityFee",
      "outputs": [
        {
          "internalType": "uint256",
          "name": "",
          "type": "uint256"
        }
      ],
      "stateMutability": "view",
      "type": "function"
    },
    {
      "inputs": [],
      "name": "buyMarketingFee",
      "outputs": [
        {
          "internalType": "uint256",
          "name": "",
          "type": "uint256"
        }
      ],
      "stateMutability": "view",
      "type": "function"
    },
    {
      "inputs": [],
      "name": "buyTokenRewardsFee",
      "outputs": [
        {
          "internalType": "uint256",
          "name": "",
          "type": "uint256"
        }
      ],
      "stateMutability": "view",
      "type": "function"
    },
    {
      "inputs": [],
      "name": "claim",
      "outputs": [],
      "stateMutability": "nonpayable",
      "type": "function"
    },
    {
      "inputs": [],
      "name": "deadWallet",
      "outputs": [
        {
          "internalType": "address",
          "name": "",
          "type": "address"
        }
      ],
      "stateMutability": "view",
      "type": "function"
    },
    {
      "inputs": [],
      "name": "decimals",
      "outputs": [
        {
          "internalType": "uint8",
          "name": "",
          "type": "uint8"
        }
      ],
      "stateMutability": "view",
      "type": "function"
    },
    {
      "inputs": [
        {
          "internalType": "address",
          "name": "spender",
          "type": "address"
        },
        {
          "internalType": "uint256",
          "name": "subtractedValue",
          "type": "uint256"
        }
      ],
      "name": "decreaseAllowance",
      "outputs": [
        {
          "internalType": "bool",
          "name": "",
          "type": "bool"
        }
      ],
      "stateMutability": "nonpayable",
      "type": "function"
    },
    {
      "inputs": [
        {
          "internalType": "address",
          "name": "account",
          "type": "address"
        }
      ],
      "name": "dividendTokenBalanceOf",
      "outputs": [
        {
          "internalType": "uint256",
          "name": "",
          "type": "uint256"
        }
      ],
      "stateMutability": "view",
      "type": "function"
    },
    {
      "inputs": [],
      "name": "dividendTracker",
      "outputs": [
        {
          "internalType": "contract TokenDividendTracker",
          "name": "",
          "type": "address"
        }
      ],
      "stateMutability": "view",
      "type": "function"
    },
    {
      "inputs": [
        {
          "internalType": "address",
          "name": "account",
          "type": "address"
        }
      ],
      "name": "excludeFromDividends",
      "outputs": [],
      "stateMutability": "nonpayable",
      "type": "function"
    },
    {
      "inputs": [
        {
          "internalType": "address",
          "name": "account",
          "type": "address"
        },
        {
          "internalType": "bool",
          "name": "excluded",
          "type": "bool"
        }
      ],
      "name": "excludeFromFees",
      "outputs": [],
      "stateMutability": "nonpayable",
      "type": "function"
    },
    {
      "inputs": [
        {
          "internalType": "address[]",
          "name": "accounts",
          "type": "address[]"
        },
        {
          "internalType": "bool",
          "name": "excluded",
          "type": "bool"
        }
      ],
      "name": "excludeMultipleAccountsFromFees",
      "outputs": [],
      "stateMutability": "nonpayable",
      "type": "function"
    },
    {
      "inputs": [],
      "name": "gasForProcessing",
      "outputs": [
        {
          "internalType": "uint256",
          "name": "",
          "type": "uint256"
        }
      ],
      "stateMutability": "view",
      "type": "function"
    },
    {
      "inputs": [
        {
          "internalType": "address",
          "name": "account",
          "type": "address"
        }
      ],
      "name": "getAccountDividendsInfo",
      "outputs": [
        {
          "internalType": "address",
          "name": "",
          "type": "address"
        },
        {
          "internalType": "int256",
          "name": "",
          "type": "int256"
        },
        {
          "internalType": "int256",
          "name": "",
          "type": "int256"
        },
        {
          "internalType": "uint256",
          "name": "",
          "type": "uint256"
        },
        {
          "internalType": "uint256",
          "name": "",
          "type": "uint256"
        },
        {
          "internalType": "uint256",
          "name": "",
          "type": "uint256"
        },
        {
          "internalType": "uint256",
          "name": "",
          "type": "uint256"
        },
        {
          "internalType": "uint256",
          "name": "",
          "type": "uint256"
        }
      ],
      "stateMutability": "view",
      "type": "function"
    },
    {
      "inputs": [
        {
          "internalType": "uint256",
          "name": "index",
          "type": "uint256"
        }
      ],
      "name": "getAccountDividendsInfoAtIndex",
      "outputs": [
        {
          "internalType": "address",
          "name": "",
          "type": "address"
        },
        {
          "internalType": "int256",
          "name": "",
          "type": "int256"
        },
        {
          "internalType": "int256",
          "name": "",
          "type": "int256"
        },
        {
          "internalType": "uint256",
          "name": "",
          "type": "uint256"
        },
        {
          "internalType": "uint256",
          "name": "",
          "type": "uint256"
        },
        {
          "internalType": "uint256",
          "name": "",
          "type": "uint256"
        },
        {
          "internalType": "uint256",
          "name": "",
          "type": "uint256"
        },
        {
          "internalType": "uint256",
          "name": "",
          "type": "uint256"
        }
      ],
      "stateMutability": "view",
      "type": "function"
    },
    {
      "inputs": [],
      "name": "getClaimWait",
      "outputs": [
        {
          "internalType": "uint256",
          "name": "",
          "type": "uint256"
        }
      ],
      "stateMutability": "view",
      "type": "function"
    },
    {
      "inputs": [],
      "name": "getLastProcessedIndex",
      "outputs": [
        {
          "internalType": "uint256",
          "name": "",
          "type": "uint256"
        }
      ],
      "stateMutability": "view",
      "type": "function"
    },
    {
      "inputs": [],
      "name": "getNumberOfDividendTokenHolders",
      "outputs": [
        {
          "internalType": "uint256",
          "name": "",
          "type": "uint256"
        }
      ],
      "stateMutability": "view",
      "type": "function"
    },
    {
      "inputs": [],
      "name": "getTotalDividendsDistributed",
      "outputs": [
        {
          "internalType": "uint256",
          "name": "",
          "type": "uint256"
        }
      ],
      "stateMutability": "view",
      "type": "function"
    },
    {
      "inputs": [
        {
          "internalType": "address",
          "name": "spender",
          "type": "address"
        },
        {
          "internalType": "uint256",
          "name": "addedValue",
          "type": "uint256"
        }
      ],
      "name": "increaseAllowance",
      "outputs": [
        {
          "internalType": "bool",
          "name": "",
          "type": "bool"
        }
      ],
      "stateMutability": "nonpayable",
      "type": "function"
    },
    {
      "inputs": [
        {
          "internalType": "address",
          "name": "account",
          "type": "address"
        }
      ],
      "name": "isExcludedFromDividends",
      "outputs": [
        {
          "internalType": "bool",
          "name": "",
          "type": "bool"
        }
      ],
      "stateMutability": "view",
      "type": "function"
    },
    {
      "inputs": [
        {
          "internalType": "address",
          "name": "account",
          "type": "address"
        }
      ],
      "name": "isExcludedFromFees",
      "outputs": [
        {
          "internalType": "bool",
          "name": "",
          "type": "bool"
        }
      ],
      "stateMutability": "view",
      "type": "function"
    },
    {
      "inputs": [],
      "name": "name",
      "outputs": [
        {
          "internalType": "string",
          "name": "",
          "type": "string"
        }
      ],
      "stateMutability": "view",
      "type": "function"
    },
    {
      "inputs": [],
      "name": "owner",
      "outputs": [
        {
          "internalType": "address",
          "name": "",
          "type": "address"
        }
      ],
      "stateMutability": "view",
      "type": "function"
    },
    {
      "inputs": [
        {
          "internalType": "uint256",
          "name": "gas",
          "type": "uint256"
        }
      ],
      "name": "processDividendTracker",
      "outputs": [],
      "stateMutability": "nonpayable",
      "type": "function"
    },
    {
      "inputs": [],
      "name": "renounceOwnership",
      "outputs": [],
      "stateMutability": "nonpayable",
      "type": "function"
    },
    {
      "inputs": [],
      "name": "rewardToken",
      "outputs": [
        {
          "internalType": "address",
          "name": "",
          "type": "address"
        }
      ],
      "stateMutability": "view",
      "type": "function"
    },
    {
      "inputs": [],
      "name": "sellDeadFee",
      "outputs": [
        {
          "internalType": "uint256",
          "name": "",
          "type": "uint256"
        }
      ],
      "stateMutability": "view",
      "type": "function"
    },
    {
      "inputs": [],
      "name": "sellLiquidityFee",
      "outputs": [
        {
          "internalType": "uint256",
          "name": "",
          "type": "uint256"
        }
      ],
      "stateMutability": "view",
      "type": "function"
    },
    {
      "inputs": [],
      "name": "sellMarketingFee",
      "outputs": [
        {
          "internalType": "uint256",
          "name": "",
          "type": "uint256"
        }
      ],
      "stateMutability": "view",
      "type": "function"
    },
    {
      "inputs": [],
      "name": "sellTokenRewardsFee",
      "outputs": [
        {
          "internalType": "uint256",
          "name": "",
          "type": "uint256"
        }
      ],
      "stateMutability": "view",
      "type": "function"
    },
    {
      "inputs": [
        {
          "internalType": "address",
          "name": "pair",
          "type": "address"
        },
        {
          "internalType": "bool",
          "name": "value",
          "type": "bool"
        }
      ],
      "name": "setAutomatedMarketMakerPair",
      "outputs": [],
      "stateMutability": "nonpayable",
      "type": "function"
    },
    {
      "inputs": [
        {
          "internalType": "uint256",
          "name": "amount",
          "type": "uint256"
        }
      ],
      "name": "setBuyDeadFee",
      "outputs": [],
      "stateMutability": "nonpayable",
      "type": "function"
    },
    {
      "inputs": [
        {
          "internalType": "uint256",
          "name": "amount",
          "type": "uint256"
        }
      ],
      "name": "setBuyLiquidityFee",
      "outputs": [],
      "stateMutability": "nonpayable",
      "type": "function"
    },
    {
      "inputs": [
        {
          "internalType": "uint256",
          "name": "amount",
          "type": "uint256"
        }
      ],
      "name": "setBuyMarketingFee",
      "outputs": [],
      "stateMutability": "nonpayable",
      "type": "function"
    },
    {
      "inputs": [
        {
          "internalType": "uint256",
          "name": "amount",
          "type": "uint256"
        }
      ],
      "name": "setBuyTokenRewardsFee",
      "outputs": [],
      "stateMutability": "nonpayable",
      "type": "function"
    },
    {
      "inputs": [
        {
          "internalType": "address",
          "name": "addr",
          "type": "address"
        }
      ],
      "name": "setDeadWallet",
      "outputs": [],
      "stateMutability": "nonpayable",
      "type": "function"
    },
    {
      "inputs": [
        {
          "internalType": "address payable",
          "name": "wallet",
          "type": "address"
        }
      ],
      "name": "setMarketingWallet",
      "outputs": [],
      "stateMutability": "nonpayable",
      "type": "function"
    },
    {
      "inputs": [
        {
          "internalType": "uint256",
          "name": "amount",
          "type": "uint256"
        }
      ],
      "name": "setSellDeadFee",
      "outputs": [],
      "stateMutability": "nonpayable",
      "type": "function"
    },
    {
      "inputs": [
        {
          "internalType": "uint256",
          "name": "amount",
          "type": "uint256"
        }
      ],
      "name": "setSellLiquidityFee",
      "outputs": [],
      "stateMutability": "nonpayable",
      "type": "function"
    },
    {
      "inputs": [
        {
          "internalType": "uint256",
          "name": "amount",
          "type": "uint256"
        }
      ],
      "name": "setSellMarketingFee",
      "outputs": [],
      "stateMutability": "nonpayable",
      "type": "function"
    },
    {
      "inputs": [
        {
          "internalType": "uint256",
          "name": "amount",
          "type": "uint256"
        }
      ],
      "name": "setSellTokenRewardsFee",
      "outputs": [],
      "stateMutability": "nonpayable",
      "type": "function"
    },
    {
      "inputs": [
        {
          "internalType": "uint256",
          "name": "amount",
          "type": "uint256"
        }
      ],
      "name": "setSwapTokensAtAmount",
      "outputs": [],
      "stateMutability": "nonpayable",
      "type": "function"
    },
    {
      "inputs": [],
      "name": "swapManual",
      "outputs": [],
      "stateMutability": "nonpayable",
      "type": "function"
    },
    {
      "inputs": [],
      "name": "swapTokensAtAmount",
      "outputs": [
        {
          "internalType": "uint256",
          "name": "",
          "type": "uint256"
        }
      ],
      "stateMutability": "view",
      "type": "function"
    },
    {
      "inputs": [],
      "name": "symbol",
      "outputs": [
        {
          "internalType": "string",
          "name": "",
          "type": "string"
        }
      ],
      "stateMutability": "view",
      "type": "function"
    },
    {
      "inputs": [],
      "name": "totalSupply",
      "outputs": [
        {
          "internalType": "uint256",
          "name": "",
          "type": "uint256"
        }
      ],
      "stateMutability": "view",
      "type": "function"
    },
    {
      "inputs": [
        {
          "internalType": "address",
          "name": "recipient",
          "type": "address"
        },
        {
          "internalType": "uint256",
          "name": "amount",
          "type": "uint256"
        }
      ],
      "name": "transfer",
      "outputs": [
        {
          "internalType": "bool",
          "name": "",
          "type": "bool"
        }
      ],
      "stateMutability": "nonpayable",
      "type": "function"
    },
    {
      "inputs": [
        {
          "internalType": "address",
          "name": "sender",
          "type": "address"
        },
        {
          "internalType": "address",
          "name": "recipient",
          "type": "address"
        },
        {
          "internalType": "uint256",
          "name": "amount",
          "type": "uint256"
        }
      ],
      "name": "transferFrom",
      "outputs": [
        {
          "internalType": "bool",
          "name": "",
          "type": "bool"
        }
      ],
      "stateMutability": "nonpayable",
      "type": "function"
    },
    {
      "inputs": [
        {
          "internalType": "address",
          "name": "newOwner",
          "type": "address"
        }
      ],
      "name": "transferOwnership",
      "outputs": [],
      "stateMutability": "nonpayable",
      "type": "function"
    },
    {
      "inputs": [],
      "name": "uniswapV2Pair",
      "outputs": [
        {
          "internalType": "address",
          "name": "",
          "type": "address"
        }
      ],
      "stateMutability": "view",
      "type": "function"
    },
    {
      "inputs": [],
      "name": "uniswapV2Router",
      "outputs": [
        {
          "internalType": "contract IUniswapV2Router02",
          "name": "",
          "type": "address"
        }
      ],
      "stateMutability": "view",
      "type": "function"
    },
    {
      "inputs": [
        {
          "internalType": "uint256",
          "name": "claimWait",
          "type": "uint256"
        }
      ],
      "name": "updateClaimWait",
      "outputs": [],
      "stateMutability": "nonpayable",
      "type": "function"
    },
    {
      "inputs": [
        {
          "internalType": "uint256",
          "name": "newValue",
          "type": "uint256"
        }
      ],
      "name": "updateGasForProcessing",
      "outputs": [],
      "stateMutability": "nonpayable",
      "type": "function"
    },
    {
      "inputs": [
        {
          "internalType": "uint256",
          "name": "val",
          "type": "uint256"
        }
      ],
      "name": "updateMinimumTokenBalanceForDividends",
      "outputs": [],
      "stateMutability": "nonpayable",
      "type": "function"
    },
    {
      "inputs": [
        {
          "internalType": "address",
          "name": "newAddress",
          "type": "address"
        }
      ],
      "name": "updateUniswapV2Router",
      "outputs": [],
      "stateMutability": "nonpayable",
      "type": "function"
    },
    {
      "inputs": [
        {
          "internalType": "address",
          "name": "account",
          "type": "address"
        }
      ],
      "name": "withdrawableDividendOf",
      "outputs": [
        {
          "internalType": "uint256",
          "name": "",
          "type": "uint256"
        }
      ],
      "stateMutability": "view",
      "type": "function"
    },
    {
      "stateMutability": "payable",
      "type": "receive"
    }
  ],
  "bytecode": "0x608060405261dead601760006101000a81548173ffffffffffffffffffffffffffffffffffffffff021916908373ffffffffffffffffffffffffffffffffffffffff16021790555060405162008cf638038062008cf683398181016040528101906200006c9190620016bd565b8888816003908051906020019062000086929190620014ab565b5080600490805190602001906200009f929190620014ab565b505050620000c2620000b662000c2360201b60201c565b62000c2b60201b60201c565b85600960006101000a81548173ffffffffffffffffffffffffffffffffffffffff021916908373ffffffffffffffffffffffffffffffffffffffff16021790555084601660006101000a81548173ffffffffffffffffffffffffffffffffffffffff021916908373ffffffffffffffffffffffffffffffffffffffff160217905550826000600481106200017f577f4e487b7100000000000000000000000000000000000000000000000000000000600052603260045260246000fd5b6020020151600b8190555082600160048110620001c5577f4e487b7100000000000000000000000000000000000000000000000000000000600052603260045260246000fd5b6020020151600d81905550826002600481106200020b577f4e487b7100000000000000000000000000000000000000000000000000000000600052603260045260246000fd5b6020020151600f819055508260036004811062000251577f4e487b7100000000000000000000000000000000000000000000000000000000600052603260045260246000fd5b60200201516011819055508160006004811062000297577f4e487b7100000000000000000000000000000000000000000000000000000000600052603260045260246000fd5b6020020151600c8190555081600160048110620002dd577f4e487b7100000000000000000000000000000000000000000000000000000000600052603260045260246000fd5b6020020151600e819055508160026004811062000323577f4e487b7100000000000000000000000000000000000000000000000000000000600052603260045260246000fd5b60200201516010819055508160036004811062000369577f4e487b7100000000000000000000000000000000000000000000000000000000600052603260045260246000fd5b60200201516012819055506019620003ca601154620003b6600f54620003a2600d54600b5462000cf160201b620035161790919060201c565b62000cf160201b620035161790919060201c565b62000cf160201b620035161790919060201c565b11156200040e576040517f08c379a0000000000000000000000000000000000000000000000000000000008152600401620004059062001a2d565b60405180910390fd5b601962000464601254620004506010546200043c600e54600c5462000cf160201b620035161790919060201c565b62000cf160201b620035161790919060201c565b62000cf160201b620035161790919060201c565b1115620004a8576040517f08c379a00000000000000000000000000000000000000000000000000000000081526004016200049f9062001b1b565b60405180910390fd5b6000670de0b6b3a764000088620004c0919062001c93565b9050620004fb6402540be400620004e760028462000d5460201b620035741790919060201c565b62000dd860201b620035ef1790919060201c565b600a81905550620493e0601981905550620005218562000e2a60201b620036391760201c565b600860006101000a81548173ffffffffffffffffffffffffffffffffffffffff021916908373ffffffffffffffffffffffffffffffffffffffff160217905550600860009054906101000a900473ffffffffffffffffffffffffffffffffffffffff1673ffffffffffffffffffffffffffffffffffffffff1663cd6dc68734600960009054906101000a900473ffffffffffffffffffffffffffffffffffffffff16856040518463ffffffff1660e01b8152600401620005e3929190620019bf565b6000604051808303818588803b158015620005fd57600080fd5b505af115801562000612573d6000803e3d6000fd5b505050505060007310ed43c718714eb63d5aa57b78b54704e256024e905060008173ffffffffffffffffffffffffffffffffffffffff1663c45a01556040518163ffffffff1660e01b815260040160206040518083038186803b1580156200067957600080fd5b505afa1580156200068e573d6000803e3d6000fd5b505050506040513d601f19601f82011682018060405250810190620006b4919062001691565b73ffffffffffffffffffffffffffffffffffffffff1663c9c65396308473ffffffffffffffffffffffffffffffffffffffff1663ad5c46486040518163ffffffff1660e01b815260040160206040518083038186803b1580156200071757600080fd5b505afa1580156200072c573d6000803e3d6000fd5b505050506040513d601f19601f8201168201806040525081019062000752919062001691565b6040518363ffffffff1660e01b81526004016200077192919062001992565b602060405180830381600087803b1580156200078c57600080fd5b505af1158015620007a1573d6000803e3d6000fd5b505050506040513d601f19601f82011682018060405250810190620007c7919062001691565b905081600660006101000a81548173ffffffffffffffffffffffffffffffffffffffff021916908373ffffffffffffffffffffffffffffffffffffffff16021790555080600760006101000a81548173ffffffffffffffffffffffffffffffffffffffff021916908373ffffffffffffffffffffffffffffffffffffffff1602179055506200085e81600162000f0260201b60201c565b600860009054906101000a900473ffffffffffffffffffffffffffffffffffffffff1673ffffffffffffffffffffffffffffffffffffffff166331e79db0600860009054906101000a900473ffffffffffffffffffffffffffffffffffffffff166040518263ffffffff1660e01b8152600401620008dd919062001975565b600060405180830381600087803b158015620008f857600080fd5b505af11580156200090d573d6000803e3d6000fd5b50505050600860009054906101000a900473ffffffffffffffffffffffffffffffffffffffff1673ffffffffffffffffffffffffffffffffffffffff166331e79db0306040518263ffffffff1660e01b81526004016200096e919062001975565b600060405180830381600087803b1580156200098957600080fd5b505af11580156200099e573d6000803e3d6000fd5b50505050600860009054906101000a900473ffffffffffffffffffffffffffffffffffffffff1673ffffffffffffffffffffffffffffffffffffffff166331e79db0620009f0620010d260201b60201c565b6040518263ffffffff1660e01b815260040162000a0e919062001975565b600060405180830381600087803b15801562000a2957600080fd5b505af115801562000a3e573d6000803e3d6000fd5b50505050600860009054906101000a900473ffffffffffffffffffffffffffffffffffffffff1673ffffffffffffffffffffffffffffffffffffffff166331e79db0601760009054906101000a900473ffffffffffffffffffffffffffffffffffffffff166040518263ffffffff1660e01b815260040162000ac1919062001975565b600060405180830381600087803b15801562000adc57600080fd5b505af115801562000af1573d6000803e3d6000fd5b50505050600860009054906101000a900473ffffffffffffffffffffffffffffffffffffffff1673ffffffffffffffffffffffffffffffffffffffff166331e79db0836040518263ffffffff1660e01b815260040162000b52919062001975565b600060405180830381600087803b15801562000b6d57600080fd5b505af115801562000b82573d6000803e3d6000fd5b5050505062000ba862000b9a620010d260201b60201c565b6001620010fc60201b60201c565b62000bdd601660009054906101000a900473ffffffffffffffffffffffffffffffffffffffff166001620010fc60201b60201c565b62000bf0306001620010fc60201b60201c565b62000c1162000c04620010d260201b60201c565b846200128f60201b60201c565b50505050505050505050505062002075565b600033905090565b6000600560009054906101000a900473ffffffffffffffffffffffffffffffffffffffff16905081600560006101000a81548173ffffffffffffffffffffffffffffffffffffffff021916908373ffffffffffffffffffffffffffffffffffffffff1602179055508173ffffffffffffffffffffffffffffffffffffffff168173ffffffffffffffffffffffffffffffffffffffff167f8be0079c531659141344cd1fd0a4f28419497f9722a3daafe3b4186f6b6457e060405160405180910390a35050565b600080828462000d02919062001bfe565b90508381101562000d4a576040517f08c379a000000000000000000000000000000000000000000000000000000000815260040162000d419062001a71565b60405180910390fd5b8091505092915050565b60008083141562000d69576000905062000dd2565b6000828462000d79919062001c93565b905082848262000d8a919062001c5b565b1462000dcd576040517f08c379a000000000000000000000000000000000000000000000000000000000815260040162000dc49062001ad7565b60405180910390fd5b809150505b92915050565b600062000e2283836040518060400160405280601a81526020017f536166654d6174683a206469766973696f6e206279207a65726f0000000000008152506200143e60201b60201c565b905092915050565b60006040517f3d602d80600a3d3981f3363d3d373d3d3d363d7300000000000000000000000081528260601b60148201527f5af43d82803e903d91602b57fd5bf3000000000000000000000000000000000060288201526037816000f0915050600073ffffffffffffffffffffffffffffffffffffffff168173ffffffffffffffffffffffffffffffffffffffff16141562000efd576040517f08c379a000000000000000000000000000000000000000000000000000000000815260040162000ef49062001ab5565b60405180910390fd5b919050565b801515601b60008473ffffffffffffffffffffffffffffffffffffffff1673ffffffffffffffffffffffffffffffffffffffff16815260200190815260200160002060009054906101000a900460ff161515141562000f98576040517f08c379a000000000000000000000000000000000000000000000000000000000815260040162000f8f9062001a4f565b60405180910390fd5b80601b60008473ffffffffffffffffffffffffffffffffffffffff1673ffffffffffffffffffffffffffffffffffffffff16815260200190815260200160002060006101000a81548160ff02191690831515021790555080156200108857600860009054906101000a900473ffffffffffffffffffffffffffffffffffffffff1673ffffffffffffffffffffffffffffffffffffffff166331e79db0836040518263ffffffff1660e01b815260040162001053919062001975565b600060405180830381600087803b1580156200106e57600080fd5b505af115801562001083573d6000803e3d6000fd5b505050505b8015158273ffffffffffffffffffffffffffffffffffffffff167fffa9187bf1f18bf477bd0ea1bcbb64e93b6a98132473929edfce215cd9b16fab60405160405180910390a35050565b6000600560009054906101000a900473ffffffffffffffffffffffffffffffffffffffff16905090565b6200110c62000c2360201b60201c565b73ffffffffffffffffffffffffffffffffffffffff1662001132620010d260201b60201c565b73ffffffffffffffffffffffffffffffffffffffff16146200118b576040517f08c379a0000000000000000000000000000000000000000000000000000000008152600401620011829062001af9565b60405180910390fd5b801515601a60008473ffffffffffffffffffffffffffffffffffffffff1673ffffffffffffffffffffffffffffffffffffffff16815260200190815260200160002060009054906101000a900460ff161515146200128b5780601a60008473ffffffffffffffffffffffffffffffffffffffff1673ffffffffffffffffffffffffffffffffffffffff16815260200190815260200160002060006101000a81548160ff0219169083151502179055508173ffffffffffffffffffffffffffffffffffffffff167f9d8f7706ea1113d1a167b526eca956215946dd36cc7df39eb16180222d8b5df782604051620012829190620019ec565b60405180910390a25b5050565b600073ffffffffffffffffffffffffffffffffffffffff168273ffffffffffffffffffffffffffffffffffffffff16141562001302576040517f08c379a0000000000000000000000000000000000000000000000000000000008152600401620012f99062001a93565b60405180910390fd5b6200131660008383620014a660201b60201c565b620013328160025462000cf160201b620035161790919060201c565b60028190555062001390816000808573ffffffffffffffffffffffffffffffffffffffff1673ffffffffffffffffffffffffffffffffffffffff1681526020019081526020016000205462000cf160201b620035161790919060201c565b6000808473ffffffffffffffffffffffffffffffffffffffff1673ffffffffffffffffffffffffffffffffffffffff168152602001908152602001600020819055508173ffffffffffffffffffffffffffffffffffffffff16600073ffffffffffffffffffffffffffffffffffffffff167fddf252ad1be2c89b69c2b068fc378daa952ba7f163c4a11628f55a4df523b3ef8360405162001432919062001b3d565b60405180910390a35050565b6000808311829062001488576040517f08c379a00000000000000000000000000000000000000000000000000000000081526004016200147f919062001a09565b60405180910390fd5b506000838562001499919062001c5b565b9050809150509392505050565b505050565b828054620014b99062001d74565b90600052602060002090601f016020900481019282620014dd576000855562001529565b82601f10620014f857805160ff191683800117855562001529565b8280016001018555821562001529579182015b82811115620015285782518255916020019190600101906200150b565b5b5090506200153891906200153c565b5090565b5b80821115620015575760008160009055506001016200153d565b5090565b6000620015726200156c8462001b83565b62001b5a565b905080828560208602820111156200158957600080fd5b60005b85811015620015bd5781620015a288826200167a565b8452602084019350602083019250506001810190506200158c565b5050509392505050565b6000620015de620015d88462001bac565b62001b5a565b905082815260208101848484011115620015f757600080fd5b6200160484828562001d3e565b509392505050565b6000815190506200161d8162002041565b92915050565b600082601f8301126200163557600080fd5b6004620016448482856200155b565b91505092915050565b600082601f8301126200165f57600080fd5b815162001671848260208601620015c7565b91505092915050565b6000815190506200168b816200205b565b92915050565b600060208284031215620016a457600080fd5b6000620016b4848285016200160c565b91505092915050565b60008060008060008060008060006101e08a8c031215620016dd57600080fd5b60008a015167ffffffffffffffff811115620016f857600080fd5b620017068c828d016200164d565b99505060208a015167ffffffffffffffff8111156200172457600080fd5b620017328c828d016200164d565b9850506040620017458c828d016200167a565b9750506060620017588c828d016200160c565b96505060806200176b8c828d016200160c565b95505060a06200177e8c828d016200160c565b94505060c0620017918c828d0162001623565b935050610140620017a58c828d0162001623565b9250506101c0620017b98c828d016200167a565b9150509295985092959850929598565b620017d48162001cf4565b82525050565b620017e58162001d08565b82525050565b6000620017f88262001be2565b62001804818562001bed565b93506200181681856020860162001d3e565b620018218162001e9c565b840191505092915050565b60006200183b60198362001bed565b9150620018488262001ead565b602082019050919050565b60006200186260388362001bed565b91506200186f8262001ed6565b604082019050919050565b600062001889601b8362001bed565b9150620018968262001f25565b602082019050919050565b6000620018b0601f8362001bed565b9150620018bd8262001f4e565b602082019050919050565b6000620018d760168362001bed565b9150620018e48262001f77565b602082019050919050565b6000620018fe60218362001bed565b91506200190b8262001fa0565b604082019050919050565b60006200192560208362001bed565b9150620019328262001fef565b602082019050919050565b60006200194c601a8362001bed565b9150620019598262002018565b602082019050919050565b6200196f8162001d34565b82525050565b60006020820190506200198c6000830184620017c9565b92915050565b6000604082019050620019a96000830185620017c9565b620019b86020830184620017c9565b9392505050565b6000604082019050620019d66000830185620017c9565b620019e5602083018462001964565b9392505050565b600060208201905062001a036000830184620017da565b92915050565b6000602082019050818103600083015262001a258184620017eb565b905092915050565b6000602082019050818103600083015262001a48816200182c565b9050919050565b6000602082019050818103600083015262001a6a8162001853565b9050919050565b6000602082019050818103600083015262001a8c816200187a565b9050919050565b6000602082019050818103600083015262001aae81620018a1565b9050919050565b6000602082019050818103600083015262001ad081620018c8565b9050919050565b6000602082019050818103600083015262001af281620018ef565b9050919050565b6000602082019050818103600083015262001b148162001916565b9050919050565b6000602082019050818103600083015262001b36816200193d565b9050919050565b600060208201905062001b54600083018462001964565b92915050565b600062001b6662001b79565b905062001b74828262001daa565b919050565b6000604051905090565b600067ffffffffffffffff82111562001ba15762001ba062001e6d565b5b602082029050919050565b600067ffffffffffffffff82111562001bca5762001bc962001e6d565b5b62001bd58262001e9c565b9050602081019050919050565b600081519050919050565b600082825260208201905092915050565b600062001c0b8262001d34565b915062001c188362001d34565b9250827fffffffffffffffffffffffffffffffffffffffffffffffffffffffffffffffff0382111562001c505762001c4f62001de0565b5b828201905092915050565b600062001c688262001d34565b915062001c758362001d34565b92508262001c885762001c8762001e0f565b5b828204905092915050565b600062001ca08262001d34565b915062001cad8362001d34565b9250817fffffffffffffffffffffffffffffffffffffffffffffffffffffffffffffffff048311821515161562001ce95762001ce862001de0565b5b828202905092915050565b600062001d018262001d14565b9050919050565b60008115159050919050565b600073ffffffffffffffffffffffffffffffffffffffff82169050919050565b6000819050919050565b60005b8381101562001d5e57808201518184015260208101905062001d41565b8381111562001d6e576000848401525b50505050565b6000600282049050600182168062001d8d57607f821691505b6020821081141562001da45762001da362001e3e565b5b50919050565b62001db58262001e9c565b810181811067ffffffffffffffff8211171562001dd75762001dd662001e6d565b5b80604052505050565b7f4e487b7100000000000000000000000000000000000000000000000000000000600052601160045260246000fd5b7f4e487b7100000000000000000000000000000000000000000000000000000000600052601260045260246000fd5b7f4e487b7100000000000000000000000000000000000000000000000000000000600052602260045260246000fd5b7f4e487b7100000000000000000000000000000000000000000000000000000000600052604160045260246000fd5b6000601f19601f8301169050919050565b7f546f74616c2062757920666565206973206f7665722032352500000000000000600082015250565b7f4175746f6d61746564206d61726b6574206d616b65722070616972206973206160008201527f6c72656164792073657420746f20746861742076616c75650000000000000000602082015250565b7f536166654d6174683a206164646974696f6e206f766572666c6f770000000000600082015250565b7f45524332303a206361737420746f20746865207a65726f206164647265737300600082015250565b7f455243313136373a20637265617465206661696c656400000000000000000000600082015250565b7f536166654d6174683a206d756c7469706c69636174696f6e206f766572666c6f60008201527f7700000000000000000000000000000000000000000000000000000000000000602082015250565b7f4f776e61626c653a2063616c6c6572206973206e6f7420746865206f776e6572600082015250565b7f546f74616c2073656c6c20666565206973206f76657220323525000000000000600082015250565b6200204c8162001cf4565b81146200205857600080fd5b50565b620020668162001d34565b81146200207257600080fd5b50565b616c7180620020856000396000f3fe6080604052600436106103f35760003560e01c806385141a7711610208578063c024666811610118578063e2f45605116100ab578063f27fd2541161007a578063f27fd25414610f31578063f2fde38b14610f75578063f637434214610f9e578063f7c618c114610fc9578063f832679514610ff4576103fa565b8063e2f4560514610e87578063e7841ec014610eb2578063e98030c714610edd578063f11a24d314610f06576103fa565b8063d271bb98116100e7578063d271bb9814610de1578063d2a8b44014610e0a578063d887a40714610e21578063dd62ed3e14610e4a576103fa565b8063c024666814610d27578063c492f04614610d50578063c705c56914610d79578063cfe0e61914610db6576103fa565b80639c1b8af51161019b578063a9059cbb1161016a578063a9059cbb14610c03578063aa797dbc14610c40578063ad56c13c14610c7d578063afa4f3b214610cc1578063b62496f514610cea576103fa565b80639c1b8af514610b33578063a26579ad14610b5e578063a457c2d714610b89578063a8b9d24014610bc6576103fa565b80638de743b3116101d75780638de743b314610a895780639213691314610ab457806395d89b4114610adf5780639a7a23d614610b0a576103fa565b806385141a77146109e15780638692361114610a0c578063871c128d14610a355780638da5cb5b14610a5e576103fa565b806332cdf01c1161030357806361a60d57116102965780636aa58bb5116102655780636aa58bb514610910578063700bb1911461093957806370a0823114610962578063715018a61461099f5780637bce5a04146109b6576103fa565b806361a60d571461085657806364b0f6531461087f57806365b8dbc0146108aa5780636843cd84146108d3576103fa565b806349bd5a5e116102d257806349bd5a5e146107ae5780634e71d92d146107d95780634fbee193146107f05780635d098b381461082d576103fa565b806332cdf01c146106f25780633926876d1461071b57806339509351146107465780634144d9e414610783576103fa565b806318160ddd116103865780632a413cf2116103555780632a413cf21461061f5780632c1f52161461064857806330bb4cff14610673578063313ce5671461069e57806331e79db0146106c9576103fa565b806318160ddd14610563578063191dd4bc1461058e57806323b872dd146105b757806324942a04146105f4576103fa565b80630d9e8c23116103c25780630d9e8c23146104bd5780630dcb2e89146104e65780630e27e40f1461050f5780631694505e14610538576103fa565b806302df64d6146103ff57806306fdde031461042a57806308b2a12c14610455578063095ea7b314610480576103fa565b366103fa57005b600080fd5b34801561040b57600080fd5b5061041461101f565b6040516104219190616219565b60405180910390f35b34801561043657600080fd5b5061043f611025565b60405161044c9190615ff7565b60405180910390f35b34801561046157600080fd5b5061046a6110b7565b6040516104779190616219565b60405180910390f35b34801561048c57600080fd5b506104a760048036038101906104a291906158a6565b6110bd565b6040516104b49190615fa6565b60405180910390f35b3480156104c957600080fd5b506104e460048036038101906104df9190615963565b6110db565b005b3480156104f257600080fd5b5061050d60048036038101906105089190615963565b611161565b005b34801561051b57600080fd5b5061053660048036038101906105319190615963565b61126d565b005b34801561054457600080fd5b5061054d6112f3565b60405161055a9190615fc1565b60405180910390f35b34801561056f57600080fd5b50610578611319565b6040516105859190616219565b60405180910390f35b34801561059a57600080fd5b506105b560048036038101906105b09190615963565b611323565b005b3480156105c357600080fd5b506105de60048036038101906105d99190615769565b6113a9565b6040516105eb9190615fa6565b60405180910390f35b34801561060057600080fd5b50610609611482565b6040516106169190616219565b60405180910390f35b34801561062b57600080fd5b5061064660048036038101906106419190615963565b611488565b005b34801561065457600080fd5b5061065d61150e565b60405161066a9190615fdc565b60405180910390f35b34801561067f57600080fd5b50610688611534565b6040516106959190616219565b60405180910390f35b3480156106aa57600080fd5b506106b36115db565b6040516106c09190616333565b60405180910390f35b3480156106d557600080fd5b506106f060048036038101906106eb91906156b2565b6115e4565b005b3480156106fe57600080fd5b5061071960048036038101906107149190615963565b6116f0565b005b34801561072757600080fd5b50610730611776565b60405161073d9190616219565b60405180910390f35b34801561075257600080fd5b5061076d600480360381019061076891906158a6565b61177c565b60405161077a9190615fa6565b60405180910390f35b34801561078f57600080fd5b5061079861182f565b6040516107a59190615dd6565b60405180910390f35b3480156107ba57600080fd5b506107c3611855565b6040516107d09190615dd6565b60405180910390f35b3480156107e557600080fd5b506107ee61187b565b005b3480156107fc57600080fd5b50610817600480360381019061081291906156b2565b61192e565b6040516108249190615fa6565b60405180910390f35b34801561083957600080fd5b50610854600480360381019061084f9190615704565b611984565b005b34801561086257600080fd5b5061087d600480360381019061087891906156b2565b611a44565b005b34801561088b57600080fd5b50610894611b04565b6040516108a19190616219565b60405180910390f35b3480156108b657600080fd5b506108d160048036038101906108cc91906156b2565b611bab565b005b3480156108df57600080fd5b506108fa60048036038101906108f591906156b2565b611f89565b6040516109079190616219565b60405180910390f35b34801561091c57600080fd5b5061093760048036038101906109329190615963565b61203d565b005b34801561094557600080fd5b50610960600480360381019061095b9190615963565b6120c3565b005b34801561096e57600080fd5b50610989600480360381019061098491906156b2565b6121d9565b6040516109969190616219565b60405180910390f35b3480156109ab57600080fd5b506109b4612221565b005b3480156109c257600080fd5b506109cb6122a9565b6040516109d89190616219565b60405180910390f35b3480156109ed57600080fd5b506109f66122af565b604051610a039190615dd6565b60405180910390f35b348015610a1857600080fd5b50610a336004803603810190610a2e91906157b8565b6122d5565b005b348015610a4157600080fd5b50610a5c6004803603810190610a579190615963565b6123ac565b005b348015610a6a57600080fd5b50610a736124fc565b604051610a809190615dd6565b60405180910390f35b348015610a9557600080fd5b50610a9e612526565b604051610aab9190616219565b60405180910390f35b348015610ac057600080fd5b50610ac961252c565b604051610ad69190616219565b60405180910390f35b348015610aeb57600080fd5b50610af4612532565b604051610b019190615ff7565b60405180910390f35b348015610b1657600080fd5b50610b316004803603810190610b2c91906157b8565b6125c4565b005b348015610b3f57600080fd5b50610b486126df565b604051610b559190616219565b60405180910390f35b348015610b6a57600080fd5b50610b736126e5565b604051610b809190616219565b60405180910390f35b348015610b9557600080fd5b50610bb06004803603810190610bab91906158a6565b61278c565b604051610bbd9190615fa6565b60405180910390f35b348015610bd257600080fd5b50610bed6004803603810190610be891906156b2565b612859565b604051610bfa9190616219565b60405180910390f35b348015610c0f57600080fd5b50610c2a6004803603810190610c2591906158a6565b61290d565b604051610c379190615fa6565b60405180910390f35b348015610c4c57600080fd5b50610c676004803603810190610c6291906156b2565b61292b565b604051610c749190615fa6565b60405180910390f35b348015610c8957600080fd5b50610ca46004803603810190610c9f91906156b2565b61294b565b604051610cb8989796959493929190615e6c565b60405180910390f35b348015610ccd57600080fd5b50610ce86004803603810190610ce39190615963565b612a1e565b005b348015610cf657600080fd5b50610d116004803603810190610d0c91906156b2565b612aa4565b604051610d1e9190615fa6565b60405180910390f35b348015610d3357600080fd5b50610d4e6004803603810190610d4991906157b8565b612ac4565b005b348015610d5c57600080fd5b50610d776004803603810190610d7291906158e2565b612c41565b005b348015610d8557600080fd5b50610da06004803603810190610d9b91906156b2565b612dc3565b604051610dad9190615fa6565b60405180910390f35b348015610dc257600080fd5b50610dcb612e77565b604051610dd89190616219565b60405180910390f35b348015610ded57600080fd5b50610e086004803603810190610e039190615963565b612e7d565b005b348015610e1657600080fd5b50610e1f612f03565b005b348015610e2d57600080fd5b50610e486004803603810190610e439190615963565b61304d565b005b348015610e5657600080fd5b50610e716004803603810190610e6c919061572d565b6130d3565b604051610e7e9190616219565b60405180910390f35b348015610e9357600080fd5b50610e9c61315a565b604051610ea99190616219565b60405180910390f35b348015610ebe57600080fd5b50610ec7613160565b604051610ed49190616219565b60405180910390f35b348015610ee957600080fd5b50610f046004803603810190610eff9190615963565b613207565b005b348015610f1257600080fd5b50610f1b613313565b604051610f289190616219565b60405180910390f35b348015610f3d57600080fd5b50610f586004803603810190610f539190615963565b613319565b604051610f6c989796959493929190615e6c565b60405180910390f35b348015610f8157600080fd5b50610f9c6004803603810190610f9791906156b2565b6133ec565b005b348015610faa57600080fd5b50610fb36134e4565b604051610fc09190616219565b60405180910390f35b348015610fd557600080fd5b50610fde6134ea565b604051610feb9190615dd6565b60405180910390f35b34801561100057600080fd5b50611009613510565b6040516110169190616219565b60405180910390f35b600b5481565b606060038054611034906165e4565b80601f0160208091040260200160405190810160405280929190818152602001828054611060906165e4565b80156110ad5780601f10611082576101008083540402835291602001916110ad565b820191906000526020600020905b81548152906001019060200180831161109057829003601f168201915b5050505050905090565b600c5481565b60006110d16110ca61370e565b8484613716565b6001905092915050565b6110e361370e565b73ffffffffffffffffffffffffffffffffffffffff166111016124fc565b73ffffffffffffffffffffffffffffffffffffffff1614611157576040517f08c379a000000000000000000000000000000000000000000000000000000000815260040161114e906161b9565b60405180910390fd5b80600d8190555050565b61116961370e565b73ffffffffffffffffffffffffffffffffffffffff166111876124fc565b73ffffffffffffffffffffffffffffffffffffffff16146111dd576040517f08c379a00000000000000000000000000000000000000000000000000000000081526004016111d4906161b9565b60405180910390fd5b600860009054906101000a900473ffffffffffffffffffffffffffffffffffffffff1673ffffffffffffffffffffffffffffffffffffffff16635ebf4db9826040518263ffffffff1660e01b81526004016112389190616219565b600060405180830381600087803b15801561125257600080fd5b505af1158015611266573d6000803e3d6000fd5b5050505050565b61127561370e565b73ffffffffffffffffffffffffffffffffffffffff166112936124fc565b73ffffffffffffffffffffffffffffffffffffffff16146112e9576040517f08c379a00000000000000000000000000000000000000000000000000000000081526004016112e0906161b9565b60405180910390fd5b80600e8190555050565b600660009054906101000a900473ffffffffffffffffffffffffffffffffffffffff1681565b6000600254905090565b61132b61370e565b73ffffffffffffffffffffffffffffffffffffffff166113496124fc565b73ffffffffffffffffffffffffffffffffffffffff161461139f576040517f08c379a0000000000000000000000000000000000000000000000000000000008152600401611396906161b9565b60405180910390fd5b80600b8190555050565b60006113b68484846138e1565b611477846113c261370e565b61147285604051806060016040528060288152602001616bef60289139600160008b73ffffffffffffffffffffffffffffffffffffffff1673ffffffffffffffffffffffffffffffffffffffff168152602001908152602001600020600061142861370e565b73ffffffffffffffffffffffffffffffffffffffff1673ffffffffffffffffffffffffffffffffffffffff168152602001908152602001600020546142ef9092919063ffffffff16565b613716565b600190509392505050565b60125481565b61149061370e565b73ffffffffffffffffffffffffffffffffffffffff166114ae6124fc565b73ffffffffffffffffffffffffffffffffffffffff1614611504576040517f08c379a00000000000000000000000000000000000000000000000000000000081526004016114fb906161b9565b60405180910390fd5b8060128190555050565b600860009054906101000a900473ffffffffffffffffffffffffffffffffffffffff1681565b6000600860009054906101000a900473ffffffffffffffffffffffffffffffffffffffff1673ffffffffffffffffffffffffffffffffffffffff166385a6b3ae6040518163ffffffff1660e01b815260040160206040518083038186803b15801561159e57600080fd5b505afa1580156115b2573d6000803e3d6000fd5b505050506040513d601f19601f820116820180604052508101906115d6919061598c565b905090565b60006012905090565b6115ec61370e565b73ffffffffffffffffffffffffffffffffffffffff1661160a6124fc565b73ffffffffffffffffffffffffffffffffffffffff1614611660576040517f08c379a0000000000000000000000000000000000000000000000000000000008152600401611657906161b9565b60405180910390fd5b600860009054906101000a900473ffffffffffffffffffffffffffffffffffffffff1673ffffffffffffffffffffffffffffffffffffffff166331e79db0826040518263ffffffff1660e01b81526004016116bb9190615dd6565b600060405180830381600087803b1580156116d557600080fd5b505af11580156116e9573d6000803e3d6000fd5b5050505050565b6116f861370e565b73ffffffffffffffffffffffffffffffffffffffff166117166124fc565b73ffffffffffffffffffffffffffffffffffffffff161461176c576040517f08c379a0000000000000000000000000000000000000000000000000000000008152600401611763906161b9565b60405180910390fd5b8060118190555050565b60145481565b600061182561178961370e565b84611820856001600061179a61370e565b73ffffffffffffffffffffffffffffffffffffffff1673ffffffffffffffffffffffffffffffffffffffff16815260200190815260200160002060008973ffffffffffffffffffffffffffffffffffffffff1673ffffffffffffffffffffffffffffffffffffffff1681526020019081526020016000205461351690919063ffffffff16565b613716565b6001905092915050565b601660009054906101000a900473ffffffffffffffffffffffffffffffffffffffff1681565b600760009054906101000a900473ffffffffffffffffffffffffffffffffffffffff1681565b600860009054906101000a900473ffffffffffffffffffffffffffffffffffffffff1673ffffffffffffffffffffffffffffffffffffffff1663bc4c4b373360006040518363ffffffff1660e01b81526004016118d9929190615df1565b602060405180830381600087803b1580156118f357600080fd5b505af1158015611907573d6000803e3d6000fd5b505050506040513d601f19601f8201168201806040525081019061192b919061593a565b50565b6000601a60008373ffffffffffffffffffffffffffffffffffffffff1673ffffffffffffffffffffffffffffffffffffffff16815260200190815260200160002060009054906101000a900460ff169050919050565b61198c61370e565b73ffffffffffffffffffffffffffffffffffffffff166119aa6124fc565b73ffffffffffffffffffffffffffffffffffffffff1614611a00576040517f08c379a00000000000000000000000000000000000000000000000000000000081526004016119f7906161b9565b60405180910390fd5b80601660006101000a81548173ffffffffffffffffffffffffffffffffffffffff021916908373ffffffffffffffffffffffffffffffffffffffff16021790555050565b611a4c61370e565b73ffffffffffffffffffffffffffffffffffffffff16611a6a6124fc565b73ffffffffffffffffffffffffffffffffffffffff1614611ac0576040517f08c379a0000000000000000000000000000000000000000000000000000000008152600401611ab7906161b9565b60405180910390fd5b80601760006101000a81548173ffffffffffffffffffffffffffffffffffffffff021916908373ffffffffffffffffffffffffffffffffffffffff16021790555050565b6000600860009054906101000a900473ffffffffffffffffffffffffffffffffffffffff1673ffffffffffffffffffffffffffffffffffffffff166309bbedde6040518163ffffffff1660e01b815260040160206040518083038186803b158015611b6e57600080fd5b505afa158015611b82573d6000803e3d6000fd5b505050506040513d601f19601f82011682018060405250810190611ba6919061598c565b905090565b611bb361370e565b73ffffffffffffffffffffffffffffffffffffffff16611bd16124fc565b73ffffffffffffffffffffffffffffffffffffffff1614611c27576040517f08c379a0000000000000000000000000000000000000000000000000000000008152600401611c1e906161b9565b60405180910390fd5b600660009054906101000a900473ffffffffffffffffffffffffffffffffffffffff1673ffffffffffffffffffffffffffffffffffffffff168173ffffffffffffffffffffffffffffffffffffffff161415611cb8576040517f08c379a0000000000000000000000000000000000000000000000000000000008152600401611caf90616119565b60405180910390fd5b600660009054906101000a900473ffffffffffffffffffffffffffffffffffffffff1673ffffffffffffffffffffffffffffffffffffffff168173ffffffffffffffffffffffffffffffffffffffff167f8fc842bbd331dfa973645f4ed48b11683d501ebf1352708d77a5da2ab49a576e60405160405180910390a380600660006101000a81548173ffffffffffffffffffffffffffffffffffffffff021916908373ffffffffffffffffffffffffffffffffffffffff1602179055506000600660009054906101000a900473ffffffffffffffffffffffffffffffffffffffff1673ffffffffffffffffffffffffffffffffffffffff1663c45a01556040518163ffffffff1660e01b815260040160206040518083038186803b158015611ddf57600080fd5b505afa158015611df3573d6000803e3d6000fd5b505050506040513d601f19601f82011682018060405250810190611e1791906156db565b73ffffffffffffffffffffffffffffffffffffffff1663c9c6539630600660009054906101000a900473ffffffffffffffffffffffffffffffffffffffff1673ffffffffffffffffffffffffffffffffffffffff1663ad5c46486040518163ffffffff1660e01b815260040160206040518083038186803b158015611e9b57600080fd5b505afa158015611eaf573d6000803e3d6000fd5b505050506040513d601f19601f82011682018060405250810190611ed391906156db565b6040518363ffffffff1660e01b8152600401611ef0929190615e43565b602060405180830381600087803b158015611f0a57600080fd5b505af1158015611f1e573d6000803e3d6000fd5b505050506040513d601f19601f82011682018060405250810190611f4291906156db565b905080600760006101000a81548173ffffffffffffffffffffffffffffffffffffffff021916908373ffffffffffffffffffffffffffffffffffffffff1602179055505050565b6000600860009054906101000a900473ffffffffffffffffffffffffffffffffffffffff1673ffffffffffffffffffffffffffffffffffffffff166370a08231836040518263ffffffff1660e01b8152600401611fe69190615dd6565b60206040518083038186803b158015611ffe57600080fd5b505afa158015612012573d6000803e3d6000fd5b505050506040513d601f19601f82011682018060405250810190612036919061598c565b9050919050565b61204561370e565b73ffffffffffffffffffffffffffffffffffffffff166120636124fc565b73ffffffffffffffffffffffffffffffffffffffff16146120b9576040517f08c379a00000000000000000000000000000000000000000000000000000000081526004016120b0906161b9565b60405180910390fd5b8060108190555050565b6000806000600860009054906101000a900473ffffffffffffffffffffffffffffffffffffffff1673ffffffffffffffffffffffffffffffffffffffff1663ffb2c479856040518263ffffffff1660e01b81526004016121239190616219565b606060405180830381600087803b15801561213d57600080fd5b505af1158015612151573d6000803e3d6000fd5b505050506040513d601f19601f8201168201806040525081019061217591906159b5565b9250925092503273ffffffffffffffffffffffffffffffffffffffff16600015157fc864333d6121033635ab41b29ae52f10a22cf4438c3e4f1c4c68518feb2f8a98858585896040516121cb94939291906162ee565b60405180910390a350505050565b60008060008373ffffffffffffffffffffffffffffffffffffffff1673ffffffffffffffffffffffffffffffffffffffff168152602001908152602001600020549050919050565b61222961370e565b73ffffffffffffffffffffffffffffffffffffffff166122476124fc565b73ffffffffffffffffffffffffffffffffffffffff161461229d576040517f08c379a0000000000000000000000000000000000000000000000000000000008152600401612294906161b9565b60405180910390fd5b6122a76000614353565b565b600f5481565b601760009054906101000a900473ffffffffffffffffffffffffffffffffffffffff1681565b6122dd61370e565b73ffffffffffffffffffffffffffffffffffffffff166122fb6124fc565b73ffffffffffffffffffffffffffffffffffffffff1614612351576040517f08c379a0000000000000000000000000000000000000000000000000000000008152600401612348906161b9565b60405180910390fd5b80601860008473ffffffffffffffffffffffffffffffffffffffff1673ffffffffffffffffffffffffffffffffffffffff16815260200190815260200160002060006101000a81548160ff0219169083151502179055505050565b6123b461370e565b73ffffffffffffffffffffffffffffffffffffffff166123d26124fc565b73ffffffffffffffffffffffffffffffffffffffff1614612428576040517f08c379a000000000000000000000000000000000000000000000000000000000815260040161241f906161b9565b60405180910390fd5b62030d40811015801561243e57506207a1208111155b61247d576040517f08c379a000000000000000000000000000000000000000000000000000000000815260040161247490616059565b60405180910390fd5b6019548114156124c2576040517f08c379a00000000000000000000000000000000000000000000000000000000081526004016124b9906160d9565b60405180910390fd5b601954817f40d7e40e79af4e8e5a9b3c57030d8ea93f13d669c06d448c4d631d4ae7d23db760405160405180910390a38060198190555050565b6000600560009054906101000a900473ffffffffffffffffffffffffffffffffffffffff16905090565b60115481565b60105481565b606060048054612541906165e4565b80601f016020809104026020016040519081016040528092919081815260200182805461256d906165e4565b80156125ba5780601f1061258f576101008083540402835291602001916125ba565b820191906000526020600020905b81548152906001019060200180831161259d57829003601f168201915b5050505050905090565b6125cc61370e565b73ffffffffffffffffffffffffffffffffffffffff166125ea6124fc565b73ffffffffffffffffffffffffffffffffffffffff1614612640576040517f08c379a0000000000000000000000000000000000000000000000000000000008152600401612637906161b9565b60405180910390fd5b600760009054906101000a900473ffffffffffffffffffffffffffffffffffffffff1673ffffffffffffffffffffffffffffffffffffffff168273ffffffffffffffffffffffffffffffffffffffff1614156126d1576040517f08c379a00000000000000000000000000000000000000000000000000000000081526004016126c890616019565b60405180910390fd5b6126db8282614419565b5050565b60195481565b6000600860009054906101000a900473ffffffffffffffffffffffffffffffffffffffff1673ffffffffffffffffffffffffffffffffffffffff16636f2789ec6040518163ffffffff1660e01b815260040160206040518083038186803b15801561274f57600080fd5b505afa158015612763573d6000803e3d6000fd5b505050506040513d601f19601f82011682018060405250810190612787919061598c565b905090565b600061284f61279961370e565b8461284a85604051806060016040528060258152602001616c1760259139600160006127c361370e565b73ffffffffffffffffffffffffffffffffffffffff1673ffffffffffffffffffffffffffffffffffffffff16815260200190815260200160002060008a73ffffffffffffffffffffffffffffffffffffffff1673ffffffffffffffffffffffffffffffffffffffff168152602001908152602001600020546142ef9092919063ffffffff16565b613716565b6001905092915050565b6000600860009054906101000a900473ffffffffffffffffffffffffffffffffffffffff1673ffffffffffffffffffffffffffffffffffffffff1663a8b9d240836040518263ffffffff1660e01b81526004016128b69190615dd6565b60206040518083038186803b1580156128ce57600080fd5b505afa1580156128e2573d6000803e3d6000fd5b505050506040513d601f19601f82011682018060405250810190612906919061598c565b9050919050565b600061292161291a61370e565b84846138e1565b6001905092915050565b60186020528060005260406000206000915054906101000a900460ff1681565b600080600080600080600080600860009054906101000a900473ffffffffffffffffffffffffffffffffffffffff1673ffffffffffffffffffffffffffffffffffffffff1663fbcbc0f18a6040518263ffffffff1660e01b81526004016129b29190615dd6565b6101006040518083038186803b1580156129cb57600080fd5b505afa1580156129df573d6000803e3d6000fd5b505050506040513d601f19601f82011682018060405250810190612a0391906157f4565b97509750975097509750975097509750919395975091939597565b612a2661370e565b73ffffffffffffffffffffffffffffffffffffffff16612a446124fc565b73ffffffffffffffffffffffffffffffffffffffff1614612a9a576040517f08c379a0000000000000000000000000000000000000000000000000000000008152600401612a91906161b9565b60405180910390fd5b80600a8190555050565b601b6020528060005260406000206000915054906101000a900460ff1681565b612acc61370e565b73ffffffffffffffffffffffffffffffffffffffff16612aea6124fc565b73ffffffffffffffffffffffffffffffffffffffff1614612b40576040517f08c379a0000000000000000000000000000000000000000000000000000000008152600401612b37906161b9565b60405180910390fd5b801515601a60008473ffffffffffffffffffffffffffffffffffffffff1673ffffffffffffffffffffffffffffffffffffffff16815260200190815260200160002060009054906101000a900460ff16151514612c3d5780601a60008473ffffffffffffffffffffffffffffffffffffffff1673ffffffffffffffffffffffffffffffffffffffff16815260200190815260200160002060006101000a81548160ff0219169083151502179055508173ffffffffffffffffffffffffffffffffffffffff167f9d8f7706ea1113d1a167b526eca956215946dd36cc7df39eb16180222d8b5df782604051612c349190615fa6565b60405180910390a25b5050565b612c4961370e565b73ffffffffffffffffffffffffffffffffffffffff16612c676124fc565b73ffffffffffffffffffffffffffffffffffffffff1614612cbd576040517f08c379a0000000000000000000000000000000000000000000000000000000008152600401612cb4906161b9565b60405180910390fd5b60005b83839050811015612d825781601a6000868685818110612d09577f4e487b7100000000000000000000000000000000000000000000000000000000600052603260045260246000fd5b9050602002016020810190612d1e91906156b2565b73ffffffffffffffffffffffffffffffffffffffff1673ffffffffffffffffffffffffffffffffffffffff16815260200190815260200160002060006101000a81548160ff0219169083151502179055508080612d7a90616616565b915050612cc0565b507f7fdaf542373fa84f4ee8d662c642f44e4c2276a217d7d29e548b6eb29a233b35838383604051612db693929190615f74565b60405180910390a1505050565b6000600860009054906101000a900473ffffffffffffffffffffffffffffffffffffffff1673ffffffffffffffffffffffffffffffffffffffff1663c705c569836040518263ffffffff1660e01b8152600401612e209190615dd6565b60206040518083038186803b158015612e3857600080fd5b505afa158015612e4c573d6000803e3d6000fd5b505050506040513d601f19601f82011682018060405250810190612e70919061593a565b9050919050565b60155481565b612e8561370e565b73ffffffffffffffffffffffffffffffffffffffff16612ea36124fc565b73ffffffffffffffffffffffffffffffffffffffff1614612ef9576040517f08c379a0000000000000000000000000000000000000000000000000000000008152600401612ef0906161b9565b60405180910390fd5b80600c8190555050565b612f0b61370e565b73ffffffffffffffffffffffffffffffffffffffff16612f296124fc565b73ffffffffffffffffffffffffffffffffffffffff1614612f7f576040517f08c379a0000000000000000000000000000000000000000000000000000000008152600401612f76906161b9565b60405180910390fd5b6000612f8a306121d9565b905060008111612fcf576040517f08c379a0000000000000000000000000000000000000000000000000000000008152600401612fc690616179565b60405180910390fd5b6001600760146101000a81548160ff02191690831515021790555060006013541115613001576130006013546145e1565b5b6000601454111561301857613017601454614695565b5b6000601554111561302f5761302e601554614908565b5b6000600760146101000a81548160ff02191690831515021790555050565b61305561370e565b73ffffffffffffffffffffffffffffffffffffffff166130736124fc565b73ffffffffffffffffffffffffffffffffffffffff16146130c9576040517f08c379a00000000000000000000000000000000000000000000000000000000081526004016130c0906161b9565b60405180910390fd5b80600f8190555050565b6000600160008473ffffffffffffffffffffffffffffffffffffffff1673ffffffffffffffffffffffffffffffffffffffff16815260200190815260200160002060008373ffffffffffffffffffffffffffffffffffffffff1673ffffffffffffffffffffffffffffffffffffffff16815260200190815260200160002054905092915050565b600a5481565b6000600860009054906101000a900473ffffffffffffffffffffffffffffffffffffffff1673ffffffffffffffffffffffffffffffffffffffff1663e7841ec06040518163ffffffff1660e01b815260040160206040518083038186803b1580156131ca57600080fd5b505afa1580156131de573d6000803e3d6000fd5b505050506040513d601f19601f82011682018060405250810190613202919061598c565b905090565b61320f61370e565b73ffffffffffffffffffffffffffffffffffffffff1661322d6124fc565b73ffffffffffffffffffffffffffffffffffffffff1614613283576040517f08c379a000000000000000000000000000000000000000000000000000000000815260040161327a906161b9565b60405180910390fd5b600860009054906101000a900473ffffffffffffffffffffffffffffffffffffffff1673ffffffffffffffffffffffffffffffffffffffff1663e98030c7826040518263ffffffff1660e01b81526004016132de9190616219565b600060405180830381600087803b1580156132f857600080fd5b505af115801561330c573d6000803e3d6000fd5b5050505050565b600d5481565b600080600080600080600080600860009054906101000a900473ffffffffffffffffffffffffffffffffffffffff1673ffffffffffffffffffffffffffffffffffffffff16635183d6fd8a6040518263ffffffff1660e01b81526004016133809190616219565b6101006040518083038186803b15801561339957600080fd5b505afa1580156133ad573d6000803e3d6000fd5b505050506040513d601f19601f820116820180604052508101906133d191906157f4565b97509750975097509750975097509750919395975091939597565b6133f461370e565b73ffffffffffffffffffffffffffffffffffffffff166134126124fc565b73ffffffffffffffffffffffffffffffffffffffff1614613468576040517f08c379a000000000000000000000000000000000000000000000000000000000815260040161345f906161b9565b60405180910390fd5b600073ffffffffffffffffffffffffffffffffffffffff168173ffffffffffffffffffffffffffffffffffffffff1614156134d8576040517f08c379a00000000000000000000000000000000000000000000000000000000081526004016134cf90616079565b60405180910390fd5b6134e181614353565b50565b600e5481565b600960009054906101000a900473ffffffffffffffffffffffffffffffffffffffff1681565b60135481565b600080828461352591906163d1565b90508381101561356a576040517f08c379a0000000000000000000000000000000000000000000000000000000008152600401613561906160f9565b60405180910390fd5b8091505092915050565b60008083141561358757600090506135e9565b600082846135959190616458565b90508284826135a49190616427565b146135e4576040517f08c379a00000000000000000000000000000000000000000000000000000000081526004016135db90616199565b60405180910390fd5b809150505b92915050565b600061363183836040518060400160405280601a81526020017f536166654d6174683a206469766973696f6e206279207a65726f000000000000815250614b6c565b905092915050565b60006040517f3d602d80600a3d3981f3363d3d373d3d3d363d7300000000000000000000000081528260601b60148201527f5af43d82803e903d91602b57fd5bf3000000000000000000000000000000000060288201526037816000f0915050600073ffffffffffffffffffffffffffffffffffffffff168173ffffffffffffffffffffffffffffffffffffffff161415613709576040517f08c379a000000000000000000000000000000000000000000000000000000000815260040161370090616159565b60405180910390fd5b919050565b600033905090565b600073ffffffffffffffffffffffffffffffffffffffff168373ffffffffffffffffffffffffffffffffffffffff161415613786576040517f08c379a000000000000000000000000000000000000000000000000000000000815260040161377d906161f9565b60405180910390fd5b600073ffffffffffffffffffffffffffffffffffffffff168273ffffffffffffffffffffffffffffffffffffffff1614156137f6576040517f08c379a00000000000000000000000000000000000000000000000000000000081526004016137ed90616099565b60405180910390fd5b80600160008573ffffffffffffffffffffffffffffffffffffffff1673ffffffffffffffffffffffffffffffffffffffff16815260200190815260200160002060008473ffffffffffffffffffffffffffffffffffffffff1673ffffffffffffffffffffffffffffffffffffffff168152602001908152602001600020819055508173ffffffffffffffffffffffffffffffffffffffff168373ffffffffffffffffffffffffffffffffffffffff167f8c5be1e5ebec7d5bd14f71427d1e84f3dd0314c0f7b2291e5b200ac8c7c3b925836040516138d49190616219565b60405180910390a3505050565b600073ffffffffffffffffffffffffffffffffffffffff168373ffffffffffffffffffffffffffffffffffffffff161415613951576040517f08c379a0000000000000000000000000000000000000000000000000000000008152600401613948906161d9565b60405180910390fd5b600073ffffffffffffffffffffffffffffffffffffffff168273ffffffffffffffffffffffffffffffffffffffff1614156139c1576040517f08c379a00000000000000000000000000000000000000000000000000000000081526004016139b890616039565b60405180910390fd5b601860008473ffffffffffffffffffffffffffffffffffffffff1673ffffffffffffffffffffffffffffffffffffffff16815260200190815260200160002060009054906101000a900460ff16158015613a655750601860008373ffffffffffffffffffffffffffffffffffffffff1673ffffffffffffffffffffffffffffffffffffffff16815260200190815260200160002060009054906101000a900460ff16155b613aa4576040517f08c379a0000000000000000000000000000000000000000000000000000000008152600401613a9b90616139565b60405180910390fd5b6000811415613abe57613ab983836000614bcf565b6142ea565b6000613ac9306121d9565b90506000600a548210159050808015613aef5750600760149054906101000a900460ff16155b8015613b455750601b60008673ffffffffffffffffffffffffffffffffffffffff1673ffffffffffffffffffffffffffffffffffffffff16815260200190815260200160002060009054906101000a900460ff16155b8015613b845750613b546124fc565b73ffffffffffffffffffffffffffffffffffffffff168573ffffffffffffffffffffffffffffffffffffffff1614155b8015613bc35750613b936124fc565b73ffffffffffffffffffffffffffffffffffffffff168473ffffffffffffffffffffffffffffffffffffffff1614155b15613c44576001600760146101000a81548160ff02191690831515021790555060006015541115613bfa57613bf9601554614908565b5b60006013541115613c1157613c106013546145e1565b5b60006014541115613c2857613c27601454614695565b5b6000600760146101000a81548160ff0219169083151502179055505b6000600760149054906101000a900460ff16159050601a60008773ffffffffffffffffffffffffffffffffffffffff1673ffffffffffffffffffffffffffffffffffffffff16815260200190815260200160002060009054906101000a900460ff1680613cfa5750601a60008673ffffffffffffffffffffffffffffffffffffffff1673ffffffffffffffffffffffffffffffffffffffff16815260200190815260200160002060009054906101000a900460ff165b15613d0457600090505b801561407f576000806000806000601b60008c73ffffffffffffffffffffffffffffffffffffffff1673ffffffffffffffffffffffffffffffffffffffff16815260200190815260200160002060009054906101000a900460ff1615613e9157613d8c6064613d7e600d548c61357490919063ffffffff16565b6135ef90919063ffffffff16565b93508360136000828254613da091906163d1565b92505081905550613dcf6064613dc1600b548c61357490919063ffffffff16565b6135ef90919063ffffffff16565b92508260146000828254613de391906163d1565b92505081905550613e126064613e04600f548c61357490919063ffffffff16565b6135ef90919063ffffffff16565b91508160156000828254613e2691906163d1565b92505081905550613e556064613e476011548c61357490919063ffffffff16565b6135ef90919063ffffffff16565b9050613e8e81613e8084613e72878961351690919063ffffffff16565b61351690919063ffffffff16565b61351690919063ffffffff16565b94505b601b60008b73ffffffffffffffffffffffffffffffffffffffff1673ffffffffffffffffffffffffffffffffffffffff16815260200190815260200160002060009054906101000a900460ff161561401057613f0b6064613efd600e548c61357490919063ffffffff16565b6135ef90919063ffffffff16565b93508360136000828254613f1f91906163d1565b92505081905550613f4e6064613f40600c548c61357490919063ffffffff16565b6135ef90919063ffffffff16565b92508260146000828254613f6291906163d1565b92505081905550613f916064613f836010548c61357490919063ffffffff16565b6135ef90919063ffffffff16565b91508160156000828254613fa591906163d1565b92505081905550613fd46064613fc66012548c61357490919063ffffffff16565b6135ef90919063ffffffff16565b905061400d81613fff84613ff1878961351690919063ffffffff16565b61351690919063ffffffff16565b61351690919063ffffffff16565b94505b614023858a614e6490919063ffffffff16565b9850600081111561405c5761405b8b601760009054906101000a900473ffffffffffffffffffffffffffffffffffffffff1683614bcf565b5b6140798b306140748489614e6490919063ffffffff16565b614bcf565b50505050505b61408a868686614bcf565b600860009054906101000a900473ffffffffffffffffffffffffffffffffffffffff1673ffffffffffffffffffffffffffffffffffffffff1663e30443bc876140d2896121d9565b6040518363ffffffff1660e01b81526004016140ef929190615e1a565b600060405180830381600087803b15801561410957600080fd5b505af192505050801561411a575060015b61412357614124565b5b600860009054906101000a900473ffffffffffffffffffffffffffffffffffffffff1673ffffffffffffffffffffffffffffffffffffffff1663e30443bc8661416c886121d9565b6040518363ffffffff1660e01b8152600401614189929190615e1a565b600060405180830381600087803b1580156141a357600080fd5b505af19250505080156141b4575060015b6141bd576141be565b5b600760149054906101000a900460ff166142e65760006019549050600860009054906101000a900473ffffffffffffffffffffffffffffffffffffffff1673ffffffffffffffffffffffffffffffffffffffff1663ffb2c479826040518263ffffffff1660e01b81526004016142349190616219565b606060405180830381600087803b15801561424e57600080fd5b505af192505050801561427f57506040513d601f19601f8201168201806040525081019061427c91906159b5565b60015b614288576142e4565b3273ffffffffffffffffffffffffffffffffffffffff16600115157fc864333d6121033635ab41b29ae52f10a22cf4438c3e4f1c4c68518feb2f8a98858585896040516142d894939291906162ee565b60405180910390a35050505b505b5050505b505050565b6000838311158290614337576040517f08c379a000000000000000000000000000000000000000000000000000000000815260040161432e9190615ff7565b60405180910390fd5b506000838561434691906164b2565b9050809150509392505050565b6000600560009054906101000a900473ffffffffffffffffffffffffffffffffffffffff16905081600560006101000a81548173ffffffffffffffffffffffffffffffffffffffff021916908373ffffffffffffffffffffffffffffffffffffffff1602179055508173ffffffffffffffffffffffffffffffffffffffff168173ffffffffffffffffffffffffffffffffffffffff167f8be0079c531659141344cd1fd0a4f28419497f9722a3daafe3b4186f6b6457e060405160405180910390a35050565b801515601b60008473ffffffffffffffffffffffffffffffffffffffff1673ffffffffffffffffffffffffffffffffffffffff16815260200190815260200160002060009054906101000a900460ff16151514156144ac576040517f08c379a00000000000000000000000000000000000000000000000000000000081526004016144a3906160b9565b60405180910390fd5b80601b60008473ffffffffffffffffffffffffffffffffffffffff1673ffffffffffffffffffffffffffffffffffffffff16815260200190815260200160002060006101000a81548160ff021916908315150217905550801561459757600860009054906101000a900473ffffffffffffffffffffffffffffffffffffffff1673ffffffffffffffffffffffffffffffffffffffff166331e79db0836040518263ffffffff1660e01b81526004016145649190615dd6565b600060405180830381600087803b15801561457e57600080fd5b505af1158015614592573d6000803e3d6000fd5b505050505b8015158273ffffffffffffffffffffffffffffffffffffffff167fffa9187bf1f18bf477bd0ea1bcbb64e93b6a98132473929edfce215cd9b16fab60405160405180910390a35050565b60006145f76002836135ef90919063ffffffff16565b9050600061460e8284614e6490919063ffffffff16565b9050600047905061461e83614eae565b60006146338247614e6490919063ffffffff16565b905061463f8382615172565b8460135461464d91906164b2565b6013819055507f17bbfb9a6069321b6ded73bd96327c9e6b7212a5cd51ff219cd61370acafb561848285604051614686939291906162b7565b60405180910390a15050505050565b61469e81615260565b806014546146ac91906164b2565b6014819055506000600960009054906101000a900473ffffffffffffffffffffffffffffffffffffffff1673ffffffffffffffffffffffffffffffffffffffff166370a08231306040518263ffffffff1660e01b815260040161470f9190615dd6565b60206040518083038186803b15801561472757600080fd5b505afa15801561473b573d6000803e3d6000fd5b505050506040513d601f19601f8201168201806040525081019061475f919061598c565b90506000600960009054906101000a900473ffffffffffffffffffffffffffffffffffffffff1673ffffffffffffffffffffffffffffffffffffffff1663a9059cbb600860009054906101000a900473ffffffffffffffffffffffffffffffffffffffff16846040518363ffffffff1660e01b81526004016147e2929190615eea565b602060405180830381600087803b1580156147fc57600080fd5b505af1158015614810573d6000803e3d6000fd5b505050506040513d601f19601f82011682018060405250810190614834919061593a565b9050801561490357600860009054906101000a900473ffffffffffffffffffffffffffffffffffffffff1673ffffffffffffffffffffffffffffffffffffffff1663ba72a955836040518263ffffffff1660e01b81526004016148979190616219565b600060405180830381600087803b1580156148b157600080fd5b505af11580156148c5573d6000803e3d6000fd5b505050507f80195cc573b02cc48460cbca6e6e4cc85ddb91959d946e1c3025ea3d87942dc383836040516148fa92919061628e565b60405180910390a15b505050565b6000600960009054906101000a900473ffffffffffffffffffffffffffffffffffffffff1673ffffffffffffffffffffffffffffffffffffffff166370a08231306040518263ffffffff1660e01b81526004016149659190615dd6565b60206040518083038186803b15801561497d57600080fd5b505afa158015614991573d6000803e3d6000fd5b505050506040513d601f19601f820116820180604052508101906149b5919061598c565b90506149c082615260565b6000614a7f82600960009054906101000a900473ffffffffffffffffffffffffffffffffffffffff1673ffffffffffffffffffffffffffffffffffffffff166370a08231306040518263ffffffff1660e01b8152600401614a219190615dd6565b60206040518083038186803b158015614a3957600080fd5b505afa158015614a4d573d6000803e3d6000fd5b505050506040513d601f19601f82011682018060405250810190614a71919061598c565b614e6490919063ffffffff16565b9050600960009054906101000a900473ffffffffffffffffffffffffffffffffffffffff1673ffffffffffffffffffffffffffffffffffffffff1663a9059cbb601660009054906101000a900473ffffffffffffffffffffffffffffffffffffffff16836040518363ffffffff1660e01b8152600401614b00929190615eea565b602060405180830381600087803b158015614b1a57600080fd5b505af1158015614b2e573d6000803e3d6000fd5b505050506040513d601f19601f82011682018060405250810190614b52919061593a565b5082601554614b6191906164b2565b601581905550505050565b60008083118290614bb3576040517f08c379a0000000000000000000000000000000000000000000000000000000008152600401614baa9190615ff7565b60405180910390fd5b5060008385614bc29190616427565b9050809150509392505050565b600073ffffffffffffffffffffffffffffffffffffffff168373ffffffffffffffffffffffffffffffffffffffff161415614c3f576040517f08c379a0000000000000000000000000000000000000000000000000000000008152600401614c36906161d9565b60405180910390fd5b600073ffffffffffffffffffffffffffffffffffffffff168273ffffffffffffffffffffffffffffffffffffffff161415614caf576040517f08c379a0000000000000000000000000000000000000000000000000000000008152600401614ca690616039565b60405180910390fd5b614cba8383836155bb565b614d2581604051806060016040528060268152602001616bc9602691396000808773ffffffffffffffffffffffffffffffffffffffff1673ffffffffffffffffffffffffffffffffffffffff168152602001908152602001600020546142ef9092919063ffffffff16565b6000808573ffffffffffffffffffffffffffffffffffffffff1673ffffffffffffffffffffffffffffffffffffffff16815260200190815260200160002081905550614db8816000808573ffffffffffffffffffffffffffffffffffffffff1673ffffffffffffffffffffffffffffffffffffffff1681526020019081526020016000205461351690919063ffffffff16565b6000808473ffffffffffffffffffffffffffffffffffffffff1673ffffffffffffffffffffffffffffffffffffffff168152602001908152602001600020819055508173ffffffffffffffffffffffffffffffffffffffff168373ffffffffffffffffffffffffffffffffffffffff167fddf252ad1be2c89b69c2b068fc378daa952ba7f163c4a11628f55a4df523b3ef83604051614e579190616219565b60405180910390a3505050565b6000614ea683836040518060400160405280601e81526020017f536166654d6174683a207375627472616374696f6e206f766572666c6f7700008152506142ef565b905092915050565b6000600267ffffffffffffffff811115614ef1577f4e487b7100000000000000000000000000000000000000000000000000000000600052604160045260246000fd5b604051908082528060200260200182016040528015614f1f5781602001602082028036833780820191505090505b5090503081600081518110614f5d577f4e487b7100000000000000000000000000000000000000000000000000000000600052603260045260246000fd5b602002602001019073ffffffffffffffffffffffffffffffffffffffff16908173ffffffffffffffffffffffffffffffffffffffff1681525050600660009054906101000a900473ffffffffffffffffffffffffffffffffffffffff1673ffffffffffffffffffffffffffffffffffffffff1663ad5c46486040518163ffffffff1660e01b815260040160206040518083038186803b158015614fff57600080fd5b505afa158015615013573d6000803e3d6000fd5b505050506040513d601f19601f8201168201806040525081019061503791906156db565b81600181518110615071577f4e487b7100000000000000000000000000000000000000000000000000000000600052603260045260246000fd5b602002602001019073ffffffffffffffffffffffffffffffffffffffff16908173ffffffffffffffffffffffffffffffffffffffff16815250506150d830600660009054906101000a900473ffffffffffffffffffffffffffffffffffffffff1684613716565b600660009054906101000a900473ffffffffffffffffffffffffffffffffffffffff1673ffffffffffffffffffffffffffffffffffffffff1663791ac9478360008430426040518663ffffffff1660e01b815260040161513c959493929190616234565b600060405180830381600087803b15801561515657600080fd5b505af115801561516a573d6000803e3d6000fd5b505050505050565b61519f30600660009054906101000a900473ffffffffffffffffffffffffffffffffffffffff1684613716565b600660009054906101000a900473ffffffffffffffffffffffffffffffffffffffff1673ffffffffffffffffffffffffffffffffffffffff1663f305d7198230856000806000426040518863ffffffff1660e01b815260040161520796959493929190615f13565b6060604051808303818588803b15801561522057600080fd5b505af1158015615234573d6000803e3d6000fd5b50505050506040513d601f19601f8201168201806040525081019061525991906159b5565b5050505050565b6000600367ffffffffffffffff8111156152a3577f4e487b7100000000000000000000000000000000000000000000000000000000600052604160045260246000fd5b6040519080825280602002602001820160405280156152d15781602001602082028036833780820191505090505b509050308160008151811061530f577f4e487b7100000000000000000000000000000000000000000000000000000000600052603260045260246000fd5b602002602001019073ffffffffffffffffffffffffffffffffffffffff16908173ffffffffffffffffffffffffffffffffffffffff1681525050600660009054906101000a900473ffffffffffffffffffffffffffffffffffffffff1673ffffffffffffffffffffffffffffffffffffffff1663ad5c46486040518163ffffffff1660e01b815260040160206040518083038186803b1580156153b157600080fd5b505afa1580156153c5573d6000803e3d6000fd5b505050506040513d601f19601f820116820180604052508101906153e991906156db565b81600181518110615423577f4e487b7100000000000000000000000000000000000000000000000000000000600052603260045260246000fd5b602002602001019073ffffffffffffffffffffffffffffffffffffffff16908173ffffffffffffffffffffffffffffffffffffffff1681525050600960009054906101000a900473ffffffffffffffffffffffffffffffffffffffff16816002815181106154ba577f4e487b7100000000000000000000000000000000000000000000000000000000600052603260045260246000fd5b602002602001019073ffffffffffffffffffffffffffffffffffffffff16908173ffffffffffffffffffffffffffffffffffffffff168152505061552130600660009054906101000a900473ffffffffffffffffffffffffffffffffffffffff1684613716565b600660009054906101000a900473ffffffffffffffffffffffffffffffffffffffff1673ffffffffffffffffffffffffffffffffffffffff16635c11d7958360008430426040518663ffffffff1660e01b8152600401615585959493929190616234565b600060405180830381600087803b15801561559f57600080fd5b505af11580156155b3573d6000803e3d6000fd5b505050505050565b505050565b6000813590506155cf81616b55565b92915050565b6000815190506155e481616b55565b92915050565b6000813590506155f981616b6c565b92915050565b60008083601f84011261561157600080fd5b8235905067ffffffffffffffff81111561562a57600080fd5b60208301915083602082028301111561564257600080fd5b9250929050565b60008135905061565881616b83565b92915050565b60008151905061566d81616b83565b92915050565b60008151905061568281616b9a565b92915050565b60008135905061569781616bb1565b92915050565b6000815190506156ac81616bb1565b92915050565b6000602082840312156156c457600080fd5b60006156d2848285016155c0565b91505092915050565b6000602082840312156156ed57600080fd5b60006156fb848285016155d5565b91505092915050565b60006020828403121561571657600080fd5b6000615724848285016155ea565b91505092915050565b6000806040838503121561574057600080fd5b600061574e858286016155c0565b925050602061575f858286016155c0565b9150509250929050565b60008060006060848603121561577e57600080fd5b600061578c868287016155c0565b935050602061579d868287016155c0565b92505060406157ae86828701615688565b9150509250925092565b600080604083850312156157cb57600080fd5b60006157d9858286016155c0565b92505060206157ea85828601615649565b9150509250929050565b600080600080600080600080610100898b03121561581157600080fd5b600061581f8b828c016155d5565b98505060206158308b828c01615673565b97505060406158418b828c01615673565b96505060606158528b828c0161569d565b95505060806158638b828c0161569d565b94505060a06158748b828c0161569d565b93505060c06158858b828c0161569d565b92505060e06158968b828c0161569d565b9150509295985092959890939650565b600080604083850312156158b957600080fd5b60006158c7858286016155c0565b92505060206158d885828601615688565b9150509250929050565b6000806000604084860312156158f757600080fd5b600084013567ffffffffffffffff81111561591157600080fd5b61591d868287016155ff565b9350935050602061593086828701615649565b9150509250925092565b60006020828403121561594c57600080fd5b600061595a8482850161565e565b91505092915050565b60006020828403121561597557600080fd5b600061598384828501615688565b91505092915050565b60006020828403121561599e57600080fd5b60006159ac8482850161569d565b91505092915050565b6000806000606084860312156159ca57600080fd5b60006159d88682870161569d565b93505060206159e98682870161569d565b92505060406159fa8682870161569d565b9150509250925092565b6000615a108383615a2b565b60208301905092915050565b615a25816164f8565b82525050565b615a34816164e6565b82525050565b615a43816164e6565b82525050565b6000615a558385616398565b9350615a608261634e565b8060005b85811015615a9957615a7682846163ba565b615a808882615a04565b9750615a8b8361637e565b925050600181019050615a64565b5085925050509392505050565b6000615ab182616368565b615abb8185616398565b9350615ac683616358565b8060005b83811015615af7578151615ade8882615a04565b9750615ae98361638b565b925050600181019050615aca565b5085935050505092915050565b615b0d8161650a565b82525050565b615b1c81616557565b82525050565b615b2b8161657b565b82525050565b615b3a81616516565b82525050565b615b498161659f565b82525050565b6000615b5a82616373565b615b6481856163a9565b9350615b748185602086016165b1565b615b7d816166ec565b840191505092915050565b6000615b956045836163a9565b9150615ba0826166fd565b606082019050919050565b6000615bb86023836163a9565b9150615bc382616772565b604082019050919050565b6000615bdb6034836163a9565b9150615be6826167c1565b604082019050919050565b6000615bfe6026836163a9565b9150615c0982616810565b604082019050919050565b6000615c216022836163a9565b9150615c2c8261685f565b604082019050919050565b6000615c446038836163a9565b9150615c4f826168ae565b604082019050919050565b6000615c67602c836163a9565b9150615c72826168fd565b604082019050919050565b6000615c8a601b836163a9565b9150615c958261694c565b602082019050919050565b6000615cad6023836163a9565b9150615cb882616975565b604082019050919050565b6000615cd0600d836163a9565b9150615cdb826169c4565b602082019050919050565b6000615cf36016836163a9565b9150615cfe826169ed565b602082019050919050565b6000615d166012836163a9565b9150615d2182616a16565b602082019050919050565b6000615d396021836163a9565b9150615d4482616a3f565b604082019050919050565b6000615d5c6020836163a9565b9150615d6782616a8e565b602082019050919050565b6000615d7f6025836163a9565b9150615d8a82616ab7565b604082019050919050565b6000615da26024836163a9565b9150615dad82616b06565b604082019050919050565b615dc181616540565b82525050565b615dd08161654a565b82525050565b6000602082019050615deb6000830184615a3a565b92915050565b6000604082019050615e066000830185615a1c565b615e136020830184615b04565b9392505050565b6000604082019050615e2f6000830185615a1c565b615e3c6020830184615db8565b9392505050565b6000604082019050615e586000830185615a3a565b615e656020830184615a3a565b9392505050565b600061010082019050615e82600083018b615a3a565b615e8f602083018a615b31565b615e9c6040830189615b31565b615ea96060830188615db8565b615eb66080830187615db8565b615ec360a0830186615db8565b615ed060c0830185615db8565b615edd60e0830184615db8565b9998505050505050505050565b6000604082019050615eff6000830185615a3a565b615f0c6020830184615db8565b9392505050565b600060c082019050615f286000830189615a3a565b615f356020830188615db8565b615f426040830187615b40565b615f4f6060830186615b40565b615f5c6080830185615a3a565b615f6960a0830184615db8565b979650505050505050565b60006040820190508181036000830152615f8f818587615a49565b9050615f9e6020830184615b04565b949350505050565b6000602082019050615fbb6000830184615b04565b92915050565b6000602082019050615fd66000830184615b13565b92915050565b6000602082019050615ff16000830184615b22565b92915050565b600060208201905081810360008301526160118184615b4f565b905092915050565b6000602082019050818103600083015261603281615b88565b9050919050565b6000602082019050818103600083015261605281615bab565b9050919050565b6000602082019050818103600083015261607281615bce565b9050919050565b6000602082019050818103600083015261609281615bf1565b9050919050565b600060208201905081810360008301526160b281615c14565b9050919050565b600060208201905081810360008301526160d281615c37565b9050919050565b600060208201905081810360008301526160f281615c5a565b9050919050565b6000602082019050818103600083015261611281615c7d565b9050919050565b6000602082019050818103600083015261613281615ca0565b9050919050565b6000602082019050818103600083015261615281615cc3565b9050919050565b6000602082019050818103600083015261617281615ce6565b9050919050565b6000602082019050818103600083015261619281615d09565b9050919050565b600060208201905081810360008301526161b281615d2c565b9050919050565b600060208201905081810360008301526161d281615d4f565b9050919050565b600060208201905081810360008301526161f281615d72565b9050919050565b6000602082019050818103600083015261621281615d95565b9050919050565b600060208201905061622e6000830184615db8565b92915050565b600060a0820190506162496000830188615db8565b6162566020830187615b40565b81810360408301526162688186615aa6565b90506162776060830185615a3a565b6162846080830184615db8565b9695505050505050565b60006040820190506162a36000830185615db8565b6162b06020830184615db8565b9392505050565b60006060820190506162cc6000830186615db8565b6162d96020830185615db8565b6162e66040830184615db8565b949350505050565b60006080820190506163036000830187615db8565b6163106020830186615db8565b61631d6040830185615db8565b61632a6060830184615db8565b95945050505050565b60006020820190506163486000830184615dc7565b92915050565b6000819050919050565b6000819050602082019050919050565b600081519050919050565b600081519050919050565b6000602082019050919050565b6000602082019050919050565b600082825260208201905092915050565b600082825260208201905092915050565b60006163c960208401846155c0565b905092915050565b60006163dc82616540565b91506163e783616540565b9250827fffffffffffffffffffffffffffffffffffffffffffffffffffffffffffffffff0382111561641c5761641b61665f565b5b828201905092915050565b600061643282616540565b915061643d83616540565b92508261644d5761644c61668e565b5b828204905092915050565b600061646382616540565b915061646e83616540565b9250817fffffffffffffffffffffffffffffffffffffffffffffffffffffffffffffffff04831182151516156164a7576164a661665f565b5b828202905092915050565b60006164bd82616540565b91506164c883616540565b9250828210156164db576164da61665f565b5b828203905092915050565b60006164f182616520565b9050919050565b600061650382616520565b9050919050565b60008115159050919050565b6000819050919050565b600073ffffffffffffffffffffffffffffffffffffffff82169050919050565b6000819050919050565b600060ff82169050919050565b600061656282616569565b9050919050565b600061657482616520565b9050919050565b60006165868261658d565b9050919050565b600061659882616520565b9050919050565b60006165aa82616540565b9050919050565b60005b838110156165cf5780820151818401526020810190506165b4565b838111156165de576000848401525b50505050565b600060028204905060018216806165fc57607f821691505b602082108114156166105761660f6166bd565b5b50919050565b600061662182616540565b91507fffffffffffffffffffffffffffffffffffffffffffffffffffffffffffffffff8214156166545761665361665f565b5b600182019050919050565b7f4e487b7100000000000000000000000000000000000000000000000000000000600052601160045260246000fd5b7f4e487b7100000000000000000000000000000000000000000000000000000000600052601260045260246000fd5b7f4e487b7100000000000000000000000000000000000000000000000000000000600052602260045260246000fd5b6000601f19601f8301169050919050565b7f5468652050616e63616b655377617020706169722063616e6e6f74206265207260008201527f656d6f7665642066726f6d206175746f6d617465644d61726b65744d616b657260208201527f5061697273000000000000000000000000000000000000000000000000000000604082015250565b7f45524332303a207472616e7366657220746f20746865207a65726f206164647260008201527f6573730000000000000000000000000000000000000000000000000000000000602082015250565b7f476173466f7250726f63657373696e67206d757374206265206265747765656e60008201527f203230302c30303020616e64203530302c303030000000000000000000000000602082015250565b7f4f776e61626c653a206e6577206f776e657220697320746865207a65726f206160008201527f6464726573730000000000000000000000000000000000000000000000000000602082015250565b7f45524332303a20617070726f766520746f20746865207a65726f20616464726560008201527f7373000000000000000000000000000000000000000000000000000000000000602082015250565b7f4175746f6d61746564206d61726b6574206d616b65722070616972206973206160008201527f6c72656164792073657420746f20746861742076616c75650000000000000000602082015250565b7f43616e6e6f742075706461746520676173466f7250726f63657373696e67207460008201527f6f2073616d652076616c75650000000000000000000000000000000000000000602082015250565b7f536166654d6174683a206164646974696f6e206f766572666c6f770000000000600082015250565b7f54686520726f7574657220616c7265616479206861732074686174206164647260008201527f6573730000000000000000000000000000000000000000000000000000000000602082015250565b7f456e656d79206164647265737300000000000000000000000000000000000000600082015250565b7f455243313136373a20637265617465206661696c656400000000000000000000600082015250565b7f746f6b656e2062616c616e6365207a65726f0000000000000000000000000000600082015250565b7f536166654d6174683a206d756c7469706c69636174696f6e206f766572666c6f60008201527f7700000000000000000000000000000000000000000000000000000000000000602082015250565b7f4f776e61626c653a2063616c6c6572206973206e6f7420746865206f776e6572600082015250565b7f45524332303a207472616e736665722066726f6d20746865207a65726f20616460008201527f6472657373000000000000000000000000000000000000000000000000000000602082015250565b7f45524332303a20617070726f76652066726f6d20746865207a65726f2061646460008201527f7265737300000000000000000000000000000000000000000000000000000000602082015250565b616b5e816164e6565b8114616b6957600080fd5b50565b616b75816164f8565b8114616b8057600080fd5b50565b616b8c8161650a565b8114616b9757600080fd5b50565b616ba381616516565b8114616bae57600080fd5b50565b616bba81616540565b8114616bc557600080fd5b5056fe45524332303a207472616e7366657220616d6f756e7420657863656564732062616c616e636545524332303a207472616e7366657220616d6f756e74206578636565647320616c6c6f77616e636545524332303a2064656372656173656420616c6c6f77616e63652062656c6f77207a65726fa2646970667358221220f87efd48d59c4e2053223b687d6189ace21b74e9b8d4d43e1b340c4857c4d22764736f6c63430008040033",
  "linkReferences": {},
  "deployedLinkReferences": {}
}