{
  "_format": "hh-sol-artifact-1",
  "contractName": "Reward",
  "sourceName": "contracts/RewardToken.sol",
  "abi": [
    {
      "inputs": [],
      "stateMutability": "nonpayable",
      "type": "constructor"
    },
    {
      "anonymous": false,
      "inputs": [
        {
          "indexed": true,
          "internalType": "address",
          "name": "owner",
          "type": "address"
        },
        {
          "indexed": true,
          "internalType": "address",
          "name": "spender",
          "type": "address"
        },
        {
          "indexed": false,
          "internalType": "uint256",
          "name": "value",
          "type": "uint256"
        }
      ],
      "name": "Approval",
      "type": "event"
    },
    {
      "anonymous": false,
      "inputs": [
        {
          "indexed": true,
          "internalType": "address",
          "name": "previousOwner",
          "type": "address"
        },
        {
          "indexed": true,
          "internalType": "address",
          "name": "newOwner",
          "type": "address"
        }
      ],
      "name": "OwnershipTransferred",
      "type": "event"
    },
    {
      "anonymous": false,
      "inputs": [
        {
          "indexed": true,
          "internalType": "address",
          "name": "from",
          "type": "address"
        },
        {
          "indexed": true,
          "internalType": "address",
          "name": "to",
          "type": "address"
        },
        {
          "indexed": false,
          "internalType": "uint256",
          "name": "value",
          "type": "uint256"
        }
      ],
      "name": "Transfer",
      "type": "event"
    },
    {
      "inputs": [
        {
          "internalType": "address",
          "name": "controller",
          "type": "address"
        }
      ],
      "name": "addController",
      "outputs": [],
      "stateMutability": "nonpayable",
      "type": "function"
    },
    {
      "inputs": [
        {
          "internalType": "address",
          "name": "owner",
          "type": "address"
        },
        {
          "internalType": "address",
          "name": "spender",
          "type": "address"
        }
      ],
      "name": "allowance",
      "outputs": [
        {
          "internalType": "uint256",
          "name": "",
          "type": "uint256"
        }
      ],
      "stateMutability": "view",
      "type": "function"
    },
    {
      "inputs": [
        {
          "internalType": "address",
          "name": "spender",
          "type": "address"
        },
        {
          "internalType": "uint256",
          "name": "amount",
          "type": "uint256"
        }
      ],
      "name": "approve",
      "outputs": [
        {
          "internalType": "bool",
          "name": "",
          "type": "bool"
        }
      ],
      "stateMutability": "nonpayable",
      "type": "function"
    },
    {
      "inputs": [
        {
          "internalType": "address",
          "name": "account",
          "type": "address"
        }
      ],
      "name": "balanceOf",
      "outputs": [
        {
          "internalType": "uint256",
          "name": "",
          "type": "uint256"
        }
      ],
      "stateMutability": "view",
      "type": "function"
    },
    {
      "inputs": [
        {
          "internalType": "uint256",
          "name": "amount",
          "type": "uint256"
        }
      ],
      "name": "burn",
      "outputs": [],
      "stateMutability": "nonpayable",
      "type": "function"
    },
    {
      "inputs": [
        {
          "internalType": "address",
          "name": "account",
          "type": "address"
        },
        {
          "internalType": "uint256",
          "name": "amount",
          "type": "uint256"
        }
      ],
      "name": "burnFrom",
      "outputs": [],
      "stateMutability": "nonpayable",
      "type": "function"
    },
    {
      "inputs": [
        {
          "internalType": "address",
          "name": "",
          "type": "address"
        }
      ],
      "name": "controllers",
      "outputs": [
        {
          "internalType": "bool",
          "name": "",
          "type": "bool"
        }
      ],
      "stateMutability": "view",
      "type": "function"
    },
    {
      "inputs": [],
      "name": "decimals",
      "outputs": [
        {
          "internalType": "uint8",
          "name": "",
          "type": "uint8"
        }
      ],
      "stateMutability": "view",
      "type": "function"
    },
    {
      "inputs": [
        {
          "internalType": "address",
          "name": "spender",
          "type": "address"
        },
        {
          "internalType": "uint256",
          "name": "subtractedValue",
          "type": "uint256"
        }
      ],
      "name": "decreaseAllowance",
      "outputs": [
        {
          "internalType": "bool",
          "name": "",
          "type": "bool"
        }
      ],
      "stateMutability": "nonpayable",
      "type": "function"
    },
    {
      "inputs": [
        {
          "internalType": "address",
          "name": "spender",
          "type": "address"
        },
        {
          "internalType": "uint256",
          "name": "addedValue",
          "type": "uint256"
        }
      ],
      "name": "increaseAllowance",
      "outputs": [
        {
          "internalType": "bool",
          "name": "",
          "type": "bool"
        }
      ],
      "stateMutability": "nonpayable",
      "type": "function"
    },
    {
      "inputs": [
        {
          "internalType": "address",
          "name": "to",
          "type": "address"
        },
        {
          "internalType": "uint256",
          "name": "amount",
          "type": "uint256"
        }
      ],
      "name": "mint",
      "outputs": [],
      "stateMutability": "nonpayable",
      "type": "function"
    },
    {
      "inputs": [],
      "name": "name",
      "outputs": [
        {
          "internalType": "string",
          "name": "",
          "type": "string"
        }
      ],
      "stateMutability": "view",
      "type": "function"
    },
    {
      "inputs": [],
      "name": "owner",
      "outputs": [
        {
          "internalType": "address",
          "name": "",
          "type": "address"
        }
      ],
      "stateMutability": "view",
      "type": "function"
    },
    {
      "inputs": [
        {
          "internalType": "address",
          "name": "controller",
          "type": "address"
        }
      ],
      "name": "removeController",
      "outputs": [],
      "stateMutability": "nonpayable",
      "type": "function"
    },
    {
      "inputs": [],
      "name": "renounceOwnership",
      "outputs": [],
      "stateMutability": "nonpayable",
      "type": "function"
    },
    {
      "inputs": [],
      "name": "symbol",
      "outputs": [
        {
          "internalType": "string",
          "name": "",
          "type": "string"
        }
      ],
      "stateMutability": "view",
      "type": "function"
    },
    {
      "inputs": [],
      "name": "totalSupply",
      "outputs": [
        {
          "internalType": "uint256",
          "name": "",
          "type": "uint256"
        }
      ],
      "stateMutability": "view",
      "type": "function"
    },
    {
      "inputs": [
        {
          "internalType": "address",
          "name": "to",
          "type": "address"
        },
        {
          "internalType": "uint256",
          "name": "amount",
          "type": "uint256"
        }
      ],
      "name": "transfer",
      "outputs": [
        {
          "internalType": "bool",
          "name": "",
          "type": "bool"
        }
      ],
      "stateMutability": "nonpayable",
      "type": "function"
    },
    {
      "inputs": [
        {
          "internalType": "address",
          "name": "from",
          "type": "address"
        },
        {
          "internalType": "address",
          "name": "to",
          "type": "address"
        },
        {
          "internalType": "uint256",
          "name": "amount",
          "type": "uint256"
        }
      ],
      "name": "transferFrom",
      "outputs": [
        {
          "internalType": "bool",
          "name": "",
          "type": "bool"
        }
      ],
      "stateMutability": "nonpayable",
      "type": "function"
    },
    {
      "inputs": [
        {
          "internalType": "address",
          "name": "newOwner",
          "type": "address"
        }
      ],
      "name": "transferOwnership",
      "outputs": [],
      "stateMutability": "nonpayable",
      "type": "function"
    }
  ],
  "bytecode": "0x60806040523480156200001157600080fd5b506040518060400160405280600681526020017f52657761726400000000000000000000000000000000000000000000000000008152506040518060400160405280600281526020017f5254000000000000000000000000000000000000000000000000000000000000815250816003908051906020019062000096929190620001a6565b508060049080519060200190620000af929190620001a6565b505050620000d2620000c6620000d860201b60201c565b620000e060201b60201c565b620002bb565b600033905090565b6000600560009054906101000a900473ffffffffffffffffffffffffffffffffffffffff16905081600560006101000a81548173ffffffffffffffffffffffffffffffffffffffff021916908373ffffffffffffffffffffffffffffffffffffffff1602179055508173ffffffffffffffffffffffffffffffffffffffff168173ffffffffffffffffffffffffffffffffffffffff167f8be0079c531659141344cd1fd0a4f28419497f9722a3daafe3b4186f6b6457e060405160405180910390a35050565b828054620001b49062000256565b90600052602060002090601f016020900481019282620001d8576000855562000224565b82601f10620001f357805160ff191683800117855562000224565b8280016001018555821562000224579182015b828111156200022357825182559160200191906001019062000206565b5b50905062000233919062000237565b5090565b5b808211156200025257600081600090555060010162000238565b5090565b600060028204905060018216806200026f57607f821691505b602082108114156200028657620002856200028c565b5b50919050565b7f4e487b7100000000000000000000000000000000000000000000000000000000600052602260045260246000fd5b611f9a80620002cb6000396000f3fe608060405234801561001057600080fd5b506004361061012c5760003560e01c806379cc6790116100ad578063a9059cbb11610071578063a9059cbb14610331578063da8c229e14610361578063dd62ed3e14610391578063f2fde38b146103c1578063f6a74ed7146103dd5761012c565b806379cc67901461028d5780638da5cb5b146102a957806395d89b41146102c7578063a457c2d7146102e5578063a7fc7a07146103155761012c565b806339509351116100f457806339509351146101eb57806340c10f191461021b57806342966c681461023757806370a0823114610253578063715018a6146102835761012c565b806306fdde0314610131578063095ea7b31461014f57806318160ddd1461017f57806323b872dd1461019d578063313ce567146101cd575b600080fd5b6101396103f9565b6040516101469190611804565b60405180910390f35b6101696004803603810190610164919061152d565b61048b565b60405161017691906117e9565b60405180910390f35b6101876104ae565b60405161019491906119c6565b60405180910390f35b6101b760048036038101906101b291906114de565b6104b8565b6040516101c491906117e9565b60405180910390f35b6101d56104e7565b6040516101e291906119e1565b60405180910390f35b6102056004803603810190610200919061152d565b6104f0565b60405161021291906117e9565b60405180910390f35b6102356004803603810190610230919061152d565b610527565b005b610251600480360381019061024c9190611569565b6105c1565b005b61026d60048036038101906102689190611479565b6105d5565b60405161027a91906119c6565b60405180910390f35b61028b61061d565b005b6102a760048036038101906102a2919061152d565b6106a5565b005b6102b16106c5565b6040516102be91906117ce565b60405180910390f35b6102cf6106ef565b6040516102dc9190611804565b60405180910390f35b6102ff60048036038101906102fa919061152d565b610781565b60405161030c91906117e9565b60405180910390f35b61032f600480360381019061032a9190611479565b6107f8565b005b61034b6004803603810190610346919061152d565b6108cf565b60405161035891906117e9565b60405180910390f35b61037b60048036038101906103769190611479565b6108f2565b60405161038891906117e9565b60405180910390f35b6103ab60048036038101906103a691906114a2565b610912565b6040516103b891906119c6565b60405180910390f35b6103db60048036038101906103d69190611479565b610999565b005b6103f760048036038101906103f29190611479565b610a91565b005b60606003805461040890611b2a565b80601f016020809104026020016040519081016040528092919081815260200182805461043490611b2a565b80156104815780601f1061045657610100808354040283529160200191610481565b820191906000526020600020905b81548152906001019060200180831161046457829003601f168201915b5050505050905090565b600080610496610b68565b90506104a3818585610b70565b600191505092915050565b6000600254905090565b6000806104c3610b68565b90506104d0858285610d3b565b6104db858585610dc7565b60019150509392505050565b60006012905090565b6000806104fb610b68565b905061051c81858561050d8589610912565b6105179190611a18565b610b70565b600191505092915050565b600660003373ffffffffffffffffffffffffffffffffffffffff1673ffffffffffffffffffffffffffffffffffffffff16815260200190815260200160002060009054906101000a900460ff166105b3576040517f08c379a00000000000000000000000000000000000000000000000000000000081526004016105aa906118e6565b60405180910390fd5b6105bd8282611048565b5050565b6105d26105cc610b68565b826111a8565b50565b60008060008373ffffffffffffffffffffffffffffffffffffffff1673ffffffffffffffffffffffffffffffffffffffff168152602001908152602001600020549050919050565b610625610b68565b73ffffffffffffffffffffffffffffffffffffffff166106436106c5565b73ffffffffffffffffffffffffffffffffffffffff1614610699576040517f08c379a000000000000000000000000000000000000000000000000000000000815260040161069090611906565b60405180910390fd5b6106a3600061137f565b565b6106b7826106b1610b68565b83610d3b565b6106c182826111a8565b5050565b6000600560009054906101000a900473ffffffffffffffffffffffffffffffffffffffff16905090565b6060600480546106fe90611b2a565b80601f016020809104026020016040519081016040528092919081815260200182805461072a90611b2a565b80156107775780601f1061074c57610100808354040283529160200191610777565b820191906000526020600020905b81548152906001019060200180831161075a57829003601f168201915b5050505050905090565b60008061078c610b68565b9050600061079a8286610912565b9050838110156107df576040517f08c379a00000000000000000000000000000000000000000000000000000000081526004016107d690611986565b60405180910390fd5b6107ec8286868403610b70565b60019250505092915050565b610800610b68565b73ffffffffffffffffffffffffffffffffffffffff1661081e6106c5565b73ffffffffffffffffffffffffffffffffffffffff1614610874576040517f08c379a000000000000000000000000000000000000000000000000000000000815260040161086b90611906565b60405180910390fd5b6001600660008373ffffffffffffffffffffffffffffffffffffffff1673ffffffffffffffffffffffffffffffffffffffff16815260200190815260200160002060006101000a81548160ff02191690831515021790555050565b6000806108da610b68565b90506108e7818585610dc7565b600191505092915050565b60066020528060005260406000206000915054906101000a900460ff1681565b6000600160008473ffffffffffffffffffffffffffffffffffffffff1673ffffffffffffffffffffffffffffffffffffffff16815260200190815260200160002060008373ffffffffffffffffffffffffffffffffffffffff1673ffffffffffffffffffffffffffffffffffffffff16815260200190815260200160002054905092915050565b6109a1610b68565b73ffffffffffffffffffffffffffffffffffffffff166109bf6106c5565b73ffffffffffffffffffffffffffffffffffffffff1614610a15576040517f08c379a0000000000000000000000000000000000000000000000000000000008152600401610a0c90611906565b60405180910390fd5b600073ffffffffffffffffffffffffffffffffffffffff168173ffffffffffffffffffffffffffffffffffffffff161415610a85576040517f08c379a0000000000000000000000000000000000000000000000000000000008152600401610a7c90611866565b60405180910390fd5b610a8e8161137f565b50565b610a99610b68565b73ffffffffffffffffffffffffffffffffffffffff16610ab76106c5565b73ffffffffffffffffffffffffffffffffffffffff1614610b0d576040517f08c379a0000000000000000000000000000000000000000000000000000000008152600401610b0490611906565b60405180910390fd5b6000600660008373ffffffffffffffffffffffffffffffffffffffff1673ffffffffffffffffffffffffffffffffffffffff16815260200190815260200160002060006101000a81548160ff02191690831515021790555050565b600033905090565b600073ffffffffffffffffffffffffffffffffffffffff168373ffffffffffffffffffffffffffffffffffffffff161415610be0576040517f08c379a0000000000000000000000000000000000000000000000000000000008152600401610bd790611966565b60405180910390fd5b600073ffffffffffffffffffffffffffffffffffffffff168273ffffffffffffffffffffffffffffffffffffffff161415610c50576040517f08c379a0000000000000000000000000000000000000000000000000000000008152600401610c4790611886565b60405180910390fd5b80600160008573ffffffffffffffffffffffffffffffffffffffff1673ffffffffffffffffffffffffffffffffffffffff16815260200190815260200160002060008473ffffffffffffffffffffffffffffffffffffffff1673ffffffffffffffffffffffffffffffffffffffff168152602001908152602001600020819055508173ffffffffffffffffffffffffffffffffffffffff168373ffffffffffffffffffffffffffffffffffffffff167f8c5be1e5ebec7d5bd14f71427d1e84f3dd0314c0f7b2291e5b200ac8c7c3b92583604051610d2e91906119c6565b60405180910390a3505050565b6000610d478484610912565b90507fffffffffffffffffffffffffffffffffffffffffffffffffffffffffffffffff8114610dc15781811015610db3576040517f08c379a0000000000000000000000000000000000000000000000000000000008152600401610daa906118a6565b60405180910390fd5b610dc08484848403610b70565b5b50505050565b600073ffffffffffffffffffffffffffffffffffffffff168373ffffffffffffffffffffffffffffffffffffffff161415610e37576040517f08c379a0000000000000000000000000000000000000000000000000000000008152600401610e2e90611946565b60405180910390fd5b600073ffffffffffffffffffffffffffffffffffffffff168273ffffffffffffffffffffffffffffffffffffffff161415610ea7576040517f08c379a0000000000000000000000000000000000000000000000000000000008152600401610e9e90611826565b60405180910390fd5b610eb2838383611445565b60008060008573ffffffffffffffffffffffffffffffffffffffff1673ffffffffffffffffffffffffffffffffffffffff16815260200190815260200160002054905081811015610f38576040517f08c379a0000000000000000000000000000000000000000000000000000000008152600401610f2f906118c6565b60405180910390fd5b8181036000808673ffffffffffffffffffffffffffffffffffffffff1673ffffffffffffffffffffffffffffffffffffffff16815260200190815260200160002081905550816000808573ffffffffffffffffffffffffffffffffffffffff1673ffffffffffffffffffffffffffffffffffffffff1681526020019081526020016000206000828254610fcb9190611a18565b925050819055508273ffffffffffffffffffffffffffffffffffffffff168473ffffffffffffffffffffffffffffffffffffffff167fddf252ad1be2c89b69c2b068fc378daa952ba7f163c4a11628f55a4df523b3ef8460405161102f91906119c6565b60405180910390a361104284848461144a565b50505050565b600073ffffffffffffffffffffffffffffffffffffffff168273ffffffffffffffffffffffffffffffffffffffff1614156110b8576040517f08c379a00000000000000000000000000000000000000000000000000000000081526004016110af906119a6565b60405180910390fd5b6110c460008383611445565b80600260008282546110d69190611a18565b92505081905550806000808473ffffffffffffffffffffffffffffffffffffffff1673ffffffffffffffffffffffffffffffffffffffff168152602001908152602001600020600082825461112b9190611a18565b925050819055508173ffffffffffffffffffffffffffffffffffffffff16600073ffffffffffffffffffffffffffffffffffffffff167fddf252ad1be2c89b69c2b068fc378daa952ba7f163c4a11628f55a4df523b3ef8360405161119091906119c6565b60405180910390a36111a46000838361144a565b5050565b600073ffffffffffffffffffffffffffffffffffffffff168273ffffffffffffffffffffffffffffffffffffffff161415611218576040517f08c379a000000000000000000000000000000000000000000000000000000000815260040161120f90611926565b60405180910390fd5b61122482600083611445565b60008060008473ffffffffffffffffffffffffffffffffffffffff1673ffffffffffffffffffffffffffffffffffffffff168152602001908152602001600020549050818110156112aa576040517f08c379a00000000000000000000000000000000000000000000000000000000081526004016112a190611846565b60405180910390fd5b8181036000808573ffffffffffffffffffffffffffffffffffffffff1673ffffffffffffffffffffffffffffffffffffffff1681526020019081526020016000208190555081600260008282546113019190611a6e565b92505081905550600073ffffffffffffffffffffffffffffffffffffffff168373ffffffffffffffffffffffffffffffffffffffff167fddf252ad1be2c89b69c2b068fc378daa952ba7f163c4a11628f55a4df523b3ef8460405161136691906119c6565b60405180910390a361137a8360008461144a565b505050565b6000600560009054906101000a900473ffffffffffffffffffffffffffffffffffffffff16905081600560006101000a81548173ffffffffffffffffffffffffffffffffffffffff021916908373ffffffffffffffffffffffffffffffffffffffff1602179055508173ffffffffffffffffffffffffffffffffffffffff168173ffffffffffffffffffffffffffffffffffffffff167f8be0079c531659141344cd1fd0a4f28419497f9722a3daafe3b4186f6b6457e060405160405180910390a35050565b505050565b505050565b60008135905061145e81611f36565b92915050565b60008135905061147381611f4d565b92915050565b60006020828403121561148b57600080fd5b60006114998482850161144f565b91505092915050565b600080604083850312156114b557600080fd5b60006114c38582860161144f565b92505060206114d48582860161144f565b9150509250929050565b6000806000606084860312156114f357600080fd5b60006115018682870161144f565b93505060206115128682870161144f565b925050604061152386828701611464565b9150509250925092565b6000806040838503121561154057600080fd5b600061154e8582860161144f565b925050602061155f85828601611464565b9150509250929050565b60006020828403121561157b57600080fd5b600061158984828501611464565b91505092915050565b61159b81611aa2565b82525050565b6115aa81611ab4565b82525050565b60006115bb826119fc565b6115c58185611a07565b93506115d5818560208601611af7565b6115de81611bba565b840191505092915050565b60006115f6602383611a07565b915061160182611bcb565b604082019050919050565b6000611619602283611a07565b915061162482611c1a565b604082019050919050565b600061163c602683611a07565b915061164782611c69565b604082019050919050565b600061165f602283611a07565b915061166a82611cb8565b604082019050919050565b6000611682601d83611a07565b915061168d82611d07565b602082019050919050565b60006116a5602683611a07565b91506116b082611d30565b604082019050919050565b60006116c8601983611a07565b91506116d382611d7f565b602082019050919050565b60006116eb602083611a07565b91506116f682611da8565b602082019050919050565b600061170e602183611a07565b915061171982611dd1565b604082019050919050565b6000611731602583611a07565b915061173c82611e20565b604082019050919050565b6000611754602483611a07565b915061175f82611e6f565b604082019050919050565b6000611777602583611a07565b915061178282611ebe565b604082019050919050565b600061179a601f83611a07565b91506117a582611f0d565b602082019050919050565b6117b981611ae0565b82525050565b6117c881611aea565b82525050565b60006020820190506117e36000830184611592565b92915050565b60006020820190506117fe60008301846115a1565b92915050565b6000602082019050818103600083015261181e81846115b0565b905092915050565b6000602082019050818103600083015261183f816115e9565b9050919050565b6000602082019050818103600083015261185f8161160c565b9050919050565b6000602082019050818103600083015261187f8161162f565b9050919050565b6000602082019050818103600083015261189f81611652565b9050919050565b600060208201905081810360008301526118bf81611675565b9050919050565b600060208201905081810360008301526118df81611698565b9050919050565b600060208201905081810360008301526118ff816116bb565b9050919050565b6000602082019050818103600083015261191f816116de565b9050919050565b6000602082019050818103600083015261193f81611701565b9050919050565b6000602082019050818103600083015261195f81611724565b9050919050565b6000602082019050818103600083015261197f81611747565b9050919050565b6000602082019050818103600083015261199f8161176a565b9050919050565b600060208201905081810360008301526119bf8161178d565b9050919050565b60006020820190506119db60008301846117b0565b92915050565b60006020820190506119f660008301846117bf565b92915050565b600081519050919050565b600082825260208201905092915050565b6000611a2382611ae0565b9150611a2e83611ae0565b9250827fffffffffffffffffffffffffffffffffffffffffffffffffffffffffffffffff03821115611a6357611a62611b5c565b5b828201905092915050565b6000611a7982611ae0565b9150611a8483611ae0565b925082821015611a9757611a96611b5c565b5b828203905092915050565b6000611aad82611ac0565b9050919050565b60008115159050919050565b600073ffffffffffffffffffffffffffffffffffffffff82169050919050565b6000819050919050565b600060ff82169050919050565b60005b83811015611b15578082015181840152602081019050611afa565b83811115611b24576000848401525b50505050565b60006002820490506001821680611b4257607f821691505b60208210811415611b5657611b55611b8b565b5b50919050565b7f4e487b7100000000000000000000000000000000000000000000000000000000600052601160045260246000fd5b7f4e487b7100000000000000000000000000000000000000000000000000000000600052602260045260246000fd5b6000601f19601f8301169050919050565b7f45524332303a207472616e7366657220746f20746865207a65726f206164647260008201527f6573730000000000000000000000000000000000000000000000000000000000602082015250565b7f45524332303a206275726e20616d6f756e7420657863656564732062616c616e60008201527f6365000000000000000000000000000000000000000000000000000000000000602082015250565b7f4f776e61626c653a206e6577206f776e657220697320746865207a65726f206160008201527f6464726573730000000000000000000000000000000000000000000000000000602082015250565b7f45524332303a20617070726f766520746f20746865207a65726f20616464726560008201527f7373000000000000000000000000000000000000000000000000000000000000602082015250565b7f45524332303a20696e73756666696369656e7420616c6c6f77616e6365000000600082015250565b7f45524332303a207472616e7366657220616d6f756e742065786365656473206260008201527f616c616e63650000000000000000000000000000000000000000000000000000602082015250565b7f4f6e6c7920636f6e74726f6c6c6572732063616e206d696e7400000000000000600082015250565b7f4f776e61626c653a2063616c6c6572206973206e6f7420746865206f776e6572600082015250565b7f45524332303a206275726e2066726f6d20746865207a65726f2061646472657360008201527f7300000000000000000000000000000000000000000000000000000000000000602082015250565b7f45524332303a207472616e736665722066726f6d20746865207a65726f20616460008201527f6472657373000000000000000000000000000000000000000000000000000000602082015250565b7f45524332303a20617070726f76652066726f6d20746865207a65726f2061646460008201527f7265737300000000000000000000000000000000000000000000000000000000602082015250565b7f45524332303a2064656372656173656420616c6c6f77616e63652062656c6f7760008201527f207a65726f000000000000000000000000000000000000000000000000000000602082015250565b7f45524332303a206d696e7420746f20746865207a65726f206164647265737300600082015250565b611f3f81611aa2565b8114611f4a57600080fd5b50565b611f5681611ae0565b8114611f6157600080fd5b5056fea264697066735822122097be74c3e07a82d14b4df221c65bc93953a1d5c87b3537bf06b3cb2caa89a7b364736f6c63430008040033",
  "linkReferences": {},
  "deployedLinkReferences": {}
}